{"contracts/TokenPaymaster.sol":{"TokenPaymaster":{"abi":[{"inputs":[],"stateMutability":"nonpayable","type":"constructor"},{"anonymous":false,"inputs":[{"indexed":true,"internalType":"address","name":"previousOwner","type":"address"},{"indexed":true,"internalType":"address","name":"newOwner","type":"address"}],"name":"OwnershipTransferred","type":"event"},{"anonymous":false,"inputs":[{"indexed":false,"internalType":"uint256","name":"eth","type":"uint256"}],"name":"Received","type":"event"},{"anonymous":false,"inputs":[{"indexed":false,"internalType":"uint256","name":"gasUseWithoutPost","type":"uint256"},{"indexed":false,"internalType":"uint256","name":"gasJustPost","type":"uint256"},{"indexed":false,"internalType":"uint256","name":"ethActualCharge","type":"uint256"},{"indexed":false,"internalType":"uint256","name":"tokenActualCharge","type":"uint256"}],"name":"TokensCharged","type":"event"},{"inputs":[],"name":"CALLDATA_SIZE_LIMIT","outputs":[{"internalType":"uint256","name":"","type":"uint256"}],"stateMutability":"view","type":"function"},{"inputs":[],"name":"FORWARDER_HUB_OVERHEAD","outputs":[{"internalType":"uint256","name":"","type":"uint256"}],"stateMutability":"view","type":"function"},{"inputs":[],"name":"PAYMASTER_ACCEPTANCE_BUDGET","outputs":[{"internalType":"uint256","name":"","type":"uint256"}],"stateMutability":"view","type":"function"},{"inputs":[],"name":"POST_RELAYED_CALL_GAS_LIMIT","outputs":[{"internalType":"uint256","name":"","type":"uint256"}],"stateMutability":"view","type":"function"},{"inputs":[],"name":"PRE_RELAYED_CALL_GAS_LIMIT","outputs":[{"internalType":"uint256","name":"","type":"uint256"}],"stateMutability":"view","type":"function"},{"inputs":[],"name":"gasUsedByPost","outputs":[{"internalType":"uint256","name":"","type":"uint256"}],"stateMutability":"view","type":"function"},{"inputs":[],"name":"getGasAndDataLimits","outputs":[{"components":[{"internalType":"uint256","name":"acceptanceBudget","type":"uint256"},{"internalType":"uint256","name":"preRelayedCallGasLimit","type":"uint256"},{"internalType":"uint256","name":"postRelayedCallGasLimit","type":"uint256"},{"internalType":"uint256","name":"calldataSizeLimit","type":"uint256"}],"internalType":"struct IPaymaster.GasAndDataLimits","name":"limits","type":"tuple"}],"stateMutability":"view","type":"function"},{"inputs":[{"components":[{"components":[{"internalType":"address","name":"from","type":"address"},{"internalType":"address","name":"to","type":"address"},{"internalType":"uint256","name":"value","type":"uint256"},{"internalType":"uint256","name":"gas","type":"uint256"},{"internalType":"uint256","name":"nonce","type":"uint256"},{"internalType":"bytes","name":"data","type":"bytes"},{"internalType":"uint256","name":"validUntilTime","type":"uint256"}],"internalType":"struct IForwarder.ForwardRequest","name":"request","type":"tuple"},{"components":[{"internalType":"uint256","name":"maxFeePerGas","type":"uint256"},{"internalType":"uint256","name":"maxPriorityFeePerGas","type":"uint256"},{"internalType":"uint256","name":"transactionCalldataGasUsed","type":"uint256"},{"internalType":"address","name":"relayWorker","type":"address"},{"internalType":"address","name":"paymaster","type":"address"},{"internalType":"address","name":"forwarder","type":"address"},{"internalType":"bytes","name":"paymasterData","type":"bytes"},{"internalType":"uint256","name":"clientId","type":"uint256"}],"internalType":"struct GsnTypes.RelayData","name":"relayData","type":"tuple"}],"internalType":"struct GsnTypes.RelayRequest","name":"relayRequest","type":"tuple"}],"name":"getPayer","outputs":[{"internalType":"address","name":"","type":"address"}],"stateMutability":"view","type":"function"},{"inputs":[],"name":"getRelayHub","outputs":[{"internalType":"address","name":"","type":"address"}],"stateMutability":"view","type":"function"},{"inputs":[],"name":"getTrustedForwarder","outputs":[{"internalType":"address","name":"","type":"address"}],"stateMutability":"view","type":"function"},{"inputs":[],"name":"owner","outputs":[{"internalType":"address","name":"","type":"address"}],"stateMutability":"view","type":"function"},{"inputs":[{"internalType":"bytes","name":"context","type":"bytes"},{"internalType":"bool","name":"success","type":"bool"},{"internalType":"uint256","name":"gasUseWithoutPost","type":"uint256"},{"components":[{"internalType":"uint256","name":"maxFeePerGas","type":"uint256"},{"internalType":"uint256","name":"maxPriorityFeePerGas","type":"uint256"},{"internalType":"uint256","name":"transactionCalldataGasUsed","type":"uint256"},{"internalType":"address","name":"relayWorker","type":"address"},{"internalType":"address","name":"paymaster","type":"address"},{"internalType":"address","name":"forwarder","type":"address"},{"internalType":"bytes","name":"paymasterData","type":"bytes"},{"internalType":"uint256","name":"clientId","type":"uint256"}],"internalType":"struct GsnTypes.RelayData","name":"relayData","type":"tuple"}],"name":"postRelayedCall","outputs":[],"stateMutability":"nonpayable","type":"function"},{"inputs":[{"components":[{"components":[{"internalType":"address","name":"from","type":"address"},{"internalType":"address","name":"to","type":"address"},{"internalType":"uint256","name":"value","type":"uint256"},{"internalType":"uint256","name":"gas","type":"uint256"},{"internalType":"uint256","name":"nonce","type":"uint256"},{"internalType":"bytes","name":"data","type":"bytes"},{"internalType":"uint256","name":"validUntilTime","type":"uint256"}],"internalType":"struct IForwarder.ForwardRequest","name":"request","type":"tuple"},{"components":[{"internalType":"uint256","name":"maxFeePerGas","type":"uint256"},{"internalType":"uint256","name":"maxPriorityFeePerGas","type":"uint256"},{"internalType":"uint256","name":"transactionCalldataGasUsed","type":"uint256"},{"internalType":"address","name":"relayWorker","type":"address"},{"internalType":"address","name":"paymaster","type":"address"},{"internalType":"address","name":"forwarder","type":"address"},{"internalType":"bytes","name":"paymasterData","type":"bytes"},{"internalType":"uint256","name":"clientId","type":"uint256"}],"internalType":"struct GsnTypes.RelayData","name":"relayData","type":"tuple"}],"internalType":"struct GsnTypes.RelayRequest","name":"relayRequest","type":"tuple"},{"internalType":"bytes","name":"signature","type":"bytes"},{"internalType":"bytes","name":"approvalData","type":"bytes"},{"internalType":"uint256","name":"maxPossibleGas","type":"uint256"}],"name":"preRelayedCall","outputs":[{"internalType":"bytes","name":"","type":"bytes"},{"internalType":"bool","name":"","type":"bool"}],"stateMutability":"nonpayable","type":"function"},{"inputs":[],"name":"renounceOwnership","outputs":[],"stateMutability":"nonpayable","type":"function"},{"inputs":[{"internalType":"uint256","name":"_gasUsedByPost","type":"uint256"}],"name":"setPostGasUsage","outputs":[],"stateMutability":"nonpayable","type":"function"},{"inputs":[{"internalType":"contract IRelayHub","name":"hub","type":"address"}],"name":"setRelayHub","outputs":[],"stateMutability":"nonpayable","type":"function"},{"inputs":[{"internalType":"address","name":"forwarder","type":"address"}],"name":"setTrustedForwarder","outputs":[],"stateMutability":"nonpayable","type":"function"},{"inputs":[{"internalType":"bytes4","name":"interfaceId","type":"bytes4"}],"name":"supportsInterface","outputs":[{"internalType":"bool","name":"","type":"bool"}],"stateMutability":"view","type":"function"},{"inputs":[{"internalType":"uint256","name":"","type":"uint256"}],"name":"tokens","outputs":[{"internalType":"contract IERC20","name":"","type":"address"}],"stateMutability":"view","type":"function"},{"inputs":[{"internalType":"address","name":"newOwner","type":"address"}],"name":"transferOwnership","outputs":[],"stateMutability":"nonpayable","type":"function"},{"inputs":[{"internalType":"uint256","name":"","type":"uint256"}],"name":"uniswaps","outputs":[{"internalType":"contract IUniswapV3","name":"","type":"address"}],"stateMutability":"view","type":"function"},{"inputs":[],"name":"versionPaymaster","outputs":[{"internalType":"string","name":"","type":"string"}],"stateMutability":"view","type":"function"},{"inputs":[{"internalType":"uint256","name":"amount","type":"uint256"},{"internalType":"address payable","name":"target","type":"address"}],"name":"withdrawRelayHubDepositTo","outputs":[],"stateMutability":"nonpayable","type":"function"},{"stateMutability":"payable","type":"receive"}],"evm":{"bytecode":{"linkReferences":{},"object":"60806040523480156200001157600080fd5b5062000032620000266200014960201b60201c565b6200015160201b60201c565b6003731f98431c8ad98523631ae4a59f267346ea31f9849080600181540180825580915050600190039060005260206000200160009091909190916101000a81548173ffffffffffffffffffffffffffffffffffffffff021916908373ffffffffffffffffffffffffffffffffffffffff1602179055506001600560006003600081548110620000c757620000c662000215565b5b9060005260206000200160009054906101000a900473ffffffffffffffffffffffffffffffffffffffff1673ffffffffffffffffffffffffffffffffffffffff1673ffffffffffffffffffffffffffffffffffffffff16815260200190815260200160002060006101000a81548160ff02191690831515021790555062000244565b600033905090565b60008060009054906101000a900473ffffffffffffffffffffffffffffffffffffffff169050816000806101000a81548173ffffffffffffffffffffffffffffffffffffffff021916908373ffffffffffffffffffffffffffffffffffffffff1602179055508173ffffffffffffffffffffffffffffffffffffffff168173ffffffffffffffffffffffffffffffffffffffff167f8be0079c531659141344cd1fd0a4f28419497f9722a3daafe3b4186f6b6457e060405160405180910390a35050565b7f4e487b7100000000000000000000000000000000000000000000000000000000600052603260045260246000fd5b6133ad80620002546000396000f3fe6080604052600436106101435760003560e01c80637bdf2ec7116100b6578063bbdaa3c91161006f578063bbdaa3c9146104a0578063ce1b815f146104cb578063da742228146104f6578063df463a661461051f578063f2fde38b1461054a578063f9c002f71461057357610181565b80637bdf2ec71461039e5780638da5cb5b146103c9578063921276ea146103f4578063ad12e50e1461041f578063b039a88f1461044a578063b90b41cf1461047557610181565b80635c5e3db1116101085780635c5e3db1146102a457806361843914146102cf5780636d7c3e2b1461030c578063715018a61461033557806376fa01c31461034c5780637bb052641461037557610181565b8062be5dd41461018657806301ffc9a7146101c45780632d14c4b71461020157806341bbb7ca1461022a5780634f64b2be1461026757610181565b36610181577fa8142743f8f70a4c26f3691cf4ed59718381fb2f18070ec52be1f1022d855557346040516101779190612b13565b60405180910390a1005b600080fd5b34801561019257600080fd5b506101ad60048036038101906101a89190611f57565b61059e565b6040516101bb92919061288e565b60405180910390f35b3480156101d057600080fd5b506101eb60048036038101906101e69190611de3565b6105ec565b6040516101f89190612858565b60405180910390f35b34801561020d57600080fd5b5061022860048036038101906102239190612074565b6106ce565b005b34801561023657600080fd5b50610251600480360381019061024c9190611f0e565b610769565b60405161025e919061276f565b60405180910390f35b34801561027357600080fd5b5061028e6004803603810190610289919061201a565b610794565b60405161029b91906128be565b60405180910390f35b3480156102b057600080fd5b506102b96107d3565b6040516102c69190612b13565b60405180910390f35b3480156102db57600080fd5b506102f660048036038101906102f1919061201a565b6107d9565b60405161030391906128d9565b60405180910390f35b34801561031857600080fd5b50610333600480360381019061032e919061201a565b610818565b005b34801561034157600080fd5b5061034a61082a565b005b34801561035857600080fd5b50610373600480360381019061036e9190611e10565b61083e565b005b34801561038157600080fd5b5061039c60048036038101906103979190611eb4565b61085a565b005b3480156103aa57600080fd5b506103b361092e565b6040516103c0919061276f565b60405180910390f35b3480156103d557600080fd5b506103de610958565b6040516103eb919061276f565b60405180910390f35b34801561040057600080fd5b50610409610981565b60405161041691906128f4565b60405180910390f35b34801561042b57600080fd5b506104346109a1565b6040516104419190612b13565b60405180910390f35b34801561045657600080fd5b5061045f6109a7565b60405161046c9190612ad6565b60405180910390f35b34801561048157600080fd5b5061048a6109ed565b6040516104979190612b13565b60405180910390f35b3480156104ac57600080fd5b506104b56109f3565b6040516104c29190612b13565b60405180910390f35b3480156104d757600080fd5b506104e06109fa565b6040516104ed919061276f565b60405180910390f35b34801561050257600080fd5b5061051d60048036038101906105189190611cf5565b610a24565b005b34801561052b57600080fd5b50610534610af8565b6040516105419190612b13565b60405180910390f35b34801561055657600080fd5b50610571600480360381019061056c9190611cf5565b610b0c565b005b34801561057f57600080fd5b50610588610b90565b6040516105959190612b13565b60405180910390f35b606060006105aa610b97565b6105b388610c0e565b6105bc88610cb0565b6105c588610d09565b6105cf8585610d6f565b6105dd888888888888610db9565b91509150965096945050505050565b60007fe1ab2dea000000000000000000000000000000000000000000000000000000007bffffffffffffffffffffffffffffffffffffffffffffffffffffffff1916827bffffffffffffffffffffffffffffffffffffffffffffffffffffffff191614806106b757507f0e083076000000000000000000000000000000000000000000000000000000007bffffffffffffffffffffffffffffffffffffffffffffffffffffffff1916827bffffffffffffffffffffffffffffffffffffffffffffffffffffffff1916145b806106c757506106c682610f0b565b5b9050919050565b6106d6610f75565b600160009054906101000a900473ffffffffffffffffffffffffffffffffffffffff1673ffffffffffffffffffffffffffffffffffffffff1663f3fef3a382846040518363ffffffff1660e01b815260040161073392919061278a565b600060405180830381600087803b15801561074d57600080fd5b505af1158015610761573d6000803e3d6000fd5b505050505050565b600081806000019061077b9190612c3d565b602001602081019061078d9190611cf5565b9050919050565b600481815481106107a457600080fd5b906000526020600020016000915054906101000a900473ffffffffffffffffffffffffffffffffffffffff1681565b61290481565b600381815481106107e957600080fd5b906000526020600020016000915054906101000a900473ffffffffffffffffffffffffffffffffffffffff1681565b610820610f75565b8060068190555050565b610832610f75565b61083c6000610ff3565b565b610846610b97565b61085385858585856110b7565b5050505050565b610862610f75565b6108ab7fe9fb30f7000000000000000000000000000000000000000000000000000000008273ffffffffffffffffffffffffffffffffffffffff166110ef90919063ffffffff16565b6108ea576040517f08c379a00000000000000000000000000000000000000000000000000000000081526004016108e190612a56565b60405180910390fd5b80600160006101000a81548173ffffffffffffffffffffffffffffffffffffffff021916908373ffffffffffffffffffffffffffffffffffffffff16021790555050565b6000600160009054906101000a900473ffffffffffffffffffffffffffffffffffffffff16905090565b60008060009054906101000a900473ffffffffffffffffffffffffffffffffffffffff16905090565b606060405180606001604052806025815260200161335360259139905090565b60065481565b6109af611b3c565b604051806080016040528061c350620186a06109cb9190612dc4565b8152602001620186a081526020016201adb08152602001612904815250905090565b61c35081565b6201adb081565b6000600260009054906101000a900473ffffffffffffffffffffffffffffffffffffffff16905090565b610a2c610f75565b610a757f25e23e64000000000000000000000000000000000000000000000000000000008273ffffffffffffffffffffffffffffffffffffffff166110ef90919063ffffffff16565b610ab4576040517f08c379a0000000000000000000000000000000000000000000000000000000008152600401610aab906129d6565b60405180910390fd5b80600260006101000a81548173ffffffffffffffffffffffffffffffffffffffff021916908373ffffffffffffffffffffffffffffffffffffffff16021790555050565b61c350620186a0610b099190612dc4565b81565b610b14610f75565b600073ffffffffffffffffffffffffffffffffffffffff168173ffffffffffffffffffffffffffffffffffffffff161415610b84576040517f08c379a0000000000000000000000000000000000000000000000000000000008152600401610b7b90612956565b60405180910390fd5b610b8d81610ff3565b50565b620186a081565b610b9f61092e565b73ffffffffffffffffffffffffffffffffffffffff163373ffffffffffffffffffffffffffffffffffffffff1614610c0c576040517f08c379a0000000000000000000000000000000000000000000000000000000008152600401610c0390612a76565b60405180910390fd5b565b808060200190610c1e9190612c65565b60a0016020810190610c309190611cf5565b73ffffffffffffffffffffffffffffffffffffffff16610c4e6109fa565b73ffffffffffffffffffffffffffffffffffffffff1614610ca4576040517f08c379a0000000000000000000000000000000000000000000000000000000008152600401610c9b906129b6565b60405180910390fd5b610cad81611114565b50565b6000818060000190610cc29190612c3d565b6040013514610d06576040517f08c379a0000000000000000000000000000000000000000000000000000000008152600401610cfd90612a96565b60405180910390fd5b50565b6020818060200190610d1b9190612c65565b8060c00190610d2a9190612bda565b905014610d6c576040517f08c379a0000000000000000000000000000000000000000000000000000000008152600401610d6390612916565b60405180910390fd5b50565b60008282905014610db5576040517f08c379a0000000000000000000000000000000000000000000000000000000008152600401610dac90612ab6565b60405180910390fd5b5050565b606060008080610e298a8060200190610dd29190612c65565b8060c00190610de19190612bda565b8080601f016020809104026020016040519081016040528093929190818152602001838380828437600081840152601f19601f82011690508083019250505050505050611314565b91509150600080610e3c84848e8a61143e565b915091508373ffffffffffffffffffffffffffffffffffffffff166323b872dd8330846040518463ffffffff1660e01b8152600401610e7d939291906127b3565b602060405180830381600087803b158015610e9757600080fd5b505af1158015610eab573d6000803e3d6000fd5b505050506040513d601f19601f82011682018060405250810190610ecf9190611db6565b5081818585604051602001610ee79493929190612813565b60405160208183030381529060405260009550955050505050965096945050505050565b60007f01ffc9a7000000000000000000000000000000000000000000000000000000007bffffffffffffffffffffffffffffffffffffffffffffffffffffffff1916827bffffffffffffffffffffffffffffffffffffffffffffffffffffffff1916149050919050565b610f7d611642565b73ffffffffffffffffffffffffffffffffffffffff16610f9b610958565b73ffffffffffffffffffffffffffffffffffffffff1614610ff1576040517f08c379a0000000000000000000000000000000000000000000000000000000008152600401610fe890612a36565b60405180910390fd5b565b60008060009054906101000a900473ffffffffffffffffffffffffffffffffffffffff169050816000806101000a81548173ffffffffffffffffffffffffffffffffffffffff021916908373ffffffffffffffffffffffffffffffffffffffff1602179055508173ffffffffffffffffffffffffffffffffffffffff168173ffffffffffffffffffffffffffffffffffffffff167f8be0079c531659141344cd1fd0a4f28419497f9722a3daafe3b4186f6b6457e060405160405180910390a35050565b60008060008088888101906110cc9190611d4f565b93509350935093506110e4848460008989878761164a565b505050505050505050565b60006110fa83611810565b801561110c575061110b838361185d565b5b905092915050565b6000808280600001906111279190612c3d565b60200160208101906111399190611cf5565b73ffffffffffffffffffffffffffffffffffffffff1663572b6c0560e01b8480602001906111679190612c65565b60a00160208101906111799190611cf5565b604051602401611189919061276f565b604051602081830303815290604052907bffffffffffffffffffffffffffffffffffffffffffffffffffffffff19166020820180517bffffffffffffffffffffffffffffffffffffffffffffffffffffffff83818316178352505050506040516111f39190612758565b600060405180830381855afa9150503d806000811461122e576040519150601f19603f3d011682016040523d82523d6000602084013e611233565b606091505b509150915081611278576040517f08c379a000000000000000000000000000000000000000000000000000000000815260040161126f90612976565b60405180910390fd5b60208151146112bc576040517f08c379a00000000000000000000000000000000000000000000000000000000081526004016112b390612a16565b60405180910390fd5b808060200190518101906112d09190611db6565b61130f576040517f08c379a000000000000000000000000000000000000000000000000000000000815260040161130690612936565b60405180910390fd5b505050565b6000808280602001905181019061132b9190611ee1565b9050600560008273ffffffffffffffffffffffffffffffffffffffff1673ffffffffffffffffffffffffffffffffffffffff16815260200190815260200160002060009054906101000a900460ff166113b9576040517f08c379a00000000000000000000000000000000000000000000000000000000081526004016113b0906129f6565b60405180910390fd5b8073ffffffffffffffffffffffffffffffffffffffff16639d76ea586040518163ffffffff1660e01b815260040160206040518083038186803b1580156113ff57600080fd5b505afa158015611413573d6000803e3d6000fd5b505050506040513d601f19601f820116820180604052508101906114379190611d22565b9150915091565b6000803073ffffffffffffffffffffffffffffffffffffffff166341bbb7ca856040518263ffffffff1660e01b815260040161147a9190612af1565b60206040518083038186803b15801561149257600080fd5b505afa1580156114a6573d6000803e3d6000fd5b505050506040513d601f19601f820116820180604052508101906114ca9190611d22565b91506000600160009054906101000a900473ffffffffffffffffffffffffffffffffffffffff1673ffffffffffffffffffffffffffffffffffffffff16638e53548b8587806020019061151d9190612c65565b6040518363ffffffff1660e01b815260040161153a929190612b2e565b60206040518083038186803b15801561155257600080fd5b505afa158015611566573d6000803e3d6000fd5b505050506040513d601f19601f8201168201806040525081019061158a9190612047565b905084806000019061159c9190612c3d565b60400135816115ab9190612dc4565b90508573ffffffffffffffffffffffffffffffffffffffff16632640f62c826040518263ffffffff1660e01b81526004016115e69190612b13565b60206040518083038186803b1580156115fe57600080fd5b505afa158015611612573d6000803e3d6000fd5b505050506040513d601f19601f820116820180604052508101906116369190612047565b91505094509492505050565b600033905090565b6000600160009054906101000a900473ffffffffffffffffffffffffffffffffffffffff1673ffffffffffffffffffffffffffffffffffffffff16638e53548b600654876116989190612dc4565b866040518363ffffffff1660e01b81526004016116b6929190612b2e565b60206040518083038186803b1580156116ce57600080fd5b505afa1580156116e2573d6000803e3d6000fd5b505050506040513d601f19601f820116820180604052508101906117069190612047565b905060008273ffffffffffffffffffffffffffffffffffffffff16632640f62c83896117329190612dc4565b6040518263ffffffff1660e01b815260040161174e9190612b13565b60206040518083038186803b15801561176657600080fd5b505afa15801561177a573d6000803e3d6000fd5b505050506040513d601f19601f8201168201806040525081019061179e9190612047565b9050600081896117ae9190612e1a565b90506117bb8a868361191c565b6117c583856119ed565b7fb3d69ff8981e297b4ab7fb9ba8e8a080ffebbee9f273bfa2d10116a8236830458760065485856040516117fc9493929190612b95565b60405180910390a150505050505050505050565b600061183c827f01ffc9a70000000000000000000000000000000000000000000000000000000061185d565b801561185657506118548263ffffffff60e01b61185d565b155b9050919050565b6000806301ffc9a760e01b836040516024016118799190612873565b604051602081830303815290604052907bffffffffffffffffffffffffffffffffffffffffffffffffffffffff19166020820180517bffffffffffffffffffffffffffffffffffffffffffffffffffffffff838183161783525050505090506000806000602060008551602087018a617530fa92503d91506000519050828015611904575060208210155b80156119105750600081115b94505050505092915050565b8173ffffffffffffffffffffffffffffffffffffffff1663a9059cbb84836040518363ffffffff1660e01b81526004016119579291906127ea565b602060405180830381600087803b15801561197157600080fd5b505af1158015611985573d6000803e3d6000fd5b505050506040513d601f19601f820116820180604052508101906119a99190611db6565b6119e8576040517f08c379a00000000000000000000000000000000000000000000000000000000081526004016119df90612996565b60405180910390fd5b505050565b8073ffffffffffffffffffffffffffffffffffffffff1663013efd8b837fffffffffffffffffffffffffffffffffffffffffffffffffffffffffffffffff61038442611a399190612dc4565b6040518463ffffffff1660e01b8152600401611a5793929190612b5e565b602060405180830381600087803b158015611a7157600080fd5b505af1158015611a85573d6000803e3d6000fd5b505050506040513d601f19601f82011682018060405250810190611aa99190612047565b50600160009054906101000a900473ffffffffffffffffffffffffffffffffffffffff1673ffffffffffffffffffffffffffffffffffffffff1663aa67c91983306040518363ffffffff1660e01b8152600401611b06919061276f565b6000604051808303818588803b158015611b1f57600080fd5b505af1158015611b33573d6000803e3d6000fd5b50505050505050565b6040518060800160405280600081526020016000815260200160008152602001600081525090565b600081359050611b738161329a565b92915050565b600081519050611b888161329a565b92915050565b600081359050611b9d816132b1565b92915050565b600081359050611bb2816132c8565b92915050565b600081519050611bc7816132c8565b92915050565b600081359050611bdc816132df565b92915050565b60008083601f840112611bf857611bf7612fcd565b5b8235905067ffffffffffffffff811115611c1557611c14612fc8565b5b602083019150836001820283011115611c3157611c30612fe6565b5b9250929050565b600081359050611c47816132f6565b92915050565b600081359050611c5c8161330d565b92915050565b600081359050611c7181613324565b92915050565b600081519050611c8681613324565b92915050565b60006101008284031215611ca357611ca2612fd7565b5b81905092915050565b600060408284031215611cc257611cc1612fd7565b5b81905092915050565b600081359050611cda8161333b565b92915050565b600081519050611cef8161333b565b92915050565b600060208284031215611d0b57611d0a612ffa565b5b6000611d1984828501611b64565b91505092915050565b600060208284031215611d3857611d37612ffa565b5b6000611d4684828501611b79565b91505092915050565b60008060008060808587031215611d6957611d68612ffa565b5b6000611d7787828801611b8e565b9450506020611d8887828801611ccb565b9350506040611d9987828801611c38565b9250506060611daa87828801611c62565b91505092959194509250565b600060208284031215611dcc57611dcb612ffa565b5b6000611dda84828501611bb8565b91505092915050565b600060208284031215611df957611df8612ffa565b5b6000611e0784828501611bcd565b91505092915050565b600080600080600060808688031215611e2c57611e2b612ffa565b5b600086013567ffffffffffffffff811115611e4a57611e49612ff0565b5b611e5688828901611be2565b95509550506020611e6988828901611ba3565b9350506040611e7a88828901611ccb565b925050606086013567ffffffffffffffff811115611e9b57611e9a612ff0565b5b611ea788828901611c8c565b9150509295509295909350565b600060208284031215611eca57611ec9612ffa565b5b6000611ed884828501611c4d565b91505092915050565b600060208284031215611ef757611ef6612ffa565b5b6000611f0584828501611c77565b91505092915050565b600060208284031215611f2457611f23612ffa565b5b600082013567ffffffffffffffff811115611f4257611f41612ff0565b5b611f4e84828501611cac565b91505092915050565b60008060008060008060808789031215611f7457611f73612ffa565b5b600087013567ffffffffffffffff811115611f9257611f91612ff0565b5b611f9e89828a01611cac565b965050602087013567ffffffffffffffff811115611fbf57611fbe612ff0565b5b611fcb89828a01611be2565b9550955050604087013567ffffffffffffffff811115611fee57611fed612ff0565b5b611ffa89828a01611be2565b9350935050606061200d89828a01611ccb565b9150509295509295509295565b6000602082840312156120305761202f612ffa565b5b600061203e84828501611ccb565b91505092915050565b60006020828403121561205d5761205c612ffa565b5b600061206b84828501611ce0565b91505092915050565b6000806040838503121561208b5761208a612ffa565b5b600061209985828601611ccb565b92505060206120aa85828601611b8e565b9150509250929050565b6120bd81612e60565b82525050565b6120cc81612e4e565b82525050565b6120db81612e4e565b82525050565b6120ea81612e72565b82525050565b6120f981612e7e565b82525050565b600061210b8385612ca4565b9350612118838584612f52565b61212183612fff565b840190509392505050565b600061213782612c8e565b6121418185612cb5565b9350612151818560208601612f61565b61215a81612fff565b840191505092915050565b600061217082612c8e565b61217a8185612cc6565b935061218a818560208601612f61565b80840191505092915050565b61219f81612f0a565b82525050565b6121ae81612f1c565b82525050565b60006121bf82612c99565b6121c98185612cd1565b93506121d9818560208601612f61565b6121e281612fff565b840191505092915050565b60006121fa603d83612cd1565b915061220582613010565b604082019050919050565b600061221d601f83612cd1565b91506122288261305f565b602082019050919050565b6000612240602683612cd1565b915061224b82613088565b604082019050919050565b6000612263601c83612cd1565b915061226e826130d7565b602082019050919050565b6000612286600d83612cd1565b915061229182613100565b602082019050919050565b60006122a9601883612cd1565b91506122b482613129565b602082019050919050565b60006122cc602083612cd1565b91506122d782613152565b602082019050919050565b60006122ef601983612cd1565b91506122fa8261317b565b602082019050919050565b6000612312602083612cd1565b915061231d826131a4565b602082019050919050565b6000612335602083612cd1565b9150612340826131cd565b602082019050919050565b6000612358601f83612cd1565b9150612363826131f6565b602082019050919050565b600061237b601e83612cd1565b91506123868261321f565b602082019050919050565b600061239e601c83612cd1565b91506123a982613248565b602082019050919050565b60006123c1601b83612cd1565b91506123cc82613271565b602082019050919050565b600060e083016123ea6000840184612ce2565b6123f760008601826120c3565b506124056020840184612ce2565b61241260208601826120c3565b506124206040840184612dad565b61242d604086018261273a565b5061243b6060840184612dad565b612448606086018261273a565b506124566080840184612dad565b612463608086018261273a565b5061247160a0840184612cf9565b85830360a08701526124848382846120ff565b9250505061249560c0840184612dad565b6124a260c086018261273a565b508091505092915050565b6080820160008201516124c3600085018261273a565b5060208201516124d6602085018261273a565b5060408201516124e9604085018261273a565b5060608201516124fc606085018261273a565b50505050565b600061010083016125166000840184612dad565b612523600086018261273a565b506125316020840184612dad565b61253e602086018261273a565b5061254c6040840184612dad565b612559604086018261273a565b506125676060840184612ce2565b61257460608601826120c3565b506125826080840184612ce2565b61258f60808601826120c3565b5061259d60a0840184612ce2565b6125aa60a08601826120c3565b506125b860c0840184612cf9565b85830360c08701526125cb8382846120ff565b925050506125dc60e0840184612dad565b6125e960e086018261273a565b508091505092915050565b600061010083016126086000840184612dad565b612615600086018261273a565b506126236020840184612dad565b612630602086018261273a565b5061263e6040840184612dad565b61264b604086018261273a565b506126596060840184612ce2565b61266660608601826120c3565b506126746080840184612ce2565b61268160808601826120c3565b5061268f60a0840184612ce2565b61269c60a08601826120c3565b506126aa60c0840184612cf9565b85830360c08701526126bd8382846120ff565b925050506126ce60e0840184612dad565b6126db60e086018261273a565b508091505092915050565b6000604083016126f96000840184612d5c565b848203600086015261270b82826123d7565b91505061271b6020840184612d84565b848203602086015261272d8282612502565b9150508091505092915050565b61274381612f00565b82525050565b61275281612f00565b82525050565b60006127648284612165565b915081905092915050565b600060208201905061278460008301846120d2565b92915050565b600060408201905061279f60008301856120b4565b6127ac6020830184612749565b9392505050565b60006060820190506127c860008301866120d2565b6127d560208301856120d2565b6127e26040830184612749565b949350505050565b60006040820190506127ff60008301856120d2565b61280c6020830184612749565b9392505050565b600060808201905061282860008301876120d2565b6128356020830186612749565b6128426040830185612196565b61284f60608301846121a5565b95945050505050565b600060208201905061286d60008301846120e1565b92915050565b600060208201905061288860008301846120f0565b92915050565b600060408201905081810360008301526128a8818561212c565b90506128b760208301846120e1565b9392505050565b60006020820190506128d36000830184612196565b92915050565b60006020820190506128ee60008301846121a5565b92915050565b6000602082019050818103600083015261290e81846121b4565b905092915050565b6000602082019050818103600083015261292f816121ed565b9050919050565b6000602082019050818103600083015261294f81612210565b9050919050565b6000602082019050818103600083015261296f81612233565b9050919050565b6000602082019050818103600083015261298f81612256565b9050919050565b600060208201905081810360008301526129af81612279565b9050919050565b600060208201905081810360008301526129cf8161229c565b9050919050565b600060208201905081810360008301526129ef816122bf565b9050919050565b60006020820190508181036000830152612a0f816122e2565b9050919050565b60006020820190508181036000830152612a2f81612305565b9050919050565b60006020820190508181036000830152612a4f81612328565b9050919050565b60006020820190508181036000830152612a6f8161234b565b9050919050565b60006020820190508181036000830152612a8f8161236e565b9050919050565b60006020820190508181036000830152612aaf81612391565b9050919050565b60006020820190508181036000830152612acf816123b4565b9050919050565b6000608082019050612aeb60008301846124ad565b92915050565b60006020820190508181036000830152612b0b81846126e6565b905092915050565b6000602082019050612b286000830184612749565b92915050565b6000604082019050612b436000830185612749565b8181036020830152612b5581846125f4565b90509392505050565b6000606082019050612b736000830186612749565b612b806020830185612749565b612b8d6040830184612749565b949350505050565b6000608082019050612baa6000830187612749565b612bb76020830186612749565b612bc46040830185612749565b612bd16060830184612749565b95945050505050565b60008083356001602003843603038112612bf757612bf6612fdc565b5b80840192508235915067ffffffffffffffff821115612c1957612c18612fd2565b5b602083019250600182023603831315612c3557612c34612feb565b5b509250929050565b60008235600160e003833603038112612c5957612c58612fdc565b5b80830191505092915050565b60008235600161010003833603038112612c8257612c81612fdc565b5b80830191505092915050565b600081519050919050565b600081519050919050565b600082825260208201905092915050565b600082825260208201905092915050565b600081905092915050565b600082825260208201905092915050565b6000612cf16020840184611b64565b905092915050565b60008083356001602003843603038112612d1657612d15612ff5565b5b83810192508235915060208301925067ffffffffffffffff821115612d3e57612d3d612fc3565b5b600182023603841315612d5457612d53612fe1565b5b509250929050565b60008235600160e003833603038112612d7857612d77612ff5565b5b82810191505092915050565b60008235600161010003833603038112612da157612da0612ff5565b5b82810191505092915050565b6000612dbc6020840184611ccb565b905092915050565b6000612dcf82612f00565b9150612dda83612f00565b9250827fffffffffffffffffffffffffffffffffffffffffffffffffffffffffffffffff03821115612e0f57612e0e612f94565b5b828201905092915050565b6000612e2582612f00565b9150612e3083612f00565b925082821015612e4357612e42612f94565b5b828203905092915050565b6000612e5982612ee0565b9050919050565b6000612e6b82612ee0565b9050919050565b60008115159050919050565b60007fffffffff0000000000000000000000000000000000000000000000000000000082169050919050565b6000612eb582612e4e565b9050919050565b6000612ec782612e4e565b9050919050565b6000612ed982612e4e565b9050919050565b600073ffffffffffffffffffffffffffffffffffffffff82169050919050565b6000819050919050565b6000612f1582612f2e565b9050919050565b6000612f2782612f2e565b9050919050565b6000612f3982612f40565b9050919050565b6000612f4b82612ee0565b9050919050565b82818337600083830152505050565b60005b83811015612f7f578082015181840152602081019050612f64565b83811115612f8e576000848401525b50505050565b7f4e487b7100000000000000000000000000000000000000000000000000000000600052601160045260246000fd5b600080fd5b600080fd5b600080fd5b600080fd5b600080fd5b600080fd5b600080fd5b600080fd5b600080fd5b600080fd5b600080fd5b600080fd5b6000601f19601f8301169050919050565b7f7061796d6173746572446174613a20696e76616c6964206c656e67746820666f60008201527f7220556e69737761702076332065786368616e67652061646472657373000000602082015250565b7f696e76616c696420666f7277617264657220666f7220726563697069656e7400600082015250565b7f4f776e61626c653a206e6577206f776e657220697320746865207a65726f206160008201527f6464726573730000000000000000000000000000000000000000000000000000602082015250565b7f697354727573746564466f727761726465723a20726576657274656400000000600082015250565b7f6661696c656420726566756e6400000000000000000000000000000000000000600082015250565b7f466f72776172646572206973206e6f7420747275737465640000000000000000600082015250565b7f746172676574206973206e6f7420612076616c69642049466f72776172646572600082015250565b7f756e737570706f7274656420746f6b656e20756e697377617000000000000000600082015250565b7f697354727573746564466f727761726465723a2062616420726573706f6e7365600082015250565b7f4f776e61626c653a2063616c6c6572206973206e6f7420746865206f776e6572600082015250565b7f746172676574206973206e6f7420612076616c6964204952656c617948756200600082015250565b7f63616e206f6e6c792062652063616c6c65642062792052656c61794875620000600082015250565b7f76616c7565207472616e73666572206e6f7420737570706f7274656400000000600082015250565b7f73686f756c642068617665206e6f20617070726f76616c446174610000000000600082015250565b6132a381612e4e565b81146132ae57600080fd5b50565b6132ba81612e60565b81146132c557600080fd5b50565b6132d181612e72565b81146132dc57600080fd5b50565b6132e881612e7e565b81146132f357600080fd5b50565b6132ff81612eaa565b811461330a57600080fd5b50565b61331681612ebc565b811461332157600080fd5b50565b61332d81612ece565b811461333857600080fd5b50565b61334481612f00565b811461334f57600080fd5b5056fe332e302e302d626574612e332b6f70656e67736e2e746f6b656e2e697061796d6173746572a2646970667358221220415eff73296d6742f16db68081356e17bb546c0626189806b730395d597ea02864736f6c63430008070033","opcodes":"PUSH1 0x80 PUSH1 0x40 MSTORE CALLVALUE DUP1 ISZERO PUSH3 0x11 JUMPI PUSH1 0x0 DUP1 REVERT JUMPDEST POP PUSH3 0x32 PUSH3 0x26 PUSH3 0x149 PUSH1 0x20 SHL PUSH1 0x20 SHR JUMP JUMPDEST PUSH3 0x151 PUSH1 0x20 SHL PUSH1 0x20 SHR JUMP JUMPDEST PUSH1 0x3 PUSH20 0x1F98431C8AD98523631AE4A59F267346EA31F984 SWAP1 DUP1 PUSH1 0x1 DUP2 SLOAD ADD DUP1 DUP3 SSTORE DUP1 SWAP2 POP POP PUSH1 0x1 SWAP1 SUB SWAP1 PUSH1 0x0 MSTORE PUSH1 0x20 PUSH1 0x0 KECCAK256 ADD PUSH1 0x0 SWAP1 SWAP2 SWAP1 SWAP2 SWAP1 SWAP2 PUSH2 0x100 EXP DUP2 SLOAD DUP2 PUSH20 0xFFFFFFFFFFFFFFFFFFFFFFFFFFFFFFFFFFFFFFFF MUL NOT AND SWAP1 DUP4 PUSH20 0xFFFFFFFFFFFFFFFFFFFFFFFFFFFFFFFFFFFFFFFF AND MUL OR SWAP1 SSTORE POP PUSH1 0x1 PUSH1 0x5 PUSH1 0x0 PUSH1 0x3 PUSH1 0x0 DUP2 SLOAD DUP2 LT PUSH3 0xC7 JUMPI PUSH3 0xC6 PUSH3 0x215 JUMP JUMPDEST JUMPDEST SWAP1 PUSH1 0x0 MSTORE PUSH1 0x20 PUSH1 0x0 KECCAK256 ADD PUSH1 0x0 SWAP1 SLOAD SWAP1 PUSH2 0x100 EXP SWAP1 DIV PUSH20 0xFFFFFFFFFFFFFFFFFFFFFFFFFFFFFFFFFFFFFFFF AND PUSH20 0xFFFFFFFFFFFFFFFFFFFFFFFFFFFFFFFFFFFFFFFF AND PUSH20 0xFFFFFFFFFFFFFFFFFFFFFFFFFFFFFFFFFFFFFFFF AND DUP2 MSTORE PUSH1 0x20 ADD SWAP1 DUP2 MSTORE PUSH1 0x20 ADD PUSH1 0x0 KECCAK256 PUSH1 0x0 PUSH2 0x100 EXP DUP2 SLOAD DUP2 PUSH1 0xFF MUL NOT AND SWAP1 DUP4 ISZERO ISZERO MUL OR SWAP1 SSTORE POP PUSH3 0x244 JUMP JUMPDEST PUSH1 0x0 CALLER SWAP1 POP SWAP1 JUMP JUMPDEST PUSH1 0x0 DUP1 PUSH1 0x0 SWAP1 SLOAD SWAP1 PUSH2 0x100 EXP SWAP1 DIV PUSH20 0xFFFFFFFFFFFFFFFFFFFFFFFFFFFFFFFFFFFFFFFF AND SWAP1 POP DUP2 PUSH1 0x0 DUP1 PUSH2 0x100 EXP DUP2 SLOAD DUP2 PUSH20 0xFFFFFFFFFFFFFFFFFFFFFFFFFFFFFFFFFFFFFFFF MUL NOT AND SWAP1 DUP4 PUSH20 0xFFFFFFFFFFFFFFFFFFFFFFFFFFFFFFFFFFFFFFFF AND MUL OR SWAP1 SSTORE POP DUP2 PUSH20 0xFFFFFFFFFFFFFFFFFFFFFFFFFFFFFFFFFFFFFFFF AND DUP2 PUSH20 0xFFFFFFFFFFFFFFFFFFFFFFFFFFFFFFFFFFFFFFFF AND PUSH32 0x8BE0079C531659141344CD1FD0A4F28419497F9722A3DAAFE3B4186F6B6457E0 PUSH1 0x40 MLOAD PUSH1 0x40 MLOAD DUP1 SWAP2 SUB SWAP1 LOG3 POP POP JUMP JUMPDEST PUSH32 0x4E487B7100000000000000000000000000000000000000000000000000000000 PUSH1 0x0 MSTORE PUSH1 0x32 PUSH1 0x4 MSTORE PUSH1 0x24 PUSH1 0x0 REVERT JUMPDEST PUSH2 0x33AD DUP1 PUSH3 0x254 PUSH1 0x0 CODECOPY PUSH1 0x0 RETURN INVALID PUSH1 0x80 PUSH1 0x40 MSTORE PUSH1 0x4 CALLDATASIZE LT PUSH2 0x143 JUMPI PUSH1 0x0 CALLDATALOAD PUSH1 0xE0 SHR DUP1 PUSH4 0x7BDF2EC7 GT PUSH2 0xB6 JUMPI DUP1 PUSH4 0xBBDAA3C9 GT PUSH2 0x6F JUMPI DUP1 PUSH4 0xBBDAA3C9 EQ PUSH2 0x4A0 JUMPI DUP1 PUSH4 0xCE1B815F EQ PUSH2 0x4CB JUMPI DUP1 PUSH4 0xDA742228 EQ PUSH2 0x4F6 JUMPI DUP1 PUSH4 0xDF463A66 EQ PUSH2 0x51F JUMPI DUP1 PUSH4 0xF2FDE38B EQ PUSH2 0x54A JUMPI DUP1 PUSH4 0xF9C002F7 EQ PUSH2 0x573 JUMPI PUSH2 0x181 JUMP JUMPDEST DUP1 PUSH4 0x7BDF2EC7 EQ PUSH2 0x39E JUMPI DUP1 PUSH4 0x8DA5CB5B EQ PUSH2 0x3C9 JUMPI DUP1 PUSH4 0x921276EA EQ PUSH2 0x3F4 JUMPI DUP1 PUSH4 0xAD12E50E EQ PUSH2 0x41F JUMPI DUP1 PUSH4 0xB039A88F EQ PUSH2 0x44A JUMPI DUP1 PUSH4 0xB90B41CF EQ PUSH2 0x475 JUMPI PUSH2 0x181 JUMP JUMPDEST DUP1 PUSH4 0x5C5E3DB1 GT PUSH2 0x108 JUMPI DUP1 PUSH4 0x5C5E3DB1 EQ PUSH2 0x2A4 JUMPI DUP1 PUSH4 0x61843914 EQ PUSH2 0x2CF JUMPI DUP1 PUSH4 0x6D7C3E2B EQ PUSH2 0x30C JUMPI DUP1 PUSH4 0x715018A6 EQ PUSH2 0x335 JUMPI DUP1 PUSH4 0x76FA01C3 EQ PUSH2 0x34C JUMPI DUP1 PUSH4 0x7BB05264 EQ PUSH2 0x375 JUMPI PUSH2 0x181 JUMP JUMPDEST DUP1 PUSH3 0xBE5DD4 EQ PUSH2 0x186 JUMPI DUP1 PUSH4 0x1FFC9A7 EQ PUSH2 0x1C4 JUMPI DUP1 PUSH4 0x2D14C4B7 EQ PUSH2 0x201 JUMPI DUP1 PUSH4 0x41BBB7CA EQ PUSH2 0x22A JUMPI DUP1 PUSH4 0x4F64B2BE EQ PUSH2 0x267 JUMPI PUSH2 0x181 JUMP JUMPDEST CALLDATASIZE PUSH2 0x181 JUMPI PUSH32 0xA8142743F8F70A4C26F3691CF4ED59718381FB2F18070EC52BE1F1022D855557 CALLVALUE PUSH1 0x40 MLOAD PUSH2 0x177 SWAP2 SWAP1 PUSH2 0x2B13 JUMP JUMPDEST PUSH1 0x40 MLOAD DUP1 SWAP2 SUB SWAP1 LOG1 STOP JUMPDEST PUSH1 0x0 DUP1 REVERT JUMPDEST CALLVALUE DUP1 ISZERO PUSH2 0x192 JUMPI PUSH1 0x0 DUP1 REVERT JUMPDEST POP PUSH2 0x1AD PUSH1 0x4 DUP1 CALLDATASIZE SUB DUP2 ADD SWAP1 PUSH2 0x1A8 SWAP2 SWAP1 PUSH2 0x1F57 JUMP JUMPDEST PUSH2 0x59E JUMP JUMPDEST PUSH1 0x40 MLOAD PUSH2 0x1BB SWAP3 SWAP2 SWAP1 PUSH2 0x288E JUMP JUMPDEST PUSH1 0x40 MLOAD DUP1 SWAP2 SUB SWAP1 RETURN JUMPDEST CALLVALUE DUP1 ISZERO PUSH2 0x1D0 JUMPI PUSH1 0x0 DUP1 REVERT JUMPDEST POP PUSH2 0x1EB PUSH1 0x4 DUP1 CALLDATASIZE SUB DUP2 ADD SWAP1 PUSH2 0x1E6 SWAP2 SWAP1 PUSH2 0x1DE3 JUMP JUMPDEST PUSH2 0x5EC JUMP JUMPDEST PUSH1 0x40 MLOAD PUSH2 0x1F8 SWAP2 SWAP1 PUSH2 0x2858 JUMP JUMPDEST PUSH1 0x40 MLOAD DUP1 SWAP2 SUB SWAP1 RETURN JUMPDEST CALLVALUE DUP1 ISZERO PUSH2 0x20D JUMPI PUSH1 0x0 DUP1 REVERT JUMPDEST POP PUSH2 0x228 PUSH1 0x4 DUP1 CALLDATASIZE SUB DUP2 ADD SWAP1 PUSH2 0x223 SWAP2 SWAP1 PUSH2 0x2074 JUMP JUMPDEST PUSH2 0x6CE JUMP JUMPDEST STOP JUMPDEST CALLVALUE DUP1 ISZERO PUSH2 0x236 JUMPI PUSH1 0x0 DUP1 REVERT JUMPDEST POP PUSH2 0x251 PUSH1 0x4 DUP1 CALLDATASIZE SUB DUP2 ADD SWAP1 PUSH2 0x24C SWAP2 SWAP1 PUSH2 0x1F0E JUMP JUMPDEST PUSH2 0x769 JUMP JUMPDEST PUSH1 0x40 MLOAD PUSH2 0x25E SWAP2 SWAP1 PUSH2 0x276F JUMP JUMPDEST PUSH1 0x40 MLOAD DUP1 SWAP2 SUB SWAP1 RETURN JUMPDEST CALLVALUE DUP1 ISZERO PUSH2 0x273 JUMPI PUSH1 0x0 DUP1 REVERT JUMPDEST POP PUSH2 0x28E PUSH1 0x4 DUP1 CALLDATASIZE SUB DUP2 ADD SWAP1 PUSH2 0x289 SWAP2 SWAP1 PUSH2 0x201A JUMP JUMPDEST PUSH2 0x794 JUMP JUMPDEST PUSH1 0x40 MLOAD PUSH2 0x29B SWAP2 SWAP1 PUSH2 0x28BE JUMP JUMPDEST PUSH1 0x40 MLOAD DUP1 SWAP2 SUB SWAP1 RETURN JUMPDEST CALLVALUE DUP1 ISZERO PUSH2 0x2B0 JUMPI PUSH1 0x0 DUP1 REVERT JUMPDEST POP PUSH2 0x2B9 PUSH2 0x7D3 JUMP JUMPDEST PUSH1 0x40 MLOAD PUSH2 0x2C6 SWAP2 SWAP1 PUSH2 0x2B13 JUMP JUMPDEST PUSH1 0x40 MLOAD DUP1 SWAP2 SUB SWAP1 RETURN JUMPDEST CALLVALUE DUP1 ISZERO PUSH2 0x2DB JUMPI PUSH1 0x0 DUP1 REVERT JUMPDEST POP PUSH2 0x2F6 PUSH1 0x4 DUP1 CALLDATASIZE SUB DUP2 ADD SWAP1 PUSH2 0x2F1 SWAP2 SWAP1 PUSH2 0x201A JUMP JUMPDEST PUSH2 0x7D9 JUMP JUMPDEST PUSH1 0x40 MLOAD PUSH2 0x303 SWAP2 SWAP1 PUSH2 0x28D9 JUMP JUMPDEST PUSH1 0x40 MLOAD DUP1 SWAP2 SUB SWAP1 RETURN JUMPDEST CALLVALUE DUP1 ISZERO PUSH2 0x318 JUMPI PUSH1 0x0 DUP1 REVERT JUMPDEST POP PUSH2 0x333 PUSH1 0x4 DUP1 CALLDATASIZE SUB DUP2 ADD SWAP1 PUSH2 0x32E SWAP2 SWAP1 PUSH2 0x201A JUMP JUMPDEST PUSH2 0x818 JUMP JUMPDEST STOP JUMPDEST CALLVALUE DUP1 ISZERO PUSH2 0x341 JUMPI PUSH1 0x0 DUP1 REVERT JUMPDEST POP PUSH2 0x34A PUSH2 0x82A JUMP JUMPDEST STOP JUMPDEST CALLVALUE DUP1 ISZERO PUSH2 0x358 JUMPI PUSH1 0x0 DUP1 REVERT JUMPDEST POP PUSH2 0x373 PUSH1 0x4 DUP1 CALLDATASIZE SUB DUP2 ADD SWAP1 PUSH2 0x36E SWAP2 SWAP1 PUSH2 0x1E10 JUMP JUMPDEST PUSH2 0x83E JUMP JUMPDEST STOP JUMPDEST CALLVALUE DUP1 ISZERO PUSH2 0x381 JUMPI PUSH1 0x0 DUP1 REVERT JUMPDEST POP PUSH2 0x39C PUSH1 0x4 DUP1 CALLDATASIZE SUB DUP2 ADD SWAP1 PUSH2 0x397 SWAP2 SWAP1 PUSH2 0x1EB4 JUMP JUMPDEST PUSH2 0x85A JUMP JUMPDEST STOP JUMPDEST CALLVALUE DUP1 ISZERO PUSH2 0x3AA JUMPI PUSH1 0x0 DUP1 REVERT JUMPDEST POP PUSH2 0x3B3 PUSH2 0x92E JUMP JUMPDEST PUSH1 0x40 MLOAD PUSH2 0x3C0 SWAP2 SWAP1 PUSH2 0x276F JUMP JUMPDEST PUSH1 0x40 MLOAD DUP1 SWAP2 SUB SWAP1 RETURN JUMPDEST CALLVALUE DUP1 ISZERO PUSH2 0x3D5 JUMPI PUSH1 0x0 DUP1 REVERT JUMPDEST POP PUSH2 0x3DE PUSH2 0x958 JUMP JUMPDEST PUSH1 0x40 MLOAD PUSH2 0x3EB SWAP2 SWAP1 PUSH2 0x276F JUMP JUMPDEST PUSH1 0x40 MLOAD DUP1 SWAP2 SUB SWAP1 RETURN JUMPDEST CALLVALUE DUP1 ISZERO PUSH2 0x400 JUMPI PUSH1 0x0 DUP1 REVERT JUMPDEST POP PUSH2 0x409 PUSH2 0x981 JUMP JUMPDEST PUSH1 0x40 MLOAD PUSH2 0x416 SWAP2 SWAP1 PUSH2 0x28F4 JUMP JUMPDEST PUSH1 0x40 MLOAD DUP1 SWAP2 SUB SWAP1 RETURN JUMPDEST CALLVALUE DUP1 ISZERO PUSH2 0x42B JUMPI PUSH1 0x0 DUP1 REVERT JUMPDEST POP PUSH2 0x434 PUSH2 0x9A1 JUMP JUMPDEST PUSH1 0x40 MLOAD PUSH2 0x441 SWAP2 SWAP1 PUSH2 0x2B13 JUMP JUMPDEST PUSH1 0x40 MLOAD DUP1 SWAP2 SUB SWAP1 RETURN JUMPDEST CALLVALUE DUP1 ISZERO PUSH2 0x456 JUMPI PUSH1 0x0 DUP1 REVERT JUMPDEST POP PUSH2 0x45F PUSH2 0x9A7 JUMP JUMPDEST PUSH1 0x40 MLOAD PUSH2 0x46C SWAP2 SWAP1 PUSH2 0x2AD6 JUMP JUMPDEST PUSH1 0x40 MLOAD DUP1 SWAP2 SUB SWAP1 RETURN JUMPDEST CALLVALUE DUP1 ISZERO PUSH2 0x481 JUMPI PUSH1 0x0 DUP1 REVERT JUMPDEST POP PUSH2 0x48A PUSH2 0x9ED JUMP JUMPDEST PUSH1 0x40 MLOAD PUSH2 0x497 SWAP2 SWAP1 PUSH2 0x2B13 JUMP JUMPDEST PUSH1 0x40 MLOAD DUP1 SWAP2 SUB SWAP1 RETURN JUMPDEST CALLVALUE DUP1 ISZERO PUSH2 0x4AC JUMPI PUSH1 0x0 DUP1 REVERT JUMPDEST POP PUSH2 0x4B5 PUSH2 0x9F3 JUMP JUMPDEST PUSH1 0x40 MLOAD PUSH2 0x4C2 SWAP2 SWAP1 PUSH2 0x2B13 JUMP JUMPDEST PUSH1 0x40 MLOAD DUP1 SWAP2 SUB SWAP1 RETURN JUMPDEST CALLVALUE DUP1 ISZERO PUSH2 0x4D7 JUMPI PUSH1 0x0 DUP1 REVERT JUMPDEST POP PUSH2 0x4E0 PUSH2 0x9FA JUMP JUMPDEST PUSH1 0x40 MLOAD PUSH2 0x4ED SWAP2 SWAP1 PUSH2 0x276F JUMP JUMPDEST PUSH1 0x40 MLOAD DUP1 SWAP2 SUB SWAP1 RETURN JUMPDEST CALLVALUE DUP1 ISZERO PUSH2 0x502 JUMPI PUSH1 0x0 DUP1 REVERT JUMPDEST POP PUSH2 0x51D PUSH1 0x4 DUP1 CALLDATASIZE SUB DUP2 ADD SWAP1 PUSH2 0x518 SWAP2 SWAP1 PUSH2 0x1CF5 JUMP JUMPDEST PUSH2 0xA24 JUMP JUMPDEST STOP JUMPDEST CALLVALUE DUP1 ISZERO PUSH2 0x52B JUMPI PUSH1 0x0 DUP1 REVERT JUMPDEST POP PUSH2 0x534 PUSH2 0xAF8 JUMP JUMPDEST PUSH1 0x40 MLOAD PUSH2 0x541 SWAP2 SWAP1 PUSH2 0x2B13 JUMP JUMPDEST PUSH1 0x40 MLOAD DUP1 SWAP2 SUB SWAP1 RETURN JUMPDEST CALLVALUE DUP1 ISZERO PUSH2 0x556 JUMPI PUSH1 0x0 DUP1 REVERT JUMPDEST POP PUSH2 0x571 PUSH1 0x4 DUP1 CALLDATASIZE SUB DUP2 ADD SWAP1 PUSH2 0x56C SWAP2 SWAP1 PUSH2 0x1CF5 JUMP JUMPDEST PUSH2 0xB0C JUMP JUMPDEST STOP JUMPDEST CALLVALUE DUP1 ISZERO PUSH2 0x57F JUMPI PUSH1 0x0 DUP1 REVERT JUMPDEST POP PUSH2 0x588 PUSH2 0xB90 JUMP JUMPDEST PUSH1 0x40 MLOAD PUSH2 0x595 SWAP2 SWAP1 PUSH2 0x2B13 JUMP JUMPDEST PUSH1 0x40 MLOAD DUP1 SWAP2 SUB SWAP1 RETURN JUMPDEST PUSH1 0x60 PUSH1 0x0 PUSH2 0x5AA PUSH2 0xB97 JUMP JUMPDEST PUSH2 0x5B3 DUP9 PUSH2 0xC0E JUMP JUMPDEST PUSH2 0x5BC DUP9 PUSH2 0xCB0 JUMP JUMPDEST PUSH2 0x5C5 DUP9 PUSH2 0xD09 JUMP JUMPDEST PUSH2 0x5CF DUP6 DUP6 PUSH2 0xD6F JUMP JUMPDEST PUSH2 0x5DD DUP9 DUP9 DUP9 DUP9 DUP9 DUP9 PUSH2 0xDB9 JUMP JUMPDEST SWAP2 POP SWAP2 POP SWAP7 POP SWAP7 SWAP5 POP POP POP POP POP JUMP JUMPDEST PUSH1 0x0 PUSH32 0xE1AB2DEA00000000000000000000000000000000000000000000000000000000 PUSH28 0xFFFFFFFFFFFFFFFFFFFFFFFFFFFFFFFFFFFFFFFFFFFFFFFFFFFFFFFF NOT AND DUP3 PUSH28 0xFFFFFFFFFFFFFFFFFFFFFFFFFFFFFFFFFFFFFFFFFFFFFFFFFFFFFFFF NOT AND EQ DUP1 PUSH2 0x6B7 JUMPI POP PUSH32 0xE08307600000000000000000000000000000000000000000000000000000000 PUSH28 0xFFFFFFFFFFFFFFFFFFFFFFFFFFFFFFFFFFFFFFFFFFFFFFFFFFFFFFFF NOT AND DUP3 PUSH28 0xFFFFFFFFFFFFFFFFFFFFFFFFFFFFFFFFFFFFFFFFFFFFFFFFFFFFFFFF NOT AND EQ JUMPDEST DUP1 PUSH2 0x6C7 JUMPI POP PUSH2 0x6C6 DUP3 PUSH2 0xF0B JUMP JUMPDEST JUMPDEST SWAP1 POP SWAP2 SWAP1 POP JUMP JUMPDEST PUSH2 0x6D6 PUSH2 0xF75 JUMP JUMPDEST PUSH1 0x1 PUSH1 0x0 SWAP1 SLOAD SWAP1 PUSH2 0x100 EXP SWAP1 DIV PUSH20 0xFFFFFFFFFFFFFFFFFFFFFFFFFFFFFFFFFFFFFFFF AND PUSH20 0xFFFFFFFFFFFFFFFFFFFFFFFFFFFFFFFFFFFFFFFF AND PUSH4 0xF3FEF3A3 DUP3 DUP5 PUSH1 0x40 MLOAD DUP4 PUSH4 0xFFFFFFFF AND PUSH1 0xE0 SHL DUP2 MSTORE PUSH1 0x4 ADD PUSH2 0x733 SWAP3 SWAP2 SWAP1 PUSH2 0x278A JUMP JUMPDEST PUSH1 0x0 PUSH1 0x40 MLOAD DUP1 DUP4 SUB DUP2 PUSH1 0x0 DUP8 DUP1 EXTCODESIZE ISZERO DUP1 ISZERO PUSH2 0x74D JUMPI PUSH1 0x0 DUP1 REVERT JUMPDEST POP GAS CALL ISZERO DUP1 ISZERO PUSH2 0x761 JUMPI RETURNDATASIZE PUSH1 0x0 DUP1 RETURNDATACOPY RETURNDATASIZE PUSH1 0x0 REVERT JUMPDEST POP POP POP POP POP POP JUMP JUMPDEST PUSH1 0x0 DUP2 DUP1 PUSH1 0x0 ADD SWAP1 PUSH2 0x77B SWAP2 SWAP1 PUSH2 0x2C3D JUMP JUMPDEST PUSH1 0x20 ADD PUSH1 0x20 DUP2 ADD SWAP1 PUSH2 0x78D SWAP2 SWAP1 PUSH2 0x1CF5 JUMP JUMPDEST SWAP1 POP SWAP2 SWAP1 POP JUMP JUMPDEST PUSH1 0x4 DUP2 DUP2 SLOAD DUP2 LT PUSH2 0x7A4 JUMPI PUSH1 0x0 DUP1 REVERT JUMPDEST SWAP1 PUSH1 0x0 MSTORE PUSH1 0x20 PUSH1 0x0 KECCAK256 ADD PUSH1 0x0 SWAP2 POP SLOAD SWAP1 PUSH2 0x100 EXP SWAP1 DIV PUSH20 0xFFFFFFFFFFFFFFFFFFFFFFFFFFFFFFFFFFFFFFFF AND DUP2 JUMP JUMPDEST PUSH2 0x2904 DUP2 JUMP JUMPDEST PUSH1 0x3 DUP2 DUP2 SLOAD DUP2 LT PUSH2 0x7E9 JUMPI PUSH1 0x0 DUP1 REVERT JUMPDEST SWAP1 PUSH1 0x0 MSTORE PUSH1 0x20 PUSH1 0x0 KECCAK256 ADD PUSH1 0x0 SWAP2 POP SLOAD SWAP1 PUSH2 0x100 EXP SWAP1 DIV PUSH20 0xFFFFFFFFFFFFFFFFFFFFFFFFFFFFFFFFFFFFFFFF AND DUP2 JUMP JUMPDEST PUSH2 0x820 PUSH2 0xF75 JUMP JUMPDEST DUP1 PUSH1 0x6 DUP2 SWAP1 SSTORE POP POP JUMP JUMPDEST PUSH2 0x832 PUSH2 0xF75 JUMP JUMPDEST PUSH2 0x83C PUSH1 0x0 PUSH2 0xFF3 JUMP JUMPDEST JUMP JUMPDEST PUSH2 0x846 PUSH2 0xB97 JUMP JUMPDEST PUSH2 0x853 DUP6 DUP6 DUP6 DUP6 DUP6 PUSH2 0x10B7 JUMP JUMPDEST POP POP POP POP POP JUMP JUMPDEST PUSH2 0x862 PUSH2 0xF75 JUMP JUMPDEST PUSH2 0x8AB PUSH32 0xE9FB30F700000000000000000000000000000000000000000000000000000000 DUP3 PUSH20 0xFFFFFFFFFFFFFFFFFFFFFFFFFFFFFFFFFFFFFFFF AND PUSH2 0x10EF SWAP1 SWAP2 SWAP1 PUSH4 0xFFFFFFFF AND JUMP JUMPDEST PUSH2 0x8EA JUMPI PUSH1 0x40 MLOAD PUSH32 0x8C379A000000000000000000000000000000000000000000000000000000000 DUP2 MSTORE PUSH1 0x4 ADD PUSH2 0x8E1 SWAP1 PUSH2 0x2A56 JUMP JUMPDEST PUSH1 0x40 MLOAD DUP1 SWAP2 SUB SWAP1 REVERT JUMPDEST DUP1 PUSH1 0x1 PUSH1 0x0 PUSH2 0x100 EXP DUP2 SLOAD DUP2 PUSH20 0xFFFFFFFFFFFFFFFFFFFFFFFFFFFFFFFFFFFFFFFF MUL NOT AND SWAP1 DUP4 PUSH20 0xFFFFFFFFFFFFFFFFFFFFFFFFFFFFFFFFFFFFFFFF AND MUL OR SWAP1 SSTORE POP POP JUMP JUMPDEST PUSH1 0x0 PUSH1 0x1 PUSH1 0x0 SWAP1 SLOAD SWAP1 PUSH2 0x100 EXP SWAP1 DIV PUSH20 0xFFFFFFFFFFFFFFFFFFFFFFFFFFFFFFFFFFFFFFFF AND SWAP1 POP SWAP1 JUMP JUMPDEST PUSH1 0x0 DUP1 PUSH1 0x0 SWAP1 SLOAD SWAP1 PUSH2 0x100 EXP SWAP1 DIV PUSH20 0xFFFFFFFFFFFFFFFFFFFFFFFFFFFFFFFFFFFFFFFF AND SWAP1 POP SWAP1 JUMP JUMPDEST PUSH1 0x60 PUSH1 0x40 MLOAD DUP1 PUSH1 0x60 ADD PUSH1 0x40 MSTORE DUP1 PUSH1 0x25 DUP2 MSTORE PUSH1 0x20 ADD PUSH2 0x3353 PUSH1 0x25 SWAP2 CODECOPY SWAP1 POP SWAP1 JUMP JUMPDEST PUSH1 0x6 SLOAD DUP2 JUMP JUMPDEST PUSH2 0x9AF PUSH2 0x1B3C JUMP JUMPDEST PUSH1 0x40 MLOAD DUP1 PUSH1 0x80 ADD PUSH1 0x40 MSTORE DUP1 PUSH2 0xC350 PUSH3 0x186A0 PUSH2 0x9CB SWAP2 SWAP1 PUSH2 0x2DC4 JUMP JUMPDEST DUP2 MSTORE PUSH1 0x20 ADD PUSH3 0x186A0 DUP2 MSTORE PUSH1 0x20 ADD PUSH3 0x1ADB0 DUP2 MSTORE PUSH1 0x20 ADD PUSH2 0x2904 DUP2 MSTORE POP SWAP1 POP SWAP1 JUMP JUMPDEST PUSH2 0xC350 DUP2 JUMP JUMPDEST PUSH3 0x1ADB0 DUP2 JUMP JUMPDEST PUSH1 0x0 PUSH1 0x2 PUSH1 0x0 SWAP1 SLOAD SWAP1 PUSH2 0x100 EXP SWAP1 DIV PUSH20 0xFFFFFFFFFFFFFFFFFFFFFFFFFFFFFFFFFFFFFFFF AND SWAP1 POP SWAP1 JUMP JUMPDEST PUSH2 0xA2C PUSH2 0xF75 JUMP JUMPDEST PUSH2 0xA75 PUSH32 0x25E23E6400000000000000000000000000000000000000000000000000000000 DUP3 PUSH20 0xFFFFFFFFFFFFFFFFFFFFFFFFFFFFFFFFFFFFFFFF AND PUSH2 0x10EF SWAP1 SWAP2 SWAP1 PUSH4 0xFFFFFFFF AND JUMP JUMPDEST PUSH2 0xAB4 JUMPI PUSH1 0x40 MLOAD PUSH32 0x8C379A000000000000000000000000000000000000000000000000000000000 DUP2 MSTORE PUSH1 0x4 ADD PUSH2 0xAAB SWAP1 PUSH2 0x29D6 JUMP JUMPDEST PUSH1 0x40 MLOAD DUP1 SWAP2 SUB SWAP1 REVERT JUMPDEST DUP1 PUSH1 0x2 PUSH1 0x0 PUSH2 0x100 EXP DUP2 SLOAD DUP2 PUSH20 0xFFFFFFFFFFFFFFFFFFFFFFFFFFFFFFFFFFFFFFFF MUL NOT AND SWAP1 DUP4 PUSH20 0xFFFFFFFFFFFFFFFFFFFFFFFFFFFFFFFFFFFFFFFF AND MUL OR SWAP1 SSTORE POP POP JUMP JUMPDEST PUSH2 0xC350 PUSH3 0x186A0 PUSH2 0xB09 SWAP2 SWAP1 PUSH2 0x2DC4 JUMP JUMPDEST DUP2 JUMP JUMPDEST PUSH2 0xB14 PUSH2 0xF75 JUMP JUMPDEST PUSH1 0x0 PUSH20 0xFFFFFFFFFFFFFFFFFFFFFFFFFFFFFFFFFFFFFFFF AND DUP2 PUSH20 0xFFFFFFFFFFFFFFFFFFFFFFFFFFFFFFFFFFFFFFFF AND EQ ISZERO PUSH2 0xB84 JUMPI PUSH1 0x40 MLOAD PUSH32 0x8C379A000000000000000000000000000000000000000000000000000000000 DUP2 MSTORE PUSH1 0x4 ADD PUSH2 0xB7B SWAP1 PUSH2 0x2956 JUMP JUMPDEST PUSH1 0x40 MLOAD DUP1 SWAP2 SUB SWAP1 REVERT JUMPDEST PUSH2 0xB8D DUP2 PUSH2 0xFF3 JUMP JUMPDEST POP JUMP JUMPDEST PUSH3 0x186A0 DUP2 JUMP JUMPDEST PUSH2 0xB9F PUSH2 0x92E JUMP JUMPDEST PUSH20 0xFFFFFFFFFFFFFFFFFFFFFFFFFFFFFFFFFFFFFFFF AND CALLER PUSH20 0xFFFFFFFFFFFFFFFFFFFFFFFFFFFFFFFFFFFFFFFF AND EQ PUSH2 0xC0C JUMPI PUSH1 0x40 MLOAD PUSH32 0x8C379A000000000000000000000000000000000000000000000000000000000 DUP2 MSTORE PUSH1 0x4 ADD PUSH2 0xC03 SWAP1 PUSH2 0x2A76 JUMP JUMPDEST PUSH1 0x40 MLOAD DUP1 SWAP2 SUB SWAP1 REVERT JUMPDEST JUMP JUMPDEST DUP1 DUP1 PUSH1 0x20 ADD SWAP1 PUSH2 0xC1E SWAP2 SWAP1 PUSH2 0x2C65 JUMP JUMPDEST PUSH1 0xA0 ADD PUSH1 0x20 DUP2 ADD SWAP1 PUSH2 0xC30 SWAP2 SWAP1 PUSH2 0x1CF5 JUMP JUMPDEST PUSH20 0xFFFFFFFFFFFFFFFFFFFFFFFFFFFFFFFFFFFFFFFF AND PUSH2 0xC4E PUSH2 0x9FA JUMP JUMPDEST PUSH20 0xFFFFFFFFFFFFFFFFFFFFFFFFFFFFFFFFFFFFFFFF AND EQ PUSH2 0xCA4 JUMPI PUSH1 0x40 MLOAD PUSH32 0x8C379A000000000000000000000000000000000000000000000000000000000 DUP2 MSTORE PUSH1 0x4 ADD PUSH2 0xC9B SWAP1 PUSH2 0x29B6 JUMP JUMPDEST PUSH1 0x40 MLOAD DUP1 SWAP2 SUB SWAP1 REVERT JUMPDEST PUSH2 0xCAD DUP2 PUSH2 0x1114 JUMP JUMPDEST POP JUMP JUMPDEST PUSH1 0x0 DUP2 DUP1 PUSH1 0x0 ADD SWAP1 PUSH2 0xCC2 SWAP2 SWAP1 PUSH2 0x2C3D JUMP JUMPDEST PUSH1 0x40 ADD CALLDATALOAD EQ PUSH2 0xD06 JUMPI PUSH1 0x40 MLOAD PUSH32 0x8C379A000000000000000000000000000000000000000000000000000000000 DUP2 MSTORE PUSH1 0x4 ADD PUSH2 0xCFD SWAP1 PUSH2 0x2A96 JUMP JUMPDEST PUSH1 0x40 MLOAD DUP1 SWAP2 SUB SWAP1 REVERT JUMPDEST POP JUMP JUMPDEST PUSH1 0x20 DUP2 DUP1 PUSH1 0x20 ADD SWAP1 PUSH2 0xD1B SWAP2 SWAP1 PUSH2 0x2C65 JUMP JUMPDEST DUP1 PUSH1 0xC0 ADD SWAP1 PUSH2 0xD2A SWAP2 SWAP1 PUSH2 0x2BDA JUMP JUMPDEST SWAP1 POP EQ PUSH2 0xD6C JUMPI PUSH1 0x40 MLOAD PUSH32 0x8C379A000000000000000000000000000000000000000000000000000000000 DUP2 MSTORE PUSH1 0x4 ADD PUSH2 0xD63 SWAP1 PUSH2 0x2916 JUMP JUMPDEST PUSH1 0x40 MLOAD DUP1 SWAP2 SUB SWAP1 REVERT JUMPDEST POP JUMP JUMPDEST PUSH1 0x0 DUP3 DUP3 SWAP1 POP EQ PUSH2 0xDB5 JUMPI PUSH1 0x40 MLOAD PUSH32 0x8C379A000000000000000000000000000000000000000000000000000000000 DUP2 MSTORE PUSH1 0x4 ADD PUSH2 0xDAC SWAP1 PUSH2 0x2AB6 JUMP JUMPDEST PUSH1 0x40 MLOAD DUP1 SWAP2 SUB SWAP1 REVERT JUMPDEST POP POP JUMP JUMPDEST PUSH1 0x60 PUSH1 0x0 DUP1 DUP1 PUSH2 0xE29 DUP11 DUP1 PUSH1 0x20 ADD SWAP1 PUSH2 0xDD2 SWAP2 SWAP1 PUSH2 0x2C65 JUMP JUMPDEST DUP1 PUSH1 0xC0 ADD SWAP1 PUSH2 0xDE1 SWAP2 SWAP1 PUSH2 0x2BDA JUMP JUMPDEST DUP1 DUP1 PUSH1 0x1F ADD PUSH1 0x20 DUP1 SWAP2 DIV MUL PUSH1 0x20 ADD PUSH1 0x40 MLOAD SWAP1 DUP2 ADD PUSH1 0x40 MSTORE DUP1 SWAP4 SWAP3 SWAP2 SWAP1 DUP2 DUP2 MSTORE PUSH1 0x20 ADD DUP4 DUP4 DUP1 DUP3 DUP5 CALLDATACOPY PUSH1 0x0 DUP2 DUP5 ADD MSTORE PUSH1 0x1F NOT PUSH1 0x1F DUP3 ADD AND SWAP1 POP DUP1 DUP4 ADD SWAP3 POP POP POP POP POP POP POP PUSH2 0x1314 JUMP JUMPDEST SWAP2 POP SWAP2 POP PUSH1 0x0 DUP1 PUSH2 0xE3C DUP5 DUP5 DUP15 DUP11 PUSH2 0x143E JUMP JUMPDEST SWAP2 POP SWAP2 POP DUP4 PUSH20 0xFFFFFFFFFFFFFFFFFFFFFFFFFFFFFFFFFFFFFFFF AND PUSH4 0x23B872DD DUP4 ADDRESS DUP5 PUSH1 0x40 MLOAD DUP5 PUSH4 0xFFFFFFFF AND PUSH1 0xE0 SHL DUP2 MSTORE PUSH1 0x4 ADD PUSH2 0xE7D SWAP4 SWAP3 SWAP2 SWAP1 PUSH2 0x27B3 JUMP JUMPDEST PUSH1 0x20 PUSH1 0x40 MLOAD DUP1 DUP4 SUB DUP2 PUSH1 0x0 DUP8 DUP1 EXTCODESIZE ISZERO DUP1 ISZERO PUSH2 0xE97 JUMPI PUSH1 0x0 DUP1 REVERT JUMPDEST POP GAS CALL ISZERO DUP1 ISZERO PUSH2 0xEAB JUMPI RETURNDATASIZE PUSH1 0x0 DUP1 RETURNDATACOPY RETURNDATASIZE PUSH1 0x0 REVERT JUMPDEST POP POP POP POP PUSH1 0x40 MLOAD RETURNDATASIZE PUSH1 0x1F NOT PUSH1 0x1F DUP3 ADD AND DUP3 ADD DUP1 PUSH1 0x40 MSTORE POP DUP2 ADD SWAP1 PUSH2 0xECF SWAP2 SWAP1 PUSH2 0x1DB6 JUMP JUMPDEST POP DUP2 DUP2 DUP6 DUP6 PUSH1 0x40 MLOAD PUSH1 0x20 ADD PUSH2 0xEE7 SWAP5 SWAP4 SWAP3 SWAP2 SWAP1 PUSH2 0x2813 JUMP JUMPDEST PUSH1 0x40 MLOAD PUSH1 0x20 DUP2 DUP4 SUB SUB DUP2 MSTORE SWAP1 PUSH1 0x40 MSTORE PUSH1 0x0 SWAP6 POP SWAP6 POP POP POP POP POP SWAP7 POP SWAP7 SWAP5 POP POP POP POP POP JUMP JUMPDEST PUSH1 0x0 PUSH32 0x1FFC9A700000000000000000000000000000000000000000000000000000000 PUSH28 0xFFFFFFFFFFFFFFFFFFFFFFFFFFFFFFFFFFFFFFFFFFFFFFFFFFFFFFFF NOT AND DUP3 PUSH28 0xFFFFFFFFFFFFFFFFFFFFFFFFFFFFFFFFFFFFFFFFFFFFFFFFFFFFFFFF NOT AND EQ SWAP1 POP SWAP2 SWAP1 POP JUMP JUMPDEST PUSH2 0xF7D PUSH2 0x1642 JUMP JUMPDEST PUSH20 0xFFFFFFFFFFFFFFFFFFFFFFFFFFFFFFFFFFFFFFFF AND PUSH2 0xF9B PUSH2 0x958 JUMP JUMPDEST PUSH20 0xFFFFFFFFFFFFFFFFFFFFFFFFFFFFFFFFFFFFFFFF AND EQ PUSH2 0xFF1 JUMPI PUSH1 0x40 MLOAD PUSH32 0x8C379A000000000000000000000000000000000000000000000000000000000 DUP2 MSTORE PUSH1 0x4 ADD PUSH2 0xFE8 SWAP1 PUSH2 0x2A36 JUMP JUMPDEST PUSH1 0x40 MLOAD DUP1 SWAP2 SUB SWAP1 REVERT JUMPDEST JUMP JUMPDEST PUSH1 0x0 DUP1 PUSH1 0x0 SWAP1 SLOAD SWAP1 PUSH2 0x100 EXP SWAP1 DIV PUSH20 0xFFFFFFFFFFFFFFFFFFFFFFFFFFFFFFFFFFFFFFFF AND SWAP1 POP DUP2 PUSH1 0x0 DUP1 PUSH2 0x100 EXP DUP2 SLOAD DUP2 PUSH20 0xFFFFFFFFFFFFFFFFFFFFFFFFFFFFFFFFFFFFFFFF MUL NOT AND SWAP1 DUP4 PUSH20 0xFFFFFFFFFFFFFFFFFFFFFFFFFFFFFFFFFFFFFFFF AND MUL OR SWAP1 SSTORE POP DUP2 PUSH20 0xFFFFFFFFFFFFFFFFFFFFFFFFFFFFFFFFFFFFFFFF AND DUP2 PUSH20 0xFFFFFFFFFFFFFFFFFFFFFFFFFFFFFFFFFFFFFFFF AND PUSH32 0x8BE0079C531659141344CD1FD0A4F28419497F9722A3DAAFE3B4186F6B6457E0 PUSH1 0x40 MLOAD PUSH1 0x40 MLOAD DUP1 SWAP2 SUB SWAP1 LOG3 POP POP JUMP JUMPDEST PUSH1 0x0 DUP1 PUSH1 0x0 DUP1 DUP9 DUP9 DUP2 ADD SWAP1 PUSH2 0x10CC SWAP2 SWAP1 PUSH2 0x1D4F JUMP JUMPDEST SWAP4 POP SWAP4 POP SWAP4 POP SWAP4 POP PUSH2 0x10E4 DUP5 DUP5 PUSH1 0x0 DUP10 DUP10 DUP8 DUP8 PUSH2 0x164A JUMP JUMPDEST POP POP POP POP POP POP POP POP POP JUMP JUMPDEST PUSH1 0x0 PUSH2 0x10FA DUP4 PUSH2 0x1810 JUMP JUMPDEST DUP1 ISZERO PUSH2 0x110C JUMPI POP PUSH2 0x110B DUP4 DUP4 PUSH2 0x185D JUMP JUMPDEST JUMPDEST SWAP1 POP SWAP3 SWAP2 POP POP JUMP JUMPDEST PUSH1 0x0 DUP1 DUP3 DUP1 PUSH1 0x0 ADD SWAP1 PUSH2 0x1127 SWAP2 SWAP1 PUSH2 0x2C3D JUMP JUMPDEST PUSH1 0x20 ADD PUSH1 0x20 DUP2 ADD SWAP1 PUSH2 0x1139 SWAP2 SWAP1 PUSH2 0x1CF5 JUMP JUMPDEST PUSH20 0xFFFFFFFFFFFFFFFFFFFFFFFFFFFFFFFFFFFFFFFF AND PUSH4 0x572B6C05 PUSH1 0xE0 SHL DUP5 DUP1 PUSH1 0x20 ADD SWAP1 PUSH2 0x1167 SWAP2 SWAP1 PUSH2 0x2C65 JUMP JUMPDEST PUSH1 0xA0 ADD PUSH1 0x20 DUP2 ADD SWAP1 PUSH2 0x1179 SWAP2 SWAP1 PUSH2 0x1CF5 JUMP JUMPDEST PUSH1 0x40 MLOAD PUSH1 0x24 ADD PUSH2 0x1189 SWAP2 SWAP1 PUSH2 0x276F JUMP JUMPDEST PUSH1 0x40 MLOAD PUSH1 0x20 DUP2 DUP4 SUB SUB DUP2 MSTORE SWAP1 PUSH1 0x40 MSTORE SWAP1 PUSH28 0xFFFFFFFFFFFFFFFFFFFFFFFFFFFFFFFFFFFFFFFFFFFFFFFFFFFFFFFF NOT AND PUSH1 0x20 DUP3 ADD DUP1 MLOAD PUSH28 0xFFFFFFFFFFFFFFFFFFFFFFFFFFFFFFFFFFFFFFFFFFFFFFFFFFFFFFFF DUP4 DUP2 DUP4 AND OR DUP4 MSTORE POP POP POP POP PUSH1 0x40 MLOAD PUSH2 0x11F3 SWAP2 SWAP1 PUSH2 0x2758 JUMP JUMPDEST PUSH1 0x0 PUSH1 0x40 MLOAD DUP1 DUP4 SUB DUP2 DUP6 GAS STATICCALL SWAP2 POP POP RETURNDATASIZE DUP1 PUSH1 0x0 DUP2 EQ PUSH2 0x122E JUMPI PUSH1 0x40 MLOAD SWAP2 POP PUSH1 0x1F NOT PUSH1 0x3F RETURNDATASIZE ADD AND DUP3 ADD PUSH1 0x40 MSTORE RETURNDATASIZE DUP3 MSTORE RETURNDATASIZE PUSH1 0x0 PUSH1 0x20 DUP5 ADD RETURNDATACOPY PUSH2 0x1233 JUMP JUMPDEST PUSH1 0x60 SWAP2 POP JUMPDEST POP SWAP2 POP SWAP2 POP DUP2 PUSH2 0x1278 JUMPI PUSH1 0x40 MLOAD PUSH32 0x8C379A000000000000000000000000000000000000000000000000000000000 DUP2 MSTORE PUSH1 0x4 ADD PUSH2 0x126F SWAP1 PUSH2 0x2976 JUMP JUMPDEST PUSH1 0x40 MLOAD DUP1 SWAP2 SUB SWAP1 REVERT JUMPDEST PUSH1 0x20 DUP2 MLOAD EQ PUSH2 0x12BC JUMPI PUSH1 0x40 MLOAD PUSH32 0x8C379A000000000000000000000000000000000000000000000000000000000 DUP2 MSTORE PUSH1 0x4 ADD PUSH2 0x12B3 SWAP1 PUSH2 0x2A16 JUMP JUMPDEST PUSH1 0x40 MLOAD DUP1 SWAP2 SUB SWAP1 REVERT JUMPDEST DUP1 DUP1 PUSH1 0x20 ADD SWAP1 MLOAD DUP2 ADD SWAP1 PUSH2 0x12D0 SWAP2 SWAP1 PUSH2 0x1DB6 JUMP JUMPDEST PUSH2 0x130F JUMPI PUSH1 0x40 MLOAD PUSH32 0x8C379A000000000000000000000000000000000000000000000000000000000 DUP2 MSTORE PUSH1 0x4 ADD PUSH2 0x1306 SWAP1 PUSH2 0x2936 JUMP JUMPDEST PUSH1 0x40 MLOAD DUP1 SWAP2 SUB SWAP1 REVERT JUMPDEST POP POP POP JUMP JUMPDEST PUSH1 0x0 DUP1 DUP3 DUP1 PUSH1 0x20 ADD SWAP1 MLOAD DUP2 ADD SWAP1 PUSH2 0x132B SWAP2 SWAP1 PUSH2 0x1EE1 JUMP JUMPDEST SWAP1 POP PUSH1 0x5 PUSH1 0x0 DUP3 PUSH20 0xFFFFFFFFFFFFFFFFFFFFFFFFFFFFFFFFFFFFFFFF AND PUSH20 0xFFFFFFFFFFFFFFFFFFFFFFFFFFFFFFFFFFFFFFFF AND DUP2 MSTORE PUSH1 0x20 ADD SWAP1 DUP2 MSTORE PUSH1 0x20 ADD PUSH1 0x0 KECCAK256 PUSH1 0x0 SWAP1 SLOAD SWAP1 PUSH2 0x100 EXP SWAP1 DIV PUSH1 0xFF AND PUSH2 0x13B9 JUMPI PUSH1 0x40 MLOAD PUSH32 0x8C379A000000000000000000000000000000000000000000000000000000000 DUP2 MSTORE PUSH1 0x4 ADD PUSH2 0x13B0 SWAP1 PUSH2 0x29F6 JUMP JUMPDEST PUSH1 0x40 MLOAD DUP1 SWAP2 SUB SWAP1 REVERT JUMPDEST DUP1 PUSH20 0xFFFFFFFFFFFFFFFFFFFFFFFFFFFFFFFFFFFFFFFF AND PUSH4 0x9D76EA58 PUSH1 0x40 MLOAD DUP2 PUSH4 0xFFFFFFFF AND PUSH1 0xE0 SHL DUP2 MSTORE PUSH1 0x4 ADD PUSH1 0x20 PUSH1 0x40 MLOAD DUP1 DUP4 SUB DUP2 DUP7 DUP1 EXTCODESIZE ISZERO DUP1 ISZERO PUSH2 0x13FF JUMPI PUSH1 0x0 DUP1 REVERT JUMPDEST POP GAS STATICCALL ISZERO DUP1 ISZERO PUSH2 0x1413 JUMPI RETURNDATASIZE PUSH1 0x0 DUP1 RETURNDATACOPY RETURNDATASIZE PUSH1 0x0 REVERT JUMPDEST POP POP POP POP PUSH1 0x40 MLOAD RETURNDATASIZE PUSH1 0x1F NOT PUSH1 0x1F DUP3 ADD AND DUP3 ADD DUP1 PUSH1 0x40 MSTORE POP DUP2 ADD SWAP1 PUSH2 0x1437 SWAP2 SWAP1 PUSH2 0x1D22 JUMP JUMPDEST SWAP2 POP SWAP2 POP SWAP2 JUMP JUMPDEST PUSH1 0x0 DUP1 ADDRESS PUSH20 0xFFFFFFFFFFFFFFFFFFFFFFFFFFFFFFFFFFFFFFFF AND PUSH4 0x41BBB7CA DUP6 PUSH1 0x40 MLOAD DUP3 PUSH4 0xFFFFFFFF AND PUSH1 0xE0 SHL DUP2 MSTORE PUSH1 0x4 ADD PUSH2 0x147A SWAP2 SWAP1 PUSH2 0x2AF1 JUMP JUMPDEST PUSH1 0x20 PUSH1 0x40 MLOAD DUP1 DUP4 SUB DUP2 DUP7 DUP1 EXTCODESIZE ISZERO DUP1 ISZERO PUSH2 0x1492 JUMPI PUSH1 0x0 DUP1 REVERT JUMPDEST POP GAS STATICCALL ISZERO DUP1 ISZERO PUSH2 0x14A6 JUMPI RETURNDATASIZE PUSH1 0x0 DUP1 RETURNDATACOPY RETURNDATASIZE PUSH1 0x0 REVERT JUMPDEST POP POP POP POP PUSH1 0x40 MLOAD RETURNDATASIZE PUSH1 0x1F NOT PUSH1 0x1F DUP3 ADD AND DUP3 ADD DUP1 PUSH1 0x40 MSTORE POP DUP2 ADD SWAP1 PUSH2 0x14CA SWAP2 SWAP1 PUSH2 0x1D22 JUMP JUMPDEST SWAP2 POP PUSH1 0x0 PUSH1 0x1 PUSH1 0x0 SWAP1 SLOAD SWAP1 PUSH2 0x100 EXP SWAP1 DIV PUSH20 0xFFFFFFFFFFFFFFFFFFFFFFFFFFFFFFFFFFFFFFFF AND PUSH20 0xFFFFFFFFFFFFFFFFFFFFFFFFFFFFFFFFFFFFFFFF AND PUSH4 0x8E53548B DUP6 DUP8 DUP1 PUSH1 0x20 ADD SWAP1 PUSH2 0x151D SWAP2 SWAP1 PUSH2 0x2C65 JUMP JUMPDEST PUSH1 0x40 MLOAD DUP4 PUSH4 0xFFFFFFFF AND PUSH1 0xE0 SHL DUP2 MSTORE PUSH1 0x4 ADD PUSH2 0x153A SWAP3 SWAP2 SWAP1 PUSH2 0x2B2E JUMP JUMPDEST PUSH1 0x20 PUSH1 0x40 MLOAD DUP1 DUP4 SUB DUP2 DUP7 DUP1 EXTCODESIZE ISZERO DUP1 ISZERO PUSH2 0x1552 JUMPI PUSH1 0x0 DUP1 REVERT JUMPDEST POP GAS STATICCALL ISZERO DUP1 ISZERO PUSH2 0x1566 JUMPI RETURNDATASIZE PUSH1 0x0 DUP1 RETURNDATACOPY RETURNDATASIZE PUSH1 0x0 REVERT JUMPDEST POP POP POP POP PUSH1 0x40 MLOAD RETURNDATASIZE PUSH1 0x1F NOT PUSH1 0x1F DUP3 ADD AND DUP3 ADD DUP1 PUSH1 0x40 MSTORE POP DUP2 ADD SWAP1 PUSH2 0x158A SWAP2 SWAP1 PUSH2 0x2047 JUMP JUMPDEST SWAP1 POP DUP5 DUP1 PUSH1 0x0 ADD SWAP1 PUSH2 0x159C SWAP2 SWAP1 PUSH2 0x2C3D JUMP JUMPDEST PUSH1 0x40 ADD CALLDATALOAD DUP2 PUSH2 0x15AB SWAP2 SWAP1 PUSH2 0x2DC4 JUMP JUMPDEST SWAP1 POP DUP6 PUSH20 0xFFFFFFFFFFFFFFFFFFFFFFFFFFFFFFFFFFFFFFFF AND PUSH4 0x2640F62C DUP3 PUSH1 0x40 MLOAD DUP3 PUSH4 0xFFFFFFFF AND PUSH1 0xE0 SHL DUP2 MSTORE PUSH1 0x4 ADD PUSH2 0x15E6 SWAP2 SWAP1 PUSH2 0x2B13 JUMP JUMPDEST PUSH1 0x20 PUSH1 0x40 MLOAD DUP1 DUP4 SUB DUP2 DUP7 DUP1 EXTCODESIZE ISZERO DUP1 ISZERO PUSH2 0x15FE JUMPI PUSH1 0x0 DUP1 REVERT JUMPDEST POP GAS STATICCALL ISZERO DUP1 ISZERO PUSH2 0x1612 JUMPI RETURNDATASIZE PUSH1 0x0 DUP1 RETURNDATACOPY RETURNDATASIZE PUSH1 0x0 REVERT JUMPDEST POP POP POP POP PUSH1 0x40 MLOAD RETURNDATASIZE PUSH1 0x1F NOT PUSH1 0x1F DUP3 ADD AND DUP3 ADD DUP1 PUSH1 0x40 MSTORE POP DUP2 ADD SWAP1 PUSH2 0x1636 SWAP2 SWAP1 PUSH2 0x2047 JUMP JUMPDEST SWAP2 POP POP SWAP5 POP SWAP5 SWAP3 POP POP POP JUMP JUMPDEST PUSH1 0x0 CALLER SWAP1 POP SWAP1 JUMP JUMPDEST PUSH1 0x0 PUSH1 0x1 PUSH1 0x0 SWAP1 SLOAD SWAP1 PUSH2 0x100 EXP SWAP1 DIV PUSH20 0xFFFFFFFFFFFFFFFFFFFFFFFFFFFFFFFFFFFFFFFF AND PUSH20 0xFFFFFFFFFFFFFFFFFFFFFFFFFFFFFFFFFFFFFFFF AND PUSH4 0x8E53548B PUSH1 0x6 SLOAD DUP8 PUSH2 0x1698 SWAP2 SWAP1 PUSH2 0x2DC4 JUMP JUMPDEST DUP7 PUSH1 0x40 MLOAD DUP4 PUSH4 0xFFFFFFFF AND PUSH1 0xE0 SHL DUP2 MSTORE PUSH1 0x4 ADD PUSH2 0x16B6 SWAP3 SWAP2 SWAP1 PUSH2 0x2B2E JUMP JUMPDEST PUSH1 0x20 PUSH1 0x40 MLOAD DUP1 DUP4 SUB DUP2 DUP7 DUP1 EXTCODESIZE ISZERO DUP1 ISZERO PUSH2 0x16CE JUMPI PUSH1 0x0 DUP1 REVERT JUMPDEST POP GAS STATICCALL ISZERO DUP1 ISZERO PUSH2 0x16E2 JUMPI RETURNDATASIZE PUSH1 0x0 DUP1 RETURNDATACOPY RETURNDATASIZE PUSH1 0x0 REVERT JUMPDEST POP POP POP POP PUSH1 0x40 MLOAD RETURNDATASIZE PUSH1 0x1F NOT PUSH1 0x1F DUP3 ADD AND DUP3 ADD DUP1 PUSH1 0x40 MSTORE POP DUP2 ADD SWAP1 PUSH2 0x1706 SWAP2 SWAP1 PUSH2 0x2047 JUMP JUMPDEST SWAP1 POP PUSH1 0x0 DUP3 PUSH20 0xFFFFFFFFFFFFFFFFFFFFFFFFFFFFFFFFFFFFFFFF AND PUSH4 0x2640F62C DUP4 DUP10 PUSH2 0x1732 SWAP2 SWAP1 PUSH2 0x2DC4 JUMP JUMPDEST PUSH1 0x40 MLOAD DUP3 PUSH4 0xFFFFFFFF AND PUSH1 0xE0 SHL DUP2 MSTORE PUSH1 0x4 ADD PUSH2 0x174E SWAP2 SWAP1 PUSH2 0x2B13 JUMP JUMPDEST PUSH1 0x20 PUSH1 0x40 MLOAD DUP1 DUP4 SUB DUP2 DUP7 DUP1 EXTCODESIZE ISZERO DUP1 ISZERO PUSH2 0x1766 JUMPI PUSH1 0x0 DUP1 REVERT JUMPDEST POP GAS STATICCALL ISZERO DUP1 ISZERO PUSH2 0x177A JUMPI RETURNDATASIZE PUSH1 0x0 DUP1 RETURNDATACOPY RETURNDATASIZE PUSH1 0x0 REVERT JUMPDEST POP POP POP POP PUSH1 0x40 MLOAD RETURNDATASIZE PUSH1 0x1F NOT PUSH1 0x1F DUP3 ADD AND DUP3 ADD DUP1 PUSH1 0x40 MSTORE POP DUP2 ADD SWAP1 PUSH2 0x179E SWAP2 SWAP1 PUSH2 0x2047 JUMP JUMPDEST SWAP1 POP PUSH1 0x0 DUP2 DUP10 PUSH2 0x17AE SWAP2 SWAP1 PUSH2 0x2E1A JUMP JUMPDEST SWAP1 POP PUSH2 0x17BB DUP11 DUP7 DUP4 PUSH2 0x191C JUMP JUMPDEST PUSH2 0x17C5 DUP4 DUP6 PUSH2 0x19ED JUMP JUMPDEST PUSH32 0xB3D69FF8981E297B4AB7FB9BA8E8A080FFEBBEE9F273BFA2D10116A823683045 DUP8 PUSH1 0x6 SLOAD DUP6 DUP6 PUSH1 0x40 MLOAD PUSH2 0x17FC SWAP5 SWAP4 SWAP3 SWAP2 SWAP1 PUSH2 0x2B95 JUMP JUMPDEST PUSH1 0x40 MLOAD DUP1 SWAP2 SUB SWAP1 LOG1 POP POP POP POP POP POP POP POP POP POP JUMP JUMPDEST PUSH1 0x0 PUSH2 0x183C DUP3 PUSH32 0x1FFC9A700000000000000000000000000000000000000000000000000000000 PUSH2 0x185D JUMP JUMPDEST DUP1 ISZERO PUSH2 0x1856 JUMPI POP PUSH2 0x1854 DUP3 PUSH4 0xFFFFFFFF PUSH1 0xE0 SHL PUSH2 0x185D JUMP JUMPDEST ISZERO JUMPDEST SWAP1 POP SWAP2 SWAP1 POP JUMP JUMPDEST PUSH1 0x0 DUP1 PUSH4 0x1FFC9A7 PUSH1 0xE0 SHL DUP4 PUSH1 0x40 MLOAD PUSH1 0x24 ADD PUSH2 0x1879 SWAP2 SWAP1 PUSH2 0x2873 JUMP JUMPDEST PUSH1 0x40 MLOAD PUSH1 0x20 DUP2 DUP4 SUB SUB DUP2 MSTORE SWAP1 PUSH1 0x40 MSTORE SWAP1 PUSH28 0xFFFFFFFFFFFFFFFFFFFFFFFFFFFFFFFFFFFFFFFFFFFFFFFFFFFFFFFF NOT AND PUSH1 0x20 DUP3 ADD DUP1 MLOAD PUSH28 0xFFFFFFFFFFFFFFFFFFFFFFFFFFFFFFFFFFFFFFFFFFFFFFFFFFFFFFFF DUP4 DUP2 DUP4 AND OR DUP4 MSTORE POP POP POP POP SWAP1 POP PUSH1 0x0 DUP1 PUSH1 0x0 PUSH1 0x20 PUSH1 0x0 DUP6 MLOAD PUSH1 0x20 DUP8 ADD DUP11 PUSH2 0x7530 STATICCALL SWAP3 POP RETURNDATASIZE SWAP2 POP PUSH1 0x0 MLOAD SWAP1 POP DUP3 DUP1 ISZERO PUSH2 0x1904 JUMPI POP PUSH1 0x20 DUP3 LT ISZERO JUMPDEST DUP1 ISZERO PUSH2 0x1910 JUMPI POP PUSH1 0x0 DUP2 GT JUMPDEST SWAP5 POP POP POP POP POP SWAP3 SWAP2 POP POP JUMP JUMPDEST DUP2 PUSH20 0xFFFFFFFFFFFFFFFFFFFFFFFFFFFFFFFFFFFFFFFF AND PUSH4 0xA9059CBB DUP5 DUP4 PUSH1 0x40 MLOAD DUP4 PUSH4 0xFFFFFFFF AND PUSH1 0xE0 SHL DUP2 MSTORE PUSH1 0x4 ADD PUSH2 0x1957 SWAP3 SWAP2 SWAP1 PUSH2 0x27EA JUMP JUMPDEST PUSH1 0x20 PUSH1 0x40 MLOAD DUP1 DUP4 SUB DUP2 PUSH1 0x0 DUP8 DUP1 EXTCODESIZE ISZERO DUP1 ISZERO PUSH2 0x1971 JUMPI PUSH1 0x0 DUP1 REVERT JUMPDEST POP GAS CALL ISZERO DUP1 ISZERO PUSH2 0x1985 JUMPI RETURNDATASIZE PUSH1 0x0 DUP1 RETURNDATACOPY RETURNDATASIZE PUSH1 0x0 REVERT JUMPDEST POP POP POP POP PUSH1 0x40 MLOAD RETURNDATASIZE PUSH1 0x1F NOT PUSH1 0x1F DUP3 ADD AND DUP3 ADD DUP1 PUSH1 0x40 MSTORE POP DUP2 ADD SWAP1 PUSH2 0x19A9 SWAP2 SWAP1 PUSH2 0x1DB6 JUMP JUMPDEST PUSH2 0x19E8 JUMPI PUSH1 0x40 MLOAD PUSH32 0x8C379A000000000000000000000000000000000000000000000000000000000 DUP2 MSTORE PUSH1 0x4 ADD PUSH2 0x19DF SWAP1 PUSH2 0x2996 JUMP JUMPDEST PUSH1 0x40 MLOAD DUP1 SWAP2 SUB SWAP1 REVERT JUMPDEST POP POP POP JUMP JUMPDEST DUP1 PUSH20 0xFFFFFFFFFFFFFFFFFFFFFFFFFFFFFFFFFFFFFFFF AND PUSH4 0x13EFD8B DUP4 PUSH32 0xFFFFFFFFFFFFFFFFFFFFFFFFFFFFFFFFFFFFFFFFFFFFFFFFFFFFFFFFFFFFFFFF PUSH2 0x384 TIMESTAMP PUSH2 0x1A39 SWAP2 SWAP1 PUSH2 0x2DC4 JUMP JUMPDEST PUSH1 0x40 MLOAD DUP5 PUSH4 0xFFFFFFFF AND PUSH1 0xE0 SHL DUP2 MSTORE PUSH1 0x4 ADD PUSH2 0x1A57 SWAP4 SWAP3 SWAP2 SWAP1 PUSH2 0x2B5E JUMP JUMPDEST PUSH1 0x20 PUSH1 0x40 MLOAD DUP1 DUP4 SUB DUP2 PUSH1 0x0 DUP8 DUP1 EXTCODESIZE ISZERO DUP1 ISZERO PUSH2 0x1A71 JUMPI PUSH1 0x0 DUP1 REVERT JUMPDEST POP GAS CALL ISZERO DUP1 ISZERO PUSH2 0x1A85 JUMPI RETURNDATASIZE PUSH1 0x0 DUP1 RETURNDATACOPY RETURNDATASIZE PUSH1 0x0 REVERT JUMPDEST POP POP POP POP PUSH1 0x40 MLOAD RETURNDATASIZE PUSH1 0x1F NOT PUSH1 0x1F DUP3 ADD AND DUP3 ADD DUP1 PUSH1 0x40 MSTORE POP DUP2 ADD SWAP1 PUSH2 0x1AA9 SWAP2 SWAP1 PUSH2 0x2047 JUMP JUMPDEST POP PUSH1 0x1 PUSH1 0x0 SWAP1 SLOAD SWAP1 PUSH2 0x100 EXP SWAP1 DIV PUSH20 0xFFFFFFFFFFFFFFFFFFFFFFFFFFFFFFFFFFFFFFFF AND PUSH20 0xFFFFFFFFFFFFFFFFFFFFFFFFFFFFFFFFFFFFFFFF AND PUSH4 0xAA67C919 DUP4 ADDRESS PUSH1 0x40 MLOAD DUP4 PUSH4 0xFFFFFFFF AND PUSH1 0xE0 SHL DUP2 MSTORE PUSH1 0x4 ADD PUSH2 0x1B06 SWAP2 SWAP1 PUSH2 0x276F JUMP JUMPDEST PUSH1 0x0 PUSH1 0x40 MLOAD DUP1 DUP4 SUB DUP2 DUP6 DUP9 DUP1 EXTCODESIZE ISZERO DUP1 ISZERO PUSH2 0x1B1F JUMPI PUSH1 0x0 DUP1 REVERT JUMPDEST POP GAS CALL ISZERO DUP1 ISZERO PUSH2 0x1B33 JUMPI RETURNDATASIZE PUSH1 0x0 DUP1 RETURNDATACOPY RETURNDATASIZE PUSH1 0x0 REVERT JUMPDEST POP POP POP POP POP POP POP JUMP JUMPDEST PUSH1 0x40 MLOAD DUP1 PUSH1 0x80 ADD PUSH1 0x40 MSTORE DUP1 PUSH1 0x0 DUP2 MSTORE PUSH1 0x20 ADD PUSH1 0x0 DUP2 MSTORE PUSH1 0x20 ADD PUSH1 0x0 DUP2 MSTORE PUSH1 0x20 ADD PUSH1 0x0 DUP2 MSTORE POP SWAP1 JUMP JUMPDEST PUSH1 0x0 DUP2 CALLDATALOAD SWAP1 POP PUSH2 0x1B73 DUP2 PUSH2 0x329A JUMP JUMPDEST SWAP3 SWAP2 POP POP JUMP JUMPDEST PUSH1 0x0 DUP2 MLOAD SWAP1 POP PUSH2 0x1B88 DUP2 PUSH2 0x329A JUMP JUMPDEST SWAP3 SWAP2 POP POP JUMP JUMPDEST PUSH1 0x0 DUP2 CALLDATALOAD SWAP1 POP PUSH2 0x1B9D DUP2 PUSH2 0x32B1 JUMP JUMPDEST SWAP3 SWAP2 POP POP JUMP JUMPDEST PUSH1 0x0 DUP2 CALLDATALOAD SWAP1 POP PUSH2 0x1BB2 DUP2 PUSH2 0x32C8 JUMP JUMPDEST SWAP3 SWAP2 POP POP JUMP JUMPDEST PUSH1 0x0 DUP2 MLOAD SWAP1 POP PUSH2 0x1BC7 DUP2 PUSH2 0x32C8 JUMP JUMPDEST SWAP3 SWAP2 POP POP JUMP JUMPDEST PUSH1 0x0 DUP2 CALLDATALOAD SWAP1 POP PUSH2 0x1BDC DUP2 PUSH2 0x32DF JUMP JUMPDEST SWAP3 SWAP2 POP POP JUMP JUMPDEST PUSH1 0x0 DUP1 DUP4 PUSH1 0x1F DUP5 ADD SLT PUSH2 0x1BF8 JUMPI PUSH2 0x1BF7 PUSH2 0x2FCD JUMP JUMPDEST JUMPDEST DUP3 CALLDATALOAD SWAP1 POP PUSH8 0xFFFFFFFFFFFFFFFF DUP2 GT ISZERO PUSH2 0x1C15 JUMPI PUSH2 0x1C14 PUSH2 0x2FC8 JUMP JUMPDEST JUMPDEST PUSH1 0x20 DUP4 ADD SWAP2 POP DUP4 PUSH1 0x1 DUP3 MUL DUP4 ADD GT ISZERO PUSH2 0x1C31 JUMPI PUSH2 0x1C30 PUSH2 0x2FE6 JUMP JUMPDEST JUMPDEST SWAP3 POP SWAP3 SWAP1 POP JUMP JUMPDEST PUSH1 0x0 DUP2 CALLDATALOAD SWAP1 POP PUSH2 0x1C47 DUP2 PUSH2 0x32F6 JUMP JUMPDEST SWAP3 SWAP2 POP POP JUMP JUMPDEST PUSH1 0x0 DUP2 CALLDATALOAD SWAP1 POP PUSH2 0x1C5C DUP2 PUSH2 0x330D JUMP JUMPDEST SWAP3 SWAP2 POP POP JUMP JUMPDEST PUSH1 0x0 DUP2 CALLDATALOAD SWAP1 POP PUSH2 0x1C71 DUP2 PUSH2 0x3324 JUMP JUMPDEST SWAP3 SWAP2 POP POP JUMP JUMPDEST PUSH1 0x0 DUP2 MLOAD SWAP1 POP PUSH2 0x1C86 DUP2 PUSH2 0x3324 JUMP JUMPDEST SWAP3 SWAP2 POP POP JUMP JUMPDEST PUSH1 0x0 PUSH2 0x100 DUP3 DUP5 SUB SLT ISZERO PUSH2 0x1CA3 JUMPI PUSH2 0x1CA2 PUSH2 0x2FD7 JUMP JUMPDEST JUMPDEST DUP2 SWAP1 POP SWAP3 SWAP2 POP POP JUMP JUMPDEST PUSH1 0x0 PUSH1 0x40 DUP3 DUP5 SUB SLT ISZERO PUSH2 0x1CC2 JUMPI PUSH2 0x1CC1 PUSH2 0x2FD7 JUMP JUMPDEST JUMPDEST DUP2 SWAP1 POP SWAP3 SWAP2 POP POP JUMP JUMPDEST PUSH1 0x0 DUP2 CALLDATALOAD SWAP1 POP PUSH2 0x1CDA DUP2 PUSH2 0x333B JUMP JUMPDEST SWAP3 SWAP2 POP POP JUMP JUMPDEST PUSH1 0x0 DUP2 MLOAD SWAP1 POP PUSH2 0x1CEF DUP2 PUSH2 0x333B JUMP JUMPDEST SWAP3 SWAP2 POP POP JUMP JUMPDEST PUSH1 0x0 PUSH1 0x20 DUP3 DUP5 SUB SLT ISZERO PUSH2 0x1D0B JUMPI PUSH2 0x1D0A PUSH2 0x2FFA JUMP JUMPDEST JUMPDEST PUSH1 0x0 PUSH2 0x1D19 DUP5 DUP3 DUP6 ADD PUSH2 0x1B64 JUMP JUMPDEST SWAP2 POP POP SWAP3 SWAP2 POP POP JUMP JUMPDEST PUSH1 0x0 PUSH1 0x20 DUP3 DUP5 SUB SLT ISZERO PUSH2 0x1D38 JUMPI PUSH2 0x1D37 PUSH2 0x2FFA JUMP JUMPDEST JUMPDEST PUSH1 0x0 PUSH2 0x1D46 DUP5 DUP3 DUP6 ADD PUSH2 0x1B79 JUMP JUMPDEST SWAP2 POP POP SWAP3 SWAP2 POP POP JUMP JUMPDEST PUSH1 0x0 DUP1 PUSH1 0x0 DUP1 PUSH1 0x80 DUP6 DUP8 SUB SLT ISZERO PUSH2 0x1D69 JUMPI PUSH2 0x1D68 PUSH2 0x2FFA JUMP JUMPDEST JUMPDEST PUSH1 0x0 PUSH2 0x1D77 DUP8 DUP3 DUP9 ADD PUSH2 0x1B8E JUMP JUMPDEST SWAP5 POP POP PUSH1 0x20 PUSH2 0x1D88 DUP8 DUP3 DUP9 ADD PUSH2 0x1CCB JUMP JUMPDEST SWAP4 POP POP PUSH1 0x40 PUSH2 0x1D99 DUP8 DUP3 DUP9 ADD PUSH2 0x1C38 JUMP JUMPDEST SWAP3 POP POP PUSH1 0x60 PUSH2 0x1DAA DUP8 DUP3 DUP9 ADD PUSH2 0x1C62 JUMP JUMPDEST SWAP2 POP POP SWAP3 SWAP6 SWAP2 SWAP5 POP SWAP3 POP JUMP JUMPDEST PUSH1 0x0 PUSH1 0x20 DUP3 DUP5 SUB SLT ISZERO PUSH2 0x1DCC JUMPI PUSH2 0x1DCB PUSH2 0x2FFA JUMP JUMPDEST JUMPDEST PUSH1 0x0 PUSH2 0x1DDA DUP5 DUP3 DUP6 ADD PUSH2 0x1BB8 JUMP JUMPDEST SWAP2 POP POP SWAP3 SWAP2 POP POP JUMP JUMPDEST PUSH1 0x0 PUSH1 0x20 DUP3 DUP5 SUB SLT ISZERO PUSH2 0x1DF9 JUMPI PUSH2 0x1DF8 PUSH2 0x2FFA JUMP JUMPDEST JUMPDEST PUSH1 0x0 PUSH2 0x1E07 DUP5 DUP3 DUP6 ADD PUSH2 0x1BCD JUMP JUMPDEST SWAP2 POP POP SWAP3 SWAP2 POP POP JUMP JUMPDEST PUSH1 0x0 DUP1 PUSH1 0x0 DUP1 PUSH1 0x0 PUSH1 0x80 DUP7 DUP9 SUB SLT ISZERO PUSH2 0x1E2C JUMPI PUSH2 0x1E2B PUSH2 0x2FFA JUMP JUMPDEST JUMPDEST PUSH1 0x0 DUP7 ADD CALLDATALOAD PUSH8 0xFFFFFFFFFFFFFFFF DUP2 GT ISZERO PUSH2 0x1E4A JUMPI PUSH2 0x1E49 PUSH2 0x2FF0 JUMP JUMPDEST JUMPDEST PUSH2 0x1E56 DUP9 DUP3 DUP10 ADD PUSH2 0x1BE2 JUMP JUMPDEST SWAP6 POP SWAP6 POP POP PUSH1 0x20 PUSH2 0x1E69 DUP9 DUP3 DUP10 ADD PUSH2 0x1BA3 JUMP JUMPDEST SWAP4 POP POP PUSH1 0x40 PUSH2 0x1E7A DUP9 DUP3 DUP10 ADD PUSH2 0x1CCB JUMP JUMPDEST SWAP3 POP POP PUSH1 0x60 DUP7 ADD CALLDATALOAD PUSH8 0xFFFFFFFFFFFFFFFF DUP2 GT ISZERO PUSH2 0x1E9B JUMPI PUSH2 0x1E9A PUSH2 0x2FF0 JUMP JUMPDEST JUMPDEST PUSH2 0x1EA7 DUP9 DUP3 DUP10 ADD PUSH2 0x1C8C JUMP JUMPDEST SWAP2 POP POP SWAP3 SWAP6 POP SWAP3 SWAP6 SWAP1 SWAP4 POP JUMP JUMPDEST PUSH1 0x0 PUSH1 0x20 DUP3 DUP5 SUB SLT ISZERO PUSH2 0x1ECA JUMPI PUSH2 0x1EC9 PUSH2 0x2FFA JUMP JUMPDEST JUMPDEST PUSH1 0x0 PUSH2 0x1ED8 DUP5 DUP3 DUP6 ADD PUSH2 0x1C4D JUMP JUMPDEST SWAP2 POP POP SWAP3 SWAP2 POP POP JUMP JUMPDEST PUSH1 0x0 PUSH1 0x20 DUP3 DUP5 SUB SLT ISZERO PUSH2 0x1EF7 JUMPI PUSH2 0x1EF6 PUSH2 0x2FFA JUMP JUMPDEST JUMPDEST PUSH1 0x0 PUSH2 0x1F05 DUP5 DUP3 DUP6 ADD PUSH2 0x1C77 JUMP JUMPDEST SWAP2 POP POP SWAP3 SWAP2 POP POP JUMP JUMPDEST PUSH1 0x0 PUSH1 0x20 DUP3 DUP5 SUB SLT ISZERO PUSH2 0x1F24 JUMPI PUSH2 0x1F23 PUSH2 0x2FFA JUMP JUMPDEST JUMPDEST PUSH1 0x0 DUP3 ADD CALLDATALOAD PUSH8 0xFFFFFFFFFFFFFFFF DUP2 GT ISZERO PUSH2 0x1F42 JUMPI PUSH2 0x1F41 PUSH2 0x2FF0 JUMP JUMPDEST JUMPDEST PUSH2 0x1F4E DUP5 DUP3 DUP6 ADD PUSH2 0x1CAC JUMP JUMPDEST SWAP2 POP POP SWAP3 SWAP2 POP POP JUMP JUMPDEST PUSH1 0x0 DUP1 PUSH1 0x0 DUP1 PUSH1 0x0 DUP1 PUSH1 0x80 DUP8 DUP10 SUB SLT ISZERO PUSH2 0x1F74 JUMPI PUSH2 0x1F73 PUSH2 0x2FFA JUMP JUMPDEST JUMPDEST PUSH1 0x0 DUP8 ADD CALLDATALOAD PUSH8 0xFFFFFFFFFFFFFFFF DUP2 GT ISZERO PUSH2 0x1F92 JUMPI PUSH2 0x1F91 PUSH2 0x2FF0 JUMP JUMPDEST JUMPDEST PUSH2 0x1F9E DUP10 DUP3 DUP11 ADD PUSH2 0x1CAC JUMP JUMPDEST SWAP7 POP POP PUSH1 0x20 DUP8 ADD CALLDATALOAD PUSH8 0xFFFFFFFFFFFFFFFF DUP2 GT ISZERO PUSH2 0x1FBF JUMPI PUSH2 0x1FBE PUSH2 0x2FF0 JUMP JUMPDEST JUMPDEST PUSH2 0x1FCB DUP10 DUP3 DUP11 ADD PUSH2 0x1BE2 JUMP JUMPDEST SWAP6 POP SWAP6 POP POP PUSH1 0x40 DUP8 ADD CALLDATALOAD PUSH8 0xFFFFFFFFFFFFFFFF DUP2 GT ISZERO PUSH2 0x1FEE JUMPI PUSH2 0x1FED PUSH2 0x2FF0 JUMP JUMPDEST JUMPDEST PUSH2 0x1FFA DUP10 DUP3 DUP11 ADD PUSH2 0x1BE2 JUMP JUMPDEST SWAP4 POP SWAP4 POP POP PUSH1 0x60 PUSH2 0x200D DUP10 DUP3 DUP11 ADD PUSH2 0x1CCB JUMP JUMPDEST SWAP2 POP POP SWAP3 SWAP6 POP SWAP3 SWAP6 POP SWAP3 SWAP6 JUMP JUMPDEST PUSH1 0x0 PUSH1 0x20 DUP3 DUP5 SUB SLT ISZERO PUSH2 0x2030 JUMPI PUSH2 0x202F PUSH2 0x2FFA JUMP JUMPDEST JUMPDEST PUSH1 0x0 PUSH2 0x203E DUP5 DUP3 DUP6 ADD PUSH2 0x1CCB JUMP JUMPDEST SWAP2 POP POP SWAP3 SWAP2 POP POP JUMP JUMPDEST PUSH1 0x0 PUSH1 0x20 DUP3 DUP5 SUB SLT ISZERO PUSH2 0x205D JUMPI PUSH2 0x205C PUSH2 0x2FFA JUMP JUMPDEST JUMPDEST PUSH1 0x0 PUSH2 0x206B DUP5 DUP3 DUP6 ADD PUSH2 0x1CE0 JUMP JUMPDEST SWAP2 POP POP SWAP3 SWAP2 POP POP JUMP JUMPDEST PUSH1 0x0 DUP1 PUSH1 0x40 DUP4 DUP6 SUB SLT ISZERO PUSH2 0x208B JUMPI PUSH2 0x208A PUSH2 0x2FFA JUMP JUMPDEST JUMPDEST PUSH1 0x0 PUSH2 0x2099 DUP6 DUP3 DUP7 ADD PUSH2 0x1CCB JUMP JUMPDEST SWAP3 POP POP PUSH1 0x20 PUSH2 0x20AA DUP6 DUP3 DUP7 ADD PUSH2 0x1B8E JUMP JUMPDEST SWAP2 POP POP SWAP3 POP SWAP3 SWAP1 POP JUMP JUMPDEST PUSH2 0x20BD DUP2 PUSH2 0x2E60 JUMP JUMPDEST DUP3 MSTORE POP POP JUMP JUMPDEST PUSH2 0x20CC DUP2 PUSH2 0x2E4E JUMP JUMPDEST DUP3 MSTORE POP POP JUMP JUMPDEST PUSH2 0x20DB DUP2 PUSH2 0x2E4E JUMP JUMPDEST DUP3 MSTORE POP POP JUMP JUMPDEST PUSH2 0x20EA DUP2 PUSH2 0x2E72 JUMP JUMPDEST DUP3 MSTORE POP POP JUMP JUMPDEST PUSH2 0x20F9 DUP2 PUSH2 0x2E7E JUMP JUMPDEST DUP3 MSTORE POP POP JUMP JUMPDEST PUSH1 0x0 PUSH2 0x210B DUP4 DUP6 PUSH2 0x2CA4 JUMP JUMPDEST SWAP4 POP PUSH2 0x2118 DUP4 DUP6 DUP5 PUSH2 0x2F52 JUMP JUMPDEST PUSH2 0x2121 DUP4 PUSH2 0x2FFF JUMP JUMPDEST DUP5 ADD SWAP1 POP SWAP4 SWAP3 POP POP POP JUMP JUMPDEST PUSH1 0x0 PUSH2 0x2137 DUP3 PUSH2 0x2C8E JUMP JUMPDEST PUSH2 0x2141 DUP2 DUP6 PUSH2 0x2CB5 JUMP JUMPDEST SWAP4 POP PUSH2 0x2151 DUP2 DUP6 PUSH1 0x20 DUP7 ADD PUSH2 0x2F61 JUMP JUMPDEST PUSH2 0x215A DUP2 PUSH2 0x2FFF JUMP JUMPDEST DUP5 ADD SWAP2 POP POP SWAP3 SWAP2 POP POP JUMP JUMPDEST PUSH1 0x0 PUSH2 0x2170 DUP3 PUSH2 0x2C8E JUMP JUMPDEST PUSH2 0x217A DUP2 DUP6 PUSH2 0x2CC6 JUMP JUMPDEST SWAP4 POP PUSH2 0x218A DUP2 DUP6 PUSH1 0x20 DUP7 ADD PUSH2 0x2F61 JUMP JUMPDEST DUP1 DUP5 ADD SWAP2 POP POP SWAP3 SWAP2 POP POP JUMP JUMPDEST PUSH2 0x219F DUP2 PUSH2 0x2F0A JUMP JUMPDEST DUP3 MSTORE POP POP JUMP JUMPDEST PUSH2 0x21AE DUP2 PUSH2 0x2F1C JUMP JUMPDEST DUP3 MSTORE POP POP JUMP JUMPDEST PUSH1 0x0 PUSH2 0x21BF DUP3 PUSH2 0x2C99 JUMP JUMPDEST PUSH2 0x21C9 DUP2 DUP6 PUSH2 0x2CD1 JUMP JUMPDEST SWAP4 POP PUSH2 0x21D9 DUP2 DUP6 PUSH1 0x20 DUP7 ADD PUSH2 0x2F61 JUMP JUMPDEST PUSH2 0x21E2 DUP2 PUSH2 0x2FFF JUMP JUMPDEST DUP5 ADD SWAP2 POP POP SWAP3 SWAP2 POP POP JUMP JUMPDEST PUSH1 0x0 PUSH2 0x21FA PUSH1 0x3D DUP4 PUSH2 0x2CD1 JUMP JUMPDEST SWAP2 POP PUSH2 0x2205 DUP3 PUSH2 0x3010 JUMP JUMPDEST PUSH1 0x40 DUP3 ADD SWAP1 POP SWAP2 SWAP1 POP JUMP JUMPDEST PUSH1 0x0 PUSH2 0x221D PUSH1 0x1F DUP4 PUSH2 0x2CD1 JUMP JUMPDEST SWAP2 POP PUSH2 0x2228 DUP3 PUSH2 0x305F JUMP JUMPDEST PUSH1 0x20 DUP3 ADD SWAP1 POP SWAP2 SWAP1 POP JUMP JUMPDEST PUSH1 0x0 PUSH2 0x2240 PUSH1 0x26 DUP4 PUSH2 0x2CD1 JUMP JUMPDEST SWAP2 POP PUSH2 0x224B DUP3 PUSH2 0x3088 JUMP JUMPDEST PUSH1 0x40 DUP3 ADD SWAP1 POP SWAP2 SWAP1 POP JUMP JUMPDEST PUSH1 0x0 PUSH2 0x2263 PUSH1 0x1C DUP4 PUSH2 0x2CD1 JUMP JUMPDEST SWAP2 POP PUSH2 0x226E DUP3 PUSH2 0x30D7 JUMP JUMPDEST PUSH1 0x20 DUP3 ADD SWAP1 POP SWAP2 SWAP1 POP JUMP JUMPDEST PUSH1 0x0 PUSH2 0x2286 PUSH1 0xD DUP4 PUSH2 0x2CD1 JUMP JUMPDEST SWAP2 POP PUSH2 0x2291 DUP3 PUSH2 0x3100 JUMP JUMPDEST PUSH1 0x20 DUP3 ADD SWAP1 POP SWAP2 SWAP1 POP JUMP JUMPDEST PUSH1 0x0 PUSH2 0x22A9 PUSH1 0x18 DUP4 PUSH2 0x2CD1 JUMP JUMPDEST SWAP2 POP PUSH2 0x22B4 DUP3 PUSH2 0x3129 JUMP JUMPDEST PUSH1 0x20 DUP3 ADD SWAP1 POP SWAP2 SWAP1 POP JUMP JUMPDEST PUSH1 0x0 PUSH2 0x22CC PUSH1 0x20 DUP4 PUSH2 0x2CD1 JUMP JUMPDEST SWAP2 POP PUSH2 0x22D7 DUP3 PUSH2 0x3152 JUMP JUMPDEST PUSH1 0x20 DUP3 ADD SWAP1 POP SWAP2 SWAP1 POP JUMP JUMPDEST PUSH1 0x0 PUSH2 0x22EF PUSH1 0x19 DUP4 PUSH2 0x2CD1 JUMP JUMPDEST SWAP2 POP PUSH2 0x22FA DUP3 PUSH2 0x317B JUMP JUMPDEST PUSH1 0x20 DUP3 ADD SWAP1 POP SWAP2 SWAP1 POP JUMP JUMPDEST PUSH1 0x0 PUSH2 0x2312 PUSH1 0x20 DUP4 PUSH2 0x2CD1 JUMP JUMPDEST SWAP2 POP PUSH2 0x231D DUP3 PUSH2 0x31A4 JUMP JUMPDEST PUSH1 0x20 DUP3 ADD SWAP1 POP SWAP2 SWAP1 POP JUMP JUMPDEST PUSH1 0x0 PUSH2 0x2335 PUSH1 0x20 DUP4 PUSH2 0x2CD1 JUMP JUMPDEST SWAP2 POP PUSH2 0x2340 DUP3 PUSH2 0x31CD JUMP JUMPDEST PUSH1 0x20 DUP3 ADD SWAP1 POP SWAP2 SWAP1 POP JUMP JUMPDEST PUSH1 0x0 PUSH2 0x2358 PUSH1 0x1F DUP4 PUSH2 0x2CD1 JUMP JUMPDEST SWAP2 POP PUSH2 0x2363 DUP3 PUSH2 0x31F6 JUMP JUMPDEST PUSH1 0x20 DUP3 ADD SWAP1 POP SWAP2 SWAP1 POP JUMP JUMPDEST PUSH1 0x0 PUSH2 0x237B PUSH1 0x1E DUP4 PUSH2 0x2CD1 JUMP JUMPDEST SWAP2 POP PUSH2 0x2386 DUP3 PUSH2 0x321F JUMP JUMPDEST PUSH1 0x20 DUP3 ADD SWAP1 POP SWAP2 SWAP1 POP JUMP JUMPDEST PUSH1 0x0 PUSH2 0x239E PUSH1 0x1C DUP4 PUSH2 0x2CD1 JUMP JUMPDEST SWAP2 POP PUSH2 0x23A9 DUP3 PUSH2 0x3248 JUMP JUMPDEST PUSH1 0x20 DUP3 ADD SWAP1 POP SWAP2 SWAP1 POP JUMP JUMPDEST PUSH1 0x0 PUSH2 0x23C1 PUSH1 0x1B DUP4 PUSH2 0x2CD1 JUMP JUMPDEST SWAP2 POP PUSH2 0x23CC DUP3 PUSH2 0x3271 JUMP JUMPDEST PUSH1 0x20 DUP3 ADD SWAP1 POP SWAP2 SWAP1 POP JUMP JUMPDEST PUSH1 0x0 PUSH1 0xE0 DUP4 ADD PUSH2 0x23EA PUSH1 0x0 DUP5 ADD DUP5 PUSH2 0x2CE2 JUMP JUMPDEST PUSH2 0x23F7 PUSH1 0x0 DUP7 ADD DUP3 PUSH2 0x20C3 JUMP JUMPDEST POP PUSH2 0x2405 PUSH1 0x20 DUP5 ADD DUP5 PUSH2 0x2CE2 JUMP JUMPDEST PUSH2 0x2412 PUSH1 0x20 DUP7 ADD DUP3 PUSH2 0x20C3 JUMP JUMPDEST POP PUSH2 0x2420 PUSH1 0x40 DUP5 ADD DUP5 PUSH2 0x2DAD JUMP JUMPDEST PUSH2 0x242D PUSH1 0x40 DUP7 ADD DUP3 PUSH2 0x273A JUMP JUMPDEST POP PUSH2 0x243B PUSH1 0x60 DUP5 ADD DUP5 PUSH2 0x2DAD JUMP JUMPDEST PUSH2 0x2448 PUSH1 0x60 DUP7 ADD DUP3 PUSH2 0x273A JUMP JUMPDEST POP PUSH2 0x2456 PUSH1 0x80 DUP5 ADD DUP5 PUSH2 0x2DAD JUMP JUMPDEST PUSH2 0x2463 PUSH1 0x80 DUP7 ADD DUP3 PUSH2 0x273A JUMP JUMPDEST POP PUSH2 0x2471 PUSH1 0xA0 DUP5 ADD DUP5 PUSH2 0x2CF9 JUMP JUMPDEST DUP6 DUP4 SUB PUSH1 0xA0 DUP8 ADD MSTORE PUSH2 0x2484 DUP4 DUP3 DUP5 PUSH2 0x20FF JUMP JUMPDEST SWAP3 POP POP POP PUSH2 0x2495 PUSH1 0xC0 DUP5 ADD DUP5 PUSH2 0x2DAD JUMP JUMPDEST PUSH2 0x24A2 PUSH1 0xC0 DUP7 ADD DUP3 PUSH2 0x273A JUMP JUMPDEST POP DUP1 SWAP2 POP POP SWAP3 SWAP2 POP POP JUMP JUMPDEST PUSH1 0x80 DUP3 ADD PUSH1 0x0 DUP3 ADD MLOAD PUSH2 0x24C3 PUSH1 0x0 DUP6 ADD DUP3 PUSH2 0x273A JUMP JUMPDEST POP PUSH1 0x20 DUP3 ADD MLOAD PUSH2 0x24D6 PUSH1 0x20 DUP6 ADD DUP3 PUSH2 0x273A JUMP JUMPDEST POP PUSH1 0x40 DUP3 ADD MLOAD PUSH2 0x24E9 PUSH1 0x40 DUP6 ADD DUP3 PUSH2 0x273A JUMP JUMPDEST POP PUSH1 0x60 DUP3 ADD MLOAD PUSH2 0x24FC PUSH1 0x60 DUP6 ADD DUP3 PUSH2 0x273A JUMP JUMPDEST POP POP POP POP JUMP JUMPDEST PUSH1 0x0 PUSH2 0x100 DUP4 ADD PUSH2 0x2516 PUSH1 0x0 DUP5 ADD DUP5 PUSH2 0x2DAD JUMP JUMPDEST PUSH2 0x2523 PUSH1 0x0 DUP7 ADD DUP3 PUSH2 0x273A JUMP JUMPDEST POP PUSH2 0x2531 PUSH1 0x20 DUP5 ADD DUP5 PUSH2 0x2DAD JUMP JUMPDEST PUSH2 0x253E PUSH1 0x20 DUP7 ADD DUP3 PUSH2 0x273A JUMP JUMPDEST POP PUSH2 0x254C PUSH1 0x40 DUP5 ADD DUP5 PUSH2 0x2DAD JUMP JUMPDEST PUSH2 0x2559 PUSH1 0x40 DUP7 ADD DUP3 PUSH2 0x273A JUMP JUMPDEST POP PUSH2 0x2567 PUSH1 0x60 DUP5 ADD DUP5 PUSH2 0x2CE2 JUMP JUMPDEST PUSH2 0x2574 PUSH1 0x60 DUP7 ADD DUP3 PUSH2 0x20C3 JUMP JUMPDEST POP PUSH2 0x2582 PUSH1 0x80 DUP5 ADD DUP5 PUSH2 0x2CE2 JUMP JUMPDEST PUSH2 0x258F PUSH1 0x80 DUP7 ADD DUP3 PUSH2 0x20C3 JUMP JUMPDEST POP PUSH2 0x259D PUSH1 0xA0 DUP5 ADD DUP5 PUSH2 0x2CE2 JUMP JUMPDEST PUSH2 0x25AA PUSH1 0xA0 DUP7 ADD DUP3 PUSH2 0x20C3 JUMP JUMPDEST POP PUSH2 0x25B8 PUSH1 0xC0 DUP5 ADD DUP5 PUSH2 0x2CF9 JUMP JUMPDEST DUP6 DUP4 SUB PUSH1 0xC0 DUP8 ADD MSTORE PUSH2 0x25CB DUP4 DUP3 DUP5 PUSH2 0x20FF JUMP JUMPDEST SWAP3 POP POP POP PUSH2 0x25DC PUSH1 0xE0 DUP5 ADD DUP5 PUSH2 0x2DAD JUMP JUMPDEST PUSH2 0x25E9 PUSH1 0xE0 DUP7 ADD DUP3 PUSH2 0x273A JUMP JUMPDEST POP DUP1 SWAP2 POP POP SWAP3 SWAP2 POP POP JUMP JUMPDEST PUSH1 0x0 PUSH2 0x100 DUP4 ADD PUSH2 0x2608 PUSH1 0x0 DUP5 ADD DUP5 PUSH2 0x2DAD JUMP JUMPDEST PUSH2 0x2615 PUSH1 0x0 DUP7 ADD DUP3 PUSH2 0x273A JUMP JUMPDEST POP PUSH2 0x2623 PUSH1 0x20 DUP5 ADD DUP5 PUSH2 0x2DAD JUMP JUMPDEST PUSH2 0x2630 PUSH1 0x20 DUP7 ADD DUP3 PUSH2 0x273A JUMP JUMPDEST POP PUSH2 0x263E PUSH1 0x40 DUP5 ADD DUP5 PUSH2 0x2DAD JUMP JUMPDEST PUSH2 0x264B PUSH1 0x40 DUP7 ADD DUP3 PUSH2 0x273A JUMP JUMPDEST POP PUSH2 0x2659 PUSH1 0x60 DUP5 ADD DUP5 PUSH2 0x2CE2 JUMP JUMPDEST PUSH2 0x2666 PUSH1 0x60 DUP7 ADD DUP3 PUSH2 0x20C3 JUMP JUMPDEST POP PUSH2 0x2674 PUSH1 0x80 DUP5 ADD DUP5 PUSH2 0x2CE2 JUMP JUMPDEST PUSH2 0x2681 PUSH1 0x80 DUP7 ADD DUP3 PUSH2 0x20C3 JUMP JUMPDEST POP PUSH2 0x268F PUSH1 0xA0 DUP5 ADD DUP5 PUSH2 0x2CE2 JUMP JUMPDEST PUSH2 0x269C PUSH1 0xA0 DUP7 ADD DUP3 PUSH2 0x20C3 JUMP JUMPDEST POP PUSH2 0x26AA PUSH1 0xC0 DUP5 ADD DUP5 PUSH2 0x2CF9 JUMP JUMPDEST DUP6 DUP4 SUB PUSH1 0xC0 DUP8 ADD MSTORE PUSH2 0x26BD DUP4 DUP3 DUP5 PUSH2 0x20FF JUMP JUMPDEST SWAP3 POP POP POP PUSH2 0x26CE PUSH1 0xE0 DUP5 ADD DUP5 PUSH2 0x2DAD JUMP JUMPDEST PUSH2 0x26DB PUSH1 0xE0 DUP7 ADD DUP3 PUSH2 0x273A JUMP JUMPDEST POP DUP1 SWAP2 POP POP SWAP3 SWAP2 POP POP JUMP JUMPDEST PUSH1 0x0 PUSH1 0x40 DUP4 ADD PUSH2 0x26F9 PUSH1 0x0 DUP5 ADD DUP5 PUSH2 0x2D5C JUMP JUMPDEST DUP5 DUP3 SUB PUSH1 0x0 DUP7 ADD MSTORE PUSH2 0x270B DUP3 DUP3 PUSH2 0x23D7 JUMP JUMPDEST SWAP2 POP POP PUSH2 0x271B PUSH1 0x20 DUP5 ADD DUP5 PUSH2 0x2D84 JUMP JUMPDEST DUP5 DUP3 SUB PUSH1 0x20 DUP7 ADD MSTORE PUSH2 0x272D DUP3 DUP3 PUSH2 0x2502 JUMP JUMPDEST SWAP2 POP POP DUP1 SWAP2 POP POP SWAP3 SWAP2 POP POP JUMP JUMPDEST PUSH2 0x2743 DUP2 PUSH2 0x2F00 JUMP JUMPDEST DUP3 MSTORE POP POP JUMP JUMPDEST PUSH2 0x2752 DUP2 PUSH2 0x2F00 JUMP JUMPDEST DUP3 MSTORE POP POP JUMP JUMPDEST PUSH1 0x0 PUSH2 0x2764 DUP3 DUP5 PUSH2 0x2165 JUMP JUMPDEST SWAP2 POP DUP2 SWAP1 POP SWAP3 SWAP2 POP POP JUMP JUMPDEST PUSH1 0x0 PUSH1 0x20 DUP3 ADD SWAP1 POP PUSH2 0x2784 PUSH1 0x0 DUP4 ADD DUP5 PUSH2 0x20D2 JUMP JUMPDEST SWAP3 SWAP2 POP POP JUMP JUMPDEST PUSH1 0x0 PUSH1 0x40 DUP3 ADD SWAP1 POP PUSH2 0x279F PUSH1 0x0 DUP4 ADD DUP6 PUSH2 0x20B4 JUMP JUMPDEST PUSH2 0x27AC PUSH1 0x20 DUP4 ADD DUP5 PUSH2 0x2749 JUMP JUMPDEST SWAP4 SWAP3 POP POP POP JUMP JUMPDEST PUSH1 0x0 PUSH1 0x60 DUP3 ADD SWAP1 POP PUSH2 0x27C8 PUSH1 0x0 DUP4 ADD DUP7 PUSH2 0x20D2 JUMP JUMPDEST PUSH2 0x27D5 PUSH1 0x20 DUP4 ADD DUP6 PUSH2 0x20D2 JUMP JUMPDEST PUSH2 0x27E2 PUSH1 0x40 DUP4 ADD DUP5 PUSH2 0x2749 JUMP JUMPDEST SWAP5 SWAP4 POP POP POP POP JUMP JUMPDEST PUSH1 0x0 PUSH1 0x40 DUP3 ADD SWAP1 POP PUSH2 0x27FF PUSH1 0x0 DUP4 ADD DUP6 PUSH2 0x20D2 JUMP JUMPDEST PUSH2 0x280C PUSH1 0x20 DUP4 ADD DUP5 PUSH2 0x2749 JUMP JUMPDEST SWAP4 SWAP3 POP POP POP JUMP JUMPDEST PUSH1 0x0 PUSH1 0x80 DUP3 ADD SWAP1 POP PUSH2 0x2828 PUSH1 0x0 DUP4 ADD DUP8 PUSH2 0x20D2 JUMP JUMPDEST PUSH2 0x2835 PUSH1 0x20 DUP4 ADD DUP7 PUSH2 0x2749 JUMP JUMPDEST PUSH2 0x2842 PUSH1 0x40 DUP4 ADD DUP6 PUSH2 0x2196 JUMP JUMPDEST PUSH2 0x284F PUSH1 0x60 DUP4 ADD DUP5 PUSH2 0x21A5 JUMP JUMPDEST SWAP6 SWAP5 POP POP POP POP POP JUMP JUMPDEST PUSH1 0x0 PUSH1 0x20 DUP3 ADD SWAP1 POP PUSH2 0x286D PUSH1 0x0 DUP4 ADD DUP5 PUSH2 0x20E1 JUMP JUMPDEST SWAP3 SWAP2 POP POP JUMP JUMPDEST PUSH1 0x0 PUSH1 0x20 DUP3 ADD SWAP1 POP PUSH2 0x2888 PUSH1 0x0 DUP4 ADD DUP5 PUSH2 0x20F0 JUMP JUMPDEST SWAP3 SWAP2 POP POP JUMP JUMPDEST PUSH1 0x0 PUSH1 0x40 DUP3 ADD SWAP1 POP DUP2 DUP2 SUB PUSH1 0x0 DUP4 ADD MSTORE PUSH2 0x28A8 DUP2 DUP6 PUSH2 0x212C JUMP JUMPDEST SWAP1 POP PUSH2 0x28B7 PUSH1 0x20 DUP4 ADD DUP5 PUSH2 0x20E1 JUMP JUMPDEST SWAP4 SWAP3 POP POP POP JUMP JUMPDEST PUSH1 0x0 PUSH1 0x20 DUP3 ADD SWAP1 POP PUSH2 0x28D3 PUSH1 0x0 DUP4 ADD DUP5 PUSH2 0x2196 JUMP JUMPDEST SWAP3 SWAP2 POP POP JUMP JUMPDEST PUSH1 0x0 PUSH1 0x20 DUP3 ADD SWAP1 POP PUSH2 0x28EE PUSH1 0x0 DUP4 ADD DUP5 PUSH2 0x21A5 JUMP JUMPDEST SWAP3 SWAP2 POP POP JUMP JUMPDEST PUSH1 0x0 PUSH1 0x20 DUP3 ADD SWAP1 POP DUP2 DUP2 SUB PUSH1 0x0 DUP4 ADD MSTORE PUSH2 0x290E DUP2 DUP5 PUSH2 0x21B4 JUMP JUMPDEST SWAP1 POP SWAP3 SWAP2 POP POP JUMP JUMPDEST PUSH1 0x0 PUSH1 0x20 DUP3 ADD SWAP1 POP DUP2 DUP2 SUB PUSH1 0x0 DUP4 ADD MSTORE PUSH2 0x292F DUP2 PUSH2 0x21ED JUMP JUMPDEST SWAP1 POP SWAP2 SWAP1 POP JUMP JUMPDEST PUSH1 0x0 PUSH1 0x20 DUP3 ADD SWAP1 POP DUP2 DUP2 SUB PUSH1 0x0 DUP4 ADD MSTORE PUSH2 0x294F DUP2 PUSH2 0x2210 JUMP JUMPDEST SWAP1 POP SWAP2 SWAP1 POP JUMP JUMPDEST PUSH1 0x0 PUSH1 0x20 DUP3 ADD SWAP1 POP DUP2 DUP2 SUB PUSH1 0x0 DUP4 ADD MSTORE PUSH2 0x296F DUP2 PUSH2 0x2233 JUMP JUMPDEST SWAP1 POP SWAP2 SWAP1 POP JUMP JUMPDEST PUSH1 0x0 PUSH1 0x20 DUP3 ADD SWAP1 POP DUP2 DUP2 SUB PUSH1 0x0 DUP4 ADD MSTORE PUSH2 0x298F DUP2 PUSH2 0x2256 JUMP JUMPDEST SWAP1 POP SWAP2 SWAP1 POP JUMP JUMPDEST PUSH1 0x0 PUSH1 0x20 DUP3 ADD SWAP1 POP DUP2 DUP2 SUB PUSH1 0x0 DUP4 ADD MSTORE PUSH2 0x29AF DUP2 PUSH2 0x2279 JUMP JUMPDEST SWAP1 POP SWAP2 SWAP1 POP JUMP JUMPDEST PUSH1 0x0 PUSH1 0x20 DUP3 ADD SWAP1 POP DUP2 DUP2 SUB PUSH1 0x0 DUP4 ADD MSTORE PUSH2 0x29CF DUP2 PUSH2 0x229C JUMP JUMPDEST SWAP1 POP SWAP2 SWAP1 POP JUMP JUMPDEST PUSH1 0x0 PUSH1 0x20 DUP3 ADD SWAP1 POP DUP2 DUP2 SUB PUSH1 0x0 DUP4 ADD MSTORE PUSH2 0x29EF DUP2 PUSH2 0x22BF JUMP JUMPDEST SWAP1 POP SWAP2 SWAP1 POP JUMP JUMPDEST PUSH1 0x0 PUSH1 0x20 DUP3 ADD SWAP1 POP DUP2 DUP2 SUB PUSH1 0x0 DUP4 ADD MSTORE PUSH2 0x2A0F DUP2 PUSH2 0x22E2 JUMP JUMPDEST SWAP1 POP SWAP2 SWAP1 POP JUMP JUMPDEST PUSH1 0x0 PUSH1 0x20 DUP3 ADD SWAP1 POP DUP2 DUP2 SUB PUSH1 0x0 DUP4 ADD MSTORE PUSH2 0x2A2F DUP2 PUSH2 0x2305 JUMP JUMPDEST SWAP1 POP SWAP2 SWAP1 POP JUMP JUMPDEST PUSH1 0x0 PUSH1 0x20 DUP3 ADD SWAP1 POP DUP2 DUP2 SUB PUSH1 0x0 DUP4 ADD MSTORE PUSH2 0x2A4F DUP2 PUSH2 0x2328 JUMP JUMPDEST SWAP1 POP SWAP2 SWAP1 POP JUMP JUMPDEST PUSH1 0x0 PUSH1 0x20 DUP3 ADD SWAP1 POP DUP2 DUP2 SUB PUSH1 0x0 DUP4 ADD MSTORE PUSH2 0x2A6F DUP2 PUSH2 0x234B JUMP JUMPDEST SWAP1 POP SWAP2 SWAP1 POP JUMP JUMPDEST PUSH1 0x0 PUSH1 0x20 DUP3 ADD SWAP1 POP DUP2 DUP2 SUB PUSH1 0x0 DUP4 ADD MSTORE PUSH2 0x2A8F DUP2 PUSH2 0x236E JUMP JUMPDEST SWAP1 POP SWAP2 SWAP1 POP JUMP JUMPDEST PUSH1 0x0 PUSH1 0x20 DUP3 ADD SWAP1 POP DUP2 DUP2 SUB PUSH1 0x0 DUP4 ADD MSTORE PUSH2 0x2AAF DUP2 PUSH2 0x2391 JUMP JUMPDEST SWAP1 POP SWAP2 SWAP1 POP JUMP JUMPDEST PUSH1 0x0 PUSH1 0x20 DUP3 ADD SWAP1 POP DUP2 DUP2 SUB PUSH1 0x0 DUP4 ADD MSTORE PUSH2 0x2ACF DUP2 PUSH2 0x23B4 JUMP JUMPDEST SWAP1 POP SWAP2 SWAP1 POP JUMP JUMPDEST PUSH1 0x0 PUSH1 0x80 DUP3 ADD SWAP1 POP PUSH2 0x2AEB PUSH1 0x0 DUP4 ADD DUP5 PUSH2 0x24AD JUMP JUMPDEST SWAP3 SWAP2 POP POP JUMP JUMPDEST PUSH1 0x0 PUSH1 0x20 DUP3 ADD SWAP1 POP DUP2 DUP2 SUB PUSH1 0x0 DUP4 ADD MSTORE PUSH2 0x2B0B DUP2 DUP5 PUSH2 0x26E6 JUMP JUMPDEST SWAP1 POP SWAP3 SWAP2 POP POP JUMP JUMPDEST PUSH1 0x0 PUSH1 0x20 DUP3 ADD SWAP1 POP PUSH2 0x2B28 PUSH1 0x0 DUP4 ADD DUP5 PUSH2 0x2749 JUMP JUMPDEST SWAP3 SWAP2 POP POP JUMP JUMPDEST PUSH1 0x0 PUSH1 0x40 DUP3 ADD SWAP1 POP PUSH2 0x2B43 PUSH1 0x0 DUP4 ADD DUP6 PUSH2 0x2749 JUMP JUMPDEST DUP2 DUP2 SUB PUSH1 0x20 DUP4 ADD MSTORE PUSH2 0x2B55 DUP2 DUP5 PUSH2 0x25F4 JUMP JUMPDEST SWAP1 POP SWAP4 SWAP3 POP POP POP JUMP JUMPDEST PUSH1 0x0 PUSH1 0x60 DUP3 ADD SWAP1 POP PUSH2 0x2B73 PUSH1 0x0 DUP4 ADD DUP7 PUSH2 0x2749 JUMP JUMPDEST PUSH2 0x2B80 PUSH1 0x20 DUP4 ADD DUP6 PUSH2 0x2749 JUMP JUMPDEST PUSH2 0x2B8D PUSH1 0x40 DUP4 ADD DUP5 PUSH2 0x2749 JUMP JUMPDEST SWAP5 SWAP4 POP POP POP POP JUMP JUMPDEST PUSH1 0x0 PUSH1 0x80 DUP3 ADD SWAP1 POP PUSH2 0x2BAA PUSH1 0x0 DUP4 ADD DUP8 PUSH2 0x2749 JUMP JUMPDEST PUSH2 0x2BB7 PUSH1 0x20 DUP4 ADD DUP7 PUSH2 0x2749 JUMP JUMPDEST PUSH2 0x2BC4 PUSH1 0x40 DUP4 ADD DUP6 PUSH2 0x2749 JUMP JUMPDEST PUSH2 0x2BD1 PUSH1 0x60 DUP4 ADD DUP5 PUSH2 0x2749 JUMP JUMPDEST SWAP6 SWAP5 POP POP POP POP POP JUMP JUMPDEST PUSH1 0x0 DUP1 DUP4 CALLDATALOAD PUSH1 0x1 PUSH1 0x20 SUB DUP5 CALLDATASIZE SUB SUB DUP2 SLT PUSH2 0x2BF7 JUMPI PUSH2 0x2BF6 PUSH2 0x2FDC JUMP JUMPDEST JUMPDEST DUP1 DUP5 ADD SWAP3 POP DUP3 CALLDATALOAD SWAP2 POP PUSH8 0xFFFFFFFFFFFFFFFF DUP3 GT ISZERO PUSH2 0x2C19 JUMPI PUSH2 0x2C18 PUSH2 0x2FD2 JUMP JUMPDEST JUMPDEST PUSH1 0x20 DUP4 ADD SWAP3 POP PUSH1 0x1 DUP3 MUL CALLDATASIZE SUB DUP4 SGT ISZERO PUSH2 0x2C35 JUMPI PUSH2 0x2C34 PUSH2 0x2FEB JUMP JUMPDEST JUMPDEST POP SWAP3 POP SWAP3 SWAP1 POP JUMP JUMPDEST PUSH1 0x0 DUP3 CALLDATALOAD PUSH1 0x1 PUSH1 0xE0 SUB DUP4 CALLDATASIZE SUB SUB DUP2 SLT PUSH2 0x2C59 JUMPI PUSH2 0x2C58 PUSH2 0x2FDC JUMP JUMPDEST JUMPDEST DUP1 DUP4 ADD SWAP2 POP POP SWAP3 SWAP2 POP POP JUMP JUMPDEST PUSH1 0x0 DUP3 CALLDATALOAD PUSH1 0x1 PUSH2 0x100 SUB DUP4 CALLDATASIZE SUB SUB DUP2 SLT PUSH2 0x2C82 JUMPI PUSH2 0x2C81 PUSH2 0x2FDC JUMP JUMPDEST JUMPDEST DUP1 DUP4 ADD SWAP2 POP POP SWAP3 SWAP2 POP POP JUMP JUMPDEST PUSH1 0x0 DUP2 MLOAD SWAP1 POP SWAP2 SWAP1 POP JUMP JUMPDEST PUSH1 0x0 DUP2 MLOAD SWAP1 POP SWAP2 SWAP1 POP JUMP JUMPDEST PUSH1 0x0 DUP3 DUP3 MSTORE PUSH1 0x20 DUP3 ADD SWAP1 POP SWAP3 SWAP2 POP POP JUMP JUMPDEST PUSH1 0x0 DUP3 DUP3 MSTORE PUSH1 0x20 DUP3 ADD SWAP1 POP SWAP3 SWAP2 POP POP JUMP JUMPDEST PUSH1 0x0 DUP2 SWAP1 POP SWAP3 SWAP2 POP POP JUMP JUMPDEST PUSH1 0x0 DUP3 DUP3 MSTORE PUSH1 0x20 DUP3 ADD SWAP1 POP SWAP3 SWAP2 POP POP JUMP JUMPDEST PUSH1 0x0 PUSH2 0x2CF1 PUSH1 0x20 DUP5 ADD DUP5 PUSH2 0x1B64 JUMP JUMPDEST SWAP1 POP SWAP3 SWAP2 POP POP JUMP JUMPDEST PUSH1 0x0 DUP1 DUP4 CALLDATALOAD PUSH1 0x1 PUSH1 0x20 SUB DUP5 CALLDATASIZE SUB SUB DUP2 SLT PUSH2 0x2D16 JUMPI PUSH2 0x2D15 PUSH2 0x2FF5 JUMP JUMPDEST JUMPDEST DUP4 DUP2 ADD SWAP3 POP DUP3 CALLDATALOAD SWAP2 POP PUSH1 0x20 DUP4 ADD SWAP3 POP PUSH8 0xFFFFFFFFFFFFFFFF DUP3 GT ISZERO PUSH2 0x2D3E JUMPI PUSH2 0x2D3D PUSH2 0x2FC3 JUMP JUMPDEST JUMPDEST PUSH1 0x1 DUP3 MUL CALLDATASIZE SUB DUP5 SGT ISZERO PUSH2 0x2D54 JUMPI PUSH2 0x2D53 PUSH2 0x2FE1 JUMP JUMPDEST JUMPDEST POP SWAP3 POP SWAP3 SWAP1 POP JUMP JUMPDEST PUSH1 0x0 DUP3 CALLDATALOAD PUSH1 0x1 PUSH1 0xE0 SUB DUP4 CALLDATASIZE SUB SUB DUP2 SLT PUSH2 0x2D78 JUMPI PUSH2 0x2D77 PUSH2 0x2FF5 JUMP JUMPDEST JUMPDEST DUP3 DUP2 ADD SWAP2 POP POP SWAP3 SWAP2 POP POP JUMP JUMPDEST PUSH1 0x0 DUP3 CALLDATALOAD PUSH1 0x1 PUSH2 0x100 SUB DUP4 CALLDATASIZE SUB SUB DUP2 SLT PUSH2 0x2DA1 JUMPI PUSH2 0x2DA0 PUSH2 0x2FF5 JUMP JUMPDEST JUMPDEST DUP3 DUP2 ADD SWAP2 POP POP SWAP3 SWAP2 POP POP JUMP JUMPDEST PUSH1 0x0 PUSH2 0x2DBC PUSH1 0x20 DUP5 ADD DUP5 PUSH2 0x1CCB JUMP JUMPDEST SWAP1 POP SWAP3 SWAP2 POP POP JUMP JUMPDEST PUSH1 0x0 PUSH2 0x2DCF DUP3 PUSH2 0x2F00 JUMP JUMPDEST SWAP2 POP PUSH2 0x2DDA DUP4 PUSH2 0x2F00 JUMP JUMPDEST SWAP3 POP DUP3 PUSH32 0xFFFFFFFFFFFFFFFFFFFFFFFFFFFFFFFFFFFFFFFFFFFFFFFFFFFFFFFFFFFFFFFF SUB DUP3 GT ISZERO PUSH2 0x2E0F JUMPI PUSH2 0x2E0E PUSH2 0x2F94 JUMP JUMPDEST JUMPDEST DUP3 DUP3 ADD SWAP1 POP SWAP3 SWAP2 POP POP JUMP JUMPDEST PUSH1 0x0 PUSH2 0x2E25 DUP3 PUSH2 0x2F00 JUMP JUMPDEST SWAP2 POP PUSH2 0x2E30 DUP4 PUSH2 0x2F00 JUMP JUMPDEST SWAP3 POP DUP3 DUP3 LT ISZERO PUSH2 0x2E43 JUMPI PUSH2 0x2E42 PUSH2 0x2F94 JUMP JUMPDEST JUMPDEST DUP3 DUP3 SUB SWAP1 POP SWAP3 SWAP2 POP POP JUMP JUMPDEST PUSH1 0x0 PUSH2 0x2E59 DUP3 PUSH2 0x2EE0 JUMP JUMPDEST SWAP1 POP SWAP2 SWAP1 POP JUMP JUMPDEST PUSH1 0x0 PUSH2 0x2E6B DUP3 PUSH2 0x2EE0 JUMP JUMPDEST SWAP1 POP SWAP2 SWAP1 POP JUMP JUMPDEST PUSH1 0x0 DUP2 ISZERO ISZERO SWAP1 POP SWAP2 SWAP1 POP JUMP JUMPDEST PUSH1 0x0 PUSH32 0xFFFFFFFF00000000000000000000000000000000000000000000000000000000 DUP3 AND SWAP1 POP SWAP2 SWAP1 POP JUMP JUMPDEST PUSH1 0x0 PUSH2 0x2EB5 DUP3 PUSH2 0x2E4E JUMP JUMPDEST SWAP1 POP SWAP2 SWAP1 POP JUMP JUMPDEST PUSH1 0x0 PUSH2 0x2EC7 DUP3 PUSH2 0x2E4E JUMP JUMPDEST SWAP1 POP SWAP2 SWAP1 POP JUMP JUMPDEST PUSH1 0x0 PUSH2 0x2ED9 DUP3 PUSH2 0x2E4E JUMP JUMPDEST SWAP1 POP SWAP2 SWAP1 POP JUMP JUMPDEST PUSH1 0x0 PUSH20 0xFFFFFFFFFFFFFFFFFFFFFFFFFFFFFFFFFFFFFFFF DUP3 AND SWAP1 POP SWAP2 SWAP1 POP JUMP JUMPDEST PUSH1 0x0 DUP2 SWAP1 POP SWAP2 SWAP1 POP JUMP JUMPDEST PUSH1 0x0 PUSH2 0x2F15 DUP3 PUSH2 0x2F2E JUMP JUMPDEST SWAP1 POP SWAP2 SWAP1 POP JUMP JUMPDEST PUSH1 0x0 PUSH2 0x2F27 DUP3 PUSH2 0x2F2E JUMP JUMPDEST SWAP1 POP SWAP2 SWAP1 POP JUMP JUMPDEST PUSH1 0x0 PUSH2 0x2F39 DUP3 PUSH2 0x2F40 JUMP JUMPDEST SWAP1 POP SWAP2 SWAP1 POP JUMP JUMPDEST PUSH1 0x0 PUSH2 0x2F4B DUP3 PUSH2 0x2EE0 JUMP JUMPDEST SWAP1 POP SWAP2 SWAP1 POP JUMP JUMPDEST DUP3 DUP2 DUP4 CALLDATACOPY PUSH1 0x0 DUP4 DUP4 ADD MSTORE POP POP POP JUMP JUMPDEST PUSH1 0x0 JUMPDEST DUP4 DUP2 LT ISZERO PUSH2 0x2F7F JUMPI DUP1 DUP3 ADD MLOAD DUP2 DUP5 ADD MSTORE PUSH1 0x20 DUP2 ADD SWAP1 POP PUSH2 0x2F64 JUMP JUMPDEST DUP4 DUP2 GT ISZERO PUSH2 0x2F8E JUMPI PUSH1 0x0 DUP5 DUP5 ADD MSTORE JUMPDEST POP POP POP POP JUMP JUMPDEST PUSH32 0x4E487B7100000000000000000000000000000000000000000000000000000000 PUSH1 0x0 MSTORE PUSH1 0x11 PUSH1 0x4 MSTORE PUSH1 0x24 PUSH1 0x0 REVERT JUMPDEST PUSH1 0x0 DUP1 REVERT JUMPDEST PUSH1 0x0 DUP1 REVERT JUMPDEST PUSH1 0x0 DUP1 REVERT JUMPDEST PUSH1 0x0 DUP1 REVERT JUMPDEST PUSH1 0x0 DUP1 REVERT JUMPDEST PUSH1 0x0 DUP1 REVERT JUMPDEST PUSH1 0x0 DUP1 REVERT JUMPDEST PUSH1 0x0 DUP1 REVERT JUMPDEST PUSH1 0x0 DUP1 REVERT JUMPDEST PUSH1 0x0 DUP1 REVERT JUMPDEST PUSH1 0x0 DUP1 REVERT JUMPDEST PUSH1 0x0 DUP1 REVERT JUMPDEST PUSH1 0x0 PUSH1 0x1F NOT PUSH1 0x1F DUP4 ADD AND SWAP1 POP SWAP2 SWAP1 POP JUMP JUMPDEST PUSH32 0x7061796D6173746572446174613A20696E76616C6964206C656E67746820666F PUSH1 0x0 DUP3 ADD MSTORE PUSH32 0x7220556E69737761702076332065786368616E67652061646472657373000000 PUSH1 0x20 DUP3 ADD MSTORE POP JUMP JUMPDEST PUSH32 0x696E76616C696420666F7277617264657220666F7220726563697069656E7400 PUSH1 0x0 DUP3 ADD MSTORE POP JUMP JUMPDEST PUSH32 0x4F776E61626C653A206E6577206F776E657220697320746865207A65726F2061 PUSH1 0x0 DUP3 ADD MSTORE PUSH32 0x6464726573730000000000000000000000000000000000000000000000000000 PUSH1 0x20 DUP3 ADD MSTORE POP JUMP JUMPDEST PUSH32 0x697354727573746564466F727761726465723A20726576657274656400000000 PUSH1 0x0 DUP3 ADD MSTORE POP JUMP JUMPDEST PUSH32 0x6661696C656420726566756E6400000000000000000000000000000000000000 PUSH1 0x0 DUP3 ADD MSTORE POP JUMP JUMPDEST PUSH32 0x466F72776172646572206973206E6F7420747275737465640000000000000000 PUSH1 0x0 DUP3 ADD MSTORE POP JUMP JUMPDEST PUSH32 0x746172676574206973206E6F7420612076616C69642049466F72776172646572 PUSH1 0x0 DUP3 ADD MSTORE POP JUMP JUMPDEST PUSH32 0x756E737570706F7274656420746F6B656E20756E697377617000000000000000 PUSH1 0x0 DUP3 ADD MSTORE POP JUMP JUMPDEST PUSH32 0x697354727573746564466F727761726465723A2062616420726573706F6E7365 PUSH1 0x0 DUP3 ADD MSTORE POP JUMP JUMPDEST PUSH32 0x4F776E61626C653A2063616C6C6572206973206E6F7420746865206F776E6572 PUSH1 0x0 DUP3 ADD MSTORE POP JUMP JUMPDEST PUSH32 0x746172676574206973206E6F7420612076616C6964204952656C617948756200 PUSH1 0x0 DUP3 ADD MSTORE POP JUMP JUMPDEST PUSH32 0x63616E206F6E6C792062652063616C6C65642062792052656C61794875620000 PUSH1 0x0 DUP3 ADD MSTORE POP JUMP JUMPDEST PUSH32 0x76616C7565207472616E73666572206E6F7420737570706F7274656400000000 PUSH1 0x0 DUP3 ADD MSTORE POP JUMP JUMPDEST PUSH32 0x73686F756C642068617665206E6F20617070726F76616C446174610000000000 PUSH1 0x0 DUP3 ADD MSTORE POP JUMP JUMPDEST PUSH2 0x32A3 DUP2 PUSH2 0x2E4E JUMP JUMPDEST DUP2 EQ PUSH2 0x32AE JUMPI PUSH1 0x0 DUP1 REVERT JUMPDEST POP JUMP JUMPDEST PUSH2 0x32BA DUP2 PUSH2 0x2E60 JUMP JUMPDEST DUP2 EQ PUSH2 0x32C5 JUMPI PUSH1 0x0 DUP1 REVERT JUMPDEST POP JUMP JUMPDEST PUSH2 0x32D1 DUP2 PUSH2 0x2E72 JUMP JUMPDEST DUP2 EQ PUSH2 0x32DC JUMPI PUSH1 0x0 DUP1 REVERT JUMPDEST POP JUMP JUMPDEST PUSH2 0x32E8 DUP2 PUSH2 0x2E7E JUMP JUMPDEST DUP2 EQ PUSH2 0x32F3 JUMPI PUSH1 0x0 DUP1 REVERT JUMPDEST POP JUMP JUMPDEST PUSH2 0x32FF DUP2 PUSH2 0x2EAA JUMP JUMPDEST DUP2 EQ PUSH2 0x330A JUMPI PUSH1 0x0 DUP1 REVERT JUMPDEST POP JUMP JUMPDEST PUSH2 0x3316 DUP2 PUSH2 0x2EBC JUMP JUMPDEST DUP2 EQ PUSH2 0x3321 JUMPI PUSH1 0x0 DUP1 REVERT JUMPDEST POP JUMP JUMPDEST PUSH2 0x332D DUP2 PUSH2 0x2ECE JUMP JUMPDEST DUP2 EQ PUSH2 0x3338 JUMPI PUSH1 0x0 DUP1 REVERT JUMPDEST POP JUMP JUMPDEST PUSH2 0x3344 DUP2 PUSH2 0x2F00 JUMP JUMPDEST DUP2 EQ PUSH2 0x334F JUMPI PUSH1 0x0 DUP1 REVERT JUMPDEST POP JUMP INVALID CALLER 0x2E ADDRESS 0x2E ADDRESS 0x2D PUSH3 0x657461 0x2E CALLER 0x2B PUSH16 0x70656E67736E2E746F6B656E2E697061 PUSH26 0x6D6173746572A2646970667358221220415EFF73296D6742F16D 0xB6 DUP1 DUP2 CALLDATALOAD PUSH15 0x17BB546C0626189806B730395D597E LOG0 0x28 PUSH5 0x736F6C6343 STOP ADDMOD SMOD STOP CALLER "},"methodIdentifiers":{"CALLDATA_SIZE_LIMIT()":"5c5e3db1","FORWARDER_HUB_OVERHEAD()":"b90b41cf","PAYMASTER_ACCEPTANCE_BUDGET()":"df463a66","POST_RELAYED_CALL_GAS_LIMIT()":"bbdaa3c9","PRE_RELAYED_CALL_GAS_LIMIT()":"f9c002f7","gasUsedByPost()":"ad12e50e","getGasAndDataLimits()":"b039a88f","getPayer(((address,address,uint256,uint256,uint256,bytes,uint256),(uint256,uint256,uint256,address,address,address,bytes,uint256)))":"41bbb7ca","getRelayHub()":"7bdf2ec7","getTrustedForwarder()":"ce1b815f","owner()":"8da5cb5b","postRelayedCall(bytes,bool,uint256,(uint256,uint256,uint256,address,address,address,bytes,uint256))":"76fa01c3","preRelayedCall(((address,address,uint256,uint256,uint256,bytes,uint256),(uint256,uint256,uint256,address,address,address,bytes,uint256)),bytes,bytes,uint256)":"00be5dd4","renounceOwnership()":"715018a6","setPostGasUsage(uint256)":"6d7c3e2b","setRelayHub(address)":"7bb05264","setTrustedForwarder(address)":"da742228","supportsInterface(bytes4)":"01ffc9a7","tokens(uint256)":"4f64b2be","transferOwnership(address)":"f2fde38b","uniswaps(uint256)":"61843914","versionPaymaster()":"921276ea","withdrawRelayHubDepositTo(uint256,address)":"2d14c4b7"}}}}}