{
  "_format": "hh-sol-artifact-1",
  "contractName": "TokenPaymaster",
  "sourceName": "contracts/TokenPaymaster.sol",
  "abi": [
    {
      "inputs": [],
      "stateMutability": "nonpayable",
      "type": "constructor"
    },
    {
      "anonymous": false,
      "inputs": [
        {
          "indexed": true,
          "internalType": "address",
          "name": "previousOwner",
          "type": "address"
        },
        {
          "indexed": true,
          "internalType": "address",
          "name": "newOwner",
          "type": "address"
        }
      ],
      "name": "OwnershipTransferred",
      "type": "event"
    },
    {
      "anonymous": false,
      "inputs": [
        {
          "indexed": false,
          "internalType": "uint256",
          "name": "eth",
          "type": "uint256"
        }
      ],
      "name": "Received",
      "type": "event"
    },
    {
      "anonymous": false,
      "inputs": [
        {
          "indexed": false,
          "internalType": "uint256",
          "name": "gasUseWithoutPost",
          "type": "uint256"
        },
        {
          "indexed": false,
          "internalType": "uint256",
          "name": "gasJustPost",
          "type": "uint256"
        },
        {
          "indexed": false,
          "internalType": "uint256",
          "name": "ethActualCharge",
          "type": "uint256"
        },
        {
          "indexed": false,
          "internalType": "uint256",
          "name": "tokenActualCharge",
          "type": "uint256"
        }
      ],
      "name": "TokensCharged",
      "type": "event"
    },
    {
      "inputs": [],
      "name": "CALLDATA_SIZE_LIMIT",
      "outputs": [
        {
          "internalType": "uint256",
          "name": "",
          "type": "uint256"
        }
      ],
      "stateMutability": "view",
      "type": "function"
    },
    {
      "inputs": [],
      "name": "FORWARDER_HUB_OVERHEAD",
      "outputs": [
        {
          "internalType": "uint256",
          "name": "",
          "type": "uint256"
        }
      ],
      "stateMutability": "view",
      "type": "function"
    },
    {
      "inputs": [],
      "name": "PAYMASTER_ACCEPTANCE_BUDGET",
      "outputs": [
        {
          "internalType": "uint256",
          "name": "",
          "type": "uint256"
        }
      ],
      "stateMutability": "view",
      "type": "function"
    },
    {
      "inputs": [],
      "name": "POST_RELAYED_CALL_GAS_LIMIT",
      "outputs": [
        {
          "internalType": "uint256",
          "name": "",
          "type": "uint256"
        }
      ],
      "stateMutability": "view",
      "type": "function"
    },
    {
      "inputs": [],
      "name": "PRE_RELAYED_CALL_GAS_LIMIT",
      "outputs": [
        {
          "internalType": "uint256",
          "name": "",
          "type": "uint256"
        }
      ],
      "stateMutability": "view",
      "type": "function"
    },
    {
      "inputs": [],
      "name": "gasUsedByPost",
      "outputs": [
        {
          "internalType": "uint256",
          "name": "",
          "type": "uint256"
        }
      ],
      "stateMutability": "view",
      "type": "function"
    },
    {
      "inputs": [],
      "name": "getGasAndDataLimits",
      "outputs": [
        {
          "components": [
            {
              "internalType": "uint256",
              "name": "acceptanceBudget",
              "type": "uint256"
            },
            {
              "internalType": "uint256",
              "name": "preRelayedCallGasLimit",
              "type": "uint256"
            },
            {
              "internalType": "uint256",
              "name": "postRelayedCallGasLimit",
              "type": "uint256"
            },
            {
              "internalType": "uint256",
              "name": "calldataSizeLimit",
              "type": "uint256"
            }
          ],
          "internalType": "struct IPaymaster.GasAndDataLimits",
          "name": "limits",
          "type": "tuple"
        }
      ],
      "stateMutability": "view",
      "type": "function"
    },
    {
      "inputs": [
        {
          "components": [
            {
              "components": [
                {
                  "internalType": "address",
                  "name": "from",
                  "type": "address"
                },
                {
                  "internalType": "address",
                  "name": "to",
                  "type": "address"
                },
                {
                  "internalType": "uint256",
                  "name": "value",
                  "type": "uint256"
                },
                {
                  "internalType": "uint256",
                  "name": "gas",
                  "type": "uint256"
                },
                {
                  "internalType": "uint256",
                  "name": "nonce",
                  "type": "uint256"
                },
                {
                  "internalType": "bytes",
                  "name": "data",
                  "type": "bytes"
                },
                {
                  "internalType": "uint256",
                  "name": "validUntilTime",
                  "type": "uint256"
                }
              ],
              "internalType": "struct IForwarder.ForwardRequest",
              "name": "request",
              "type": "tuple"
            },
            {
              "components": [
                {
                  "internalType": "uint256",
                  "name": "maxFeePerGas",
                  "type": "uint256"
                },
                {
                  "internalType": "uint256",
                  "name": "maxPriorityFeePerGas",
                  "type": "uint256"
                },
                {
                  "internalType": "uint256",
                  "name": "transactionCalldataGasUsed",
                  "type": "uint256"
                },
                {
                  "internalType": "address",
                  "name": "relayWorker",
                  "type": "address"
                },
                {
                  "internalType": "address",
                  "name": "paymaster",
                  "type": "address"
                },
                {
                  "internalType": "address",
                  "name": "forwarder",
                  "type": "address"
                },
                {
                  "internalType": "bytes",
                  "name": "paymasterData",
                  "type": "bytes"
                },
                {
                  "internalType": "uint256",
                  "name": "clientId",
                  "type": "uint256"
                }
              ],
              "internalType": "struct GsnTypes.RelayData",
              "name": "relayData",
              "type": "tuple"
            }
          ],
          "internalType": "struct GsnTypes.RelayRequest",
          "name": "relayRequest",
          "type": "tuple"
        }
      ],
      "name": "getPayer",
      "outputs": [
        {
          "internalType": "address",
          "name": "",
          "type": "address"
        }
      ],
      "stateMutability": "view",
      "type": "function"
    },
    {
      "inputs": [],
      "name": "getRelayHub",
      "outputs": [
        {
          "internalType": "address",
          "name": "",
          "type": "address"
        }
      ],
      "stateMutability": "view",
      "type": "function"
    },
    {
      "inputs": [],
      "name": "getTrustedForwarder",
      "outputs": [
        {
          "internalType": "address",
          "name": "",
          "type": "address"
        }
      ],
      "stateMutability": "view",
      "type": "function"
    },
    {
      "inputs": [],
      "name": "owner",
      "outputs": [
        {
          "internalType": "address",
          "name": "",
          "type": "address"
        }
      ],
      "stateMutability": "view",
      "type": "function"
    },
    {
      "inputs": [
        {
          "internalType": "bytes",
          "name": "context",
          "type": "bytes"
        },
        {
          "internalType": "bool",
          "name": "success",
          "type": "bool"
        },
        {
          "internalType": "uint256",
          "name": "gasUseWithoutPost",
          "type": "uint256"
        },
        {
          "components": [
            {
              "internalType": "uint256",
              "name": "maxFeePerGas",
              "type": "uint256"
            },
            {
              "internalType": "uint256",
              "name": "maxPriorityFeePerGas",
              "type": "uint256"
            },
            {
              "internalType": "uint256",
              "name": "transactionCalldataGasUsed",
              "type": "uint256"
            },
            {
              "internalType": "address",
              "name": "relayWorker",
              "type": "address"
            },
            {
              "internalType": "address",
              "name": "paymaster",
              "type": "address"
            },
            {
              "internalType": "address",
              "name": "forwarder",
              "type": "address"
            },
            {
              "internalType": "bytes",
              "name": "paymasterData",
              "type": "bytes"
            },
            {
              "internalType": "uint256",
              "name": "clientId",
              "type": "uint256"
            }
          ],
          "internalType": "struct GsnTypes.RelayData",
          "name": "relayData",
          "type": "tuple"
        }
      ],
      "name": "postRelayedCall",
      "outputs": [],
      "stateMutability": "nonpayable",
      "type": "function"
    },
    {
      "inputs": [
        {
          "components": [
            {
              "components": [
                {
                  "internalType": "address",
                  "name": "from",
                  "type": "address"
                },
                {
                  "internalType": "address",
                  "name": "to",
                  "type": "address"
                },
                {
                  "internalType": "uint256",
                  "name": "value",
                  "type": "uint256"
                },
                {
                  "internalType": "uint256",
                  "name": "gas",
                  "type": "uint256"
                },
                {
                  "internalType": "uint256",
                  "name": "nonce",
                  "type": "uint256"
                },
                {
                  "internalType": "bytes",
                  "name": "data",
                  "type": "bytes"
                },
                {
                  "internalType": "uint256",
                  "name": "validUntilTime",
                  "type": "uint256"
                }
              ],
              "internalType": "struct IForwarder.ForwardRequest",
              "name": "request",
              "type": "tuple"
            },
            {
              "components": [
                {
                  "internalType": "uint256",
                  "name": "maxFeePerGas",
                  "type": "uint256"
                },
                {
                  "internalType": "uint256",
                  "name": "maxPriorityFeePerGas",
                  "type": "uint256"
                },
                {
                  "internalType": "uint256",
                  "name": "transactionCalldataGasUsed",
                  "type": "uint256"
                },
                {
                  "internalType": "address",
                  "name": "relayWorker",
                  "type": "address"
                },
                {
                  "internalType": "address",
                  "name": "paymaster",
                  "type": "address"
                },
                {
                  "internalType": "address",
                  "name": "forwarder",
                  "type": "address"
                },
                {
                  "internalType": "bytes",
                  "name": "paymasterData",
                  "type": "bytes"
                },
                {
                  "internalType": "uint256",
                  "name": "clientId",
                  "type": "uint256"
                }
              ],
              "internalType": "struct GsnTypes.RelayData",
              "name": "relayData",
              "type": "tuple"
            }
          ],
          "internalType": "struct GsnTypes.RelayRequest",
          "name": "relayRequest",
          "type": "tuple"
        },
        {
          "internalType": "bytes",
          "name": "signature",
          "type": "bytes"
        },
        {
          "internalType": "bytes",
          "name": "approvalData",
          "type": "bytes"
        },
        {
          "internalType": "uint256",
          "name": "maxPossibleGas",
          "type": "uint256"
        }
      ],
      "name": "preRelayedCall",
      "outputs": [
        {
          "internalType": "bytes",
          "name": "",
          "type": "bytes"
        },
        {
          "internalType": "bool",
          "name": "",
          "type": "bool"
        }
      ],
      "stateMutability": "nonpayable",
      "type": "function"
    },
    {
      "inputs": [],
      "name": "renounceOwnership",
      "outputs": [],
      "stateMutability": "nonpayable",
      "type": "function"
    },
    {
      "inputs": [
        {
          "internalType": "uint256",
          "name": "_gasUsedByPost",
          "type": "uint256"
        }
      ],
      "name": "setPostGasUsage",
      "outputs": [],
      "stateMutability": "nonpayable",
      "type": "function"
    },
    {
      "inputs": [
        {
          "internalType": "contract IRelayHub",
          "name": "hub",
          "type": "address"
        }
      ],
      "name": "setRelayHub",
      "outputs": [],
      "stateMutability": "nonpayable",
      "type": "function"
    },
    {
      "inputs": [
        {
          "internalType": "address",
          "name": "forwarder",
          "type": "address"
        }
      ],
      "name": "setTrustedForwarder",
      "outputs": [],
      "stateMutability": "nonpayable",
      "type": "function"
    },
    {
      "inputs": [
        {
          "internalType": "bytes4",
          "name": "interfaceId",
          "type": "bytes4"
        }
      ],
      "name": "supportsInterface",
      "outputs": [
        {
          "internalType": "bool",
          "name": "",
          "type": "bool"
        }
      ],
      "stateMutability": "view",
      "type": "function"
    },
    {
      "inputs": [
        {
          "internalType": "uint256",
          "name": "",
          "type": "uint256"
        }
      ],
      "name": "tokens",
      "outputs": [
        {
          "internalType": "contract IERC20",
          "name": "",
          "type": "address"
        }
      ],
      "stateMutability": "view",
      "type": "function"
    },
    {
      "inputs": [
        {
          "internalType": "address",
          "name": "newOwner",
          "type": "address"
        }
      ],
      "name": "transferOwnership",
      "outputs": [],
      "stateMutability": "nonpayable",
      "type": "function"
    },
    {
      "inputs": [
        {
          "internalType": "uint256",
          "name": "",
          "type": "uint256"
        }
      ],
      "name": "uniswaps",
      "outputs": [
        {
          "internalType": "contract IUniswapV3",
          "name": "",
          "type": "address"
        }
      ],
      "stateMutability": "view",
      "type": "function"
    },
    {
      "inputs": [],
      "name": "versionPaymaster",
      "outputs": [
        {
          "internalType": "string",
          "name": "",
          "type": "string"
        }
      ],
      "stateMutability": "view",
      "type": "function"
    },
    {
      "inputs": [
        {
          "internalType": "uint256",
          "name": "amount",
          "type": "uint256"
        },
        {
          "internalType": "address payable",
          "name": "target",
          "type": "address"
        }
      ],
      "name": "withdrawRelayHubDepositTo",
      "outputs": [],
      "stateMutability": "nonpayable",
      "type": "function"
    },
    {
      "stateMutability": "payable",
      "type": "receive"
    }
  ],
  "bytecode": "0x60806040523480156200001157600080fd5b5062000032620000266200014960201b60201c565b6200015160201b60201c565b6003731f98431c8ad98523631ae4a59f267346ea31f9849080600181540180825580915050600190039060005260206000200160009091909190916101000a81548173ffffffffffffffffffffffffffffffffffffffff021916908373ffffffffffffffffffffffffffffffffffffffff1602179055506001600560006003600081548110620000c757620000c662000215565b5b9060005260206000200160009054906101000a900473ffffffffffffffffffffffffffffffffffffffff1673ffffffffffffffffffffffffffffffffffffffff1673ffffffffffffffffffffffffffffffffffffffff16815260200190815260200160002060006101000a81548160ff02191690831515021790555062000244565b600033905090565b60008060009054906101000a900473ffffffffffffffffffffffffffffffffffffffff169050816000806101000a81548173ffffffffffffffffffffffffffffffffffffffff021916908373ffffffffffffffffffffffffffffffffffffffff1602179055508173ffffffffffffffffffffffffffffffffffffffff168173ffffffffffffffffffffffffffffffffffffffff167f8be0079c531659141344cd1fd0a4f28419497f9722a3daafe3b4186f6b6457e060405160405180910390a35050565b7f4e487b7100000000000000000000000000000000000000000000000000000000600052603260045260246000fd5b6133ad80620002546000396000f3fe6080604052600436106101435760003560e01c80637bdf2ec7116100b6578063bbdaa3c91161006f578063bbdaa3c9146104a0578063ce1b815f146104cb578063da742228146104f6578063df463a661461051f578063f2fde38b1461054a578063f9c002f71461057357610181565b80637bdf2ec71461039e5780638da5cb5b146103c9578063921276ea146103f4578063ad12e50e1461041f578063b039a88f1461044a578063b90b41cf1461047557610181565b80635c5e3db1116101085780635c5e3db1146102a457806361843914146102cf5780636d7c3e2b1461030c578063715018a61461033557806376fa01c31461034c5780637bb052641461037557610181565b8062be5dd41461018657806301ffc9a7146101c45780632d14c4b71461020157806341bbb7ca1461022a5780634f64b2be1461026757610181565b36610181577fa8142743f8f70a4c26f3691cf4ed59718381fb2f18070ec52be1f1022d855557346040516101779190612b13565b60405180910390a1005b600080fd5b34801561019257600080fd5b506101ad60048036038101906101a89190611f57565b61059e565b6040516101bb92919061288e565b60405180910390f35b3480156101d057600080fd5b506101eb60048036038101906101e69190611de3565b6105ec565b6040516101f89190612858565b60405180910390f35b34801561020d57600080fd5b5061022860048036038101906102239190612074565b6106ce565b005b34801561023657600080fd5b50610251600480360381019061024c9190611f0e565b610769565b60405161025e919061276f565b60405180910390f35b34801561027357600080fd5b5061028e6004803603810190610289919061201a565b610794565b60405161029b91906128be565b60405180910390f35b3480156102b057600080fd5b506102b96107d3565b6040516102c69190612b13565b60405180910390f35b3480156102db57600080fd5b506102f660048036038101906102f1919061201a565b6107d9565b60405161030391906128d9565b60405180910390f35b34801561031857600080fd5b50610333600480360381019061032e919061201a565b610818565b005b34801561034157600080fd5b5061034a61082a565b005b34801561035857600080fd5b50610373600480360381019061036e9190611e10565b61083e565b005b34801561038157600080fd5b5061039c60048036038101906103979190611eb4565b61085a565b005b3480156103aa57600080fd5b506103b361092e565b6040516103c0919061276f565b60405180910390f35b3480156103d557600080fd5b506103de610958565b6040516103eb919061276f565b60405180910390f35b34801561040057600080fd5b50610409610981565b60405161041691906128f4565b60405180910390f35b34801561042b57600080fd5b506104346109a1565b6040516104419190612b13565b60405180910390f35b34801561045657600080fd5b5061045f6109a7565b60405161046c9190612ad6565b60405180910390f35b34801561048157600080fd5b5061048a6109ed565b6040516104979190612b13565b60405180910390f35b3480156104ac57600080fd5b506104b56109f3565b6040516104c29190612b13565b60405180910390f35b3480156104d757600080fd5b506104e06109fa565b6040516104ed919061276f565b60405180910390f35b34801561050257600080fd5b5061051d60048036038101906105189190611cf5565b610a24565b005b34801561052b57600080fd5b50610534610af8565b6040516105419190612b13565b60405180910390f35b34801561055657600080fd5b50610571600480360381019061056c9190611cf5565b610b0c565b005b34801561057f57600080fd5b50610588610b90565b6040516105959190612b13565b60405180910390f35b606060006105aa610b97565b6105b388610c0e565b6105bc88610cb0565b6105c588610d09565b6105cf8585610d6f565b6105dd888888888888610db9565b91509150965096945050505050565b60007fe1ab2dea000000000000000000000000000000000000000000000000000000007bffffffffffffffffffffffffffffffffffffffffffffffffffffffff1916827bffffffffffffffffffffffffffffffffffffffffffffffffffffffff191614806106b757507f0e083076000000000000000000000000000000000000000000000000000000007bffffffffffffffffffffffffffffffffffffffffffffffffffffffff1916827bffffffffffffffffffffffffffffffffffffffffffffffffffffffff1916145b806106c757506106c682610f0b565b5b9050919050565b6106d6610f75565b600160009054906101000a900473ffffffffffffffffffffffffffffffffffffffff1673ffffffffffffffffffffffffffffffffffffffff1663f3fef3a382846040518363ffffffff1660e01b815260040161073392919061278a565b600060405180830381600087803b15801561074d57600080fd5b505af1158015610761573d6000803e3d6000fd5b505050505050565b600081806000019061077b9190612c3d565b602001602081019061078d9190611cf5565b9050919050565b600481815481106107a457600080fd5b906000526020600020016000915054906101000a900473ffffffffffffffffffffffffffffffffffffffff1681565b61290481565b600381815481106107e957600080fd5b906000526020600020016000915054906101000a900473ffffffffffffffffffffffffffffffffffffffff1681565b610820610f75565b8060068190555050565b610832610f75565b61083c6000610ff3565b565b610846610b97565b61085385858585856110b7565b5050505050565b610862610f75565b6108ab7fe9fb30f7000000000000000000000000000000000000000000000000000000008273ffffffffffffffffffffffffffffffffffffffff166110ef90919063ffffffff16565b6108ea576040517f08c379a00000000000000000000000000000000000000000000000000000000081526004016108e190612a56565b60405180910390fd5b80600160006101000a81548173ffffffffffffffffffffffffffffffffffffffff021916908373ffffffffffffffffffffffffffffffffffffffff16021790555050565b6000600160009054906101000a900473ffffffffffffffffffffffffffffffffffffffff16905090565b60008060009054906101000a900473ffffffffffffffffffffffffffffffffffffffff16905090565b606060405180606001604052806025815260200161335360259139905090565b60065481565b6109af611b3c565b604051806080016040528061c350620186a06109cb9190612dc4565b8152602001620186a081526020016201adb08152602001612904815250905090565b61c35081565b6201adb081565b6000600260009054906101000a900473ffffffffffffffffffffffffffffffffffffffff16905090565b610a2c610f75565b610a757f25e23e64000000000000000000000000000000000000000000000000000000008273ffffffffffffffffffffffffffffffffffffffff166110ef90919063ffffffff16565b610ab4576040517f08c379a0000000000000000000000000000000000000000000000000000000008152600401610aab906129d6565b60405180910390fd5b80600260006101000a81548173ffffffffffffffffffffffffffffffffffffffff021916908373ffffffffffffffffffffffffffffffffffffffff16021790555050565b61c350620186a0610b099190612dc4565b81565b610b14610f75565b600073ffffffffffffffffffffffffffffffffffffffff168173ffffffffffffffffffffffffffffffffffffffff161415610b84576040517f08c379a0000000000000000000000000000000000000000000000000000000008152600401610b7b90612956565b60405180910390fd5b610b8d81610ff3565b50565b620186a081565b610b9f61092e565b73ffffffffffffffffffffffffffffffffffffffff163373ffffffffffffffffffffffffffffffffffffffff1614610c0c576040517f08c379a0000000000000000000000000000000000000000000000000000000008152600401610c0390612a76565b60405180910390fd5b565b808060200190610c1e9190612c65565b60a0016020810190610c309190611cf5565b73ffffffffffffffffffffffffffffffffffffffff16610c4e6109fa565b73ffffffffffffffffffffffffffffffffffffffff1614610ca4576040517f08c379a0000000000000000000000000000000000000000000000000000000008152600401610c9b906129b6565b60405180910390fd5b610cad81611114565b50565b6000818060000190610cc29190612c3d565b6040013514610d06576040517f08c379a0000000000000000000000000000000000000000000000000000000008152600401610cfd90612a96565b60405180910390fd5b50565b6020818060200190610d1b9190612c65565b8060c00190610d2a9190612bda565b905014610d6c576040517f08c379a0000000000000000000000000000000000000000000000000000000008152600401610d6390612916565b60405180910390fd5b50565b60008282905014610db5576040517f08c379a0000000000000000000000000000000000000000000000000000000008152600401610dac90612ab6565b60405180910390fd5b5050565b606060008080610e298a8060200190610dd29190612c65565b8060c00190610de19190612bda565b8080601f016020809104026020016040519081016040528093929190818152602001838380828437600081840152601f19601f82011690508083019250505050505050611314565b91509150600080610e3c84848e8a61143e565b915091508373ffffffffffffffffffffffffffffffffffffffff166323b872dd8330846040518463ffffffff1660e01b8152600401610e7d939291906127b3565b602060405180830381600087803b158015610e9757600080fd5b505af1158015610eab573d6000803e3d6000fd5b505050506040513d601f19601f82011682018060405250810190610ecf9190611db6565b5081818585604051602001610ee79493929190612813565b60405160208183030381529060405260009550955050505050965096945050505050565b60007f01ffc9a7000000000000000000000000000000000000000000000000000000007bffffffffffffffffffffffffffffffffffffffffffffffffffffffff1916827bffffffffffffffffffffffffffffffffffffffffffffffffffffffff1916149050919050565b610f7d611642565b73ffffffffffffffffffffffffffffffffffffffff16610f9b610958565b73ffffffffffffffffffffffffffffffffffffffff1614610ff1576040517f08c379a0000000000000000000000000000000000000000000000000000000008152600401610fe890612a36565b60405180910390fd5b565b60008060009054906101000a900473ffffffffffffffffffffffffffffffffffffffff169050816000806101000a81548173ffffffffffffffffffffffffffffffffffffffff021916908373ffffffffffffffffffffffffffffffffffffffff1602179055508173ffffffffffffffffffffffffffffffffffffffff168173ffffffffffffffffffffffffffffffffffffffff167f8be0079c531659141344cd1fd0a4f28419497f9722a3daafe3b4186f6b6457e060405160405180910390a35050565b60008060008088888101906110cc9190611d4f565b93509350935093506110e4848460008989878761164a565b505050505050505050565b60006110fa83611810565b801561110c575061110b838361185d565b5b905092915050565b6000808280600001906111279190612c3d565b60200160208101906111399190611cf5565b73ffffffffffffffffffffffffffffffffffffffff1663572b6c0560e01b8480602001906111679190612c65565b60a00160208101906111799190611cf5565b604051602401611189919061276f565b604051602081830303815290604052907bffffffffffffffffffffffffffffffffffffffffffffffffffffffff19166020820180517bffffffffffffffffffffffffffffffffffffffffffffffffffffffff83818316178352505050506040516111f39190612758565b600060405180830381855afa9150503d806000811461122e576040519150601f19603f3d011682016040523d82523d6000602084013e611233565b606091505b509150915081611278576040517f08c379a000000000000000000000000000000000000000000000000000000000815260040161126f90612976565b60405180910390fd5b60208151146112bc576040517f08c379a00000000000000000000000000000000000000000000000000000000081526004016112b390612a16565b60405180910390fd5b808060200190518101906112d09190611db6565b61130f576040517f08c379a000000000000000000000000000000000000000000000000000000000815260040161130690612936565b60405180910390fd5b505050565b6000808280602001905181019061132b9190611ee1565b9050600560008273ffffffffffffffffffffffffffffffffffffffff1673ffffffffffffffffffffffffffffffffffffffff16815260200190815260200160002060009054906101000a900460ff166113b9576040517f08c379a00000000000000000000000000000000000000000000000000000000081526004016113b0906129f6565b60405180910390fd5b8073ffffffffffffffffffffffffffffffffffffffff16639d76ea586040518163ffffffff1660e01b815260040160206040518083038186803b1580156113ff57600080fd5b505afa158015611413573d6000803e3d6000fd5b505050506040513d601f19601f820116820180604052508101906114379190611d22565b9150915091565b6000803073ffffffffffffffffffffffffffffffffffffffff166341bbb7ca856040518263ffffffff1660e01b815260040161147a9190612af1565b60206040518083038186803b15801561149257600080fd5b505afa1580156114a6573d6000803e3d6000fd5b505050506040513d601f19601f820116820180604052508101906114ca9190611d22565b91506000600160009054906101000a900473ffffffffffffffffffffffffffffffffffffffff1673ffffffffffffffffffffffffffffffffffffffff16638e53548b8587806020019061151d9190612c65565b6040518363ffffffff1660e01b815260040161153a929190612b2e565b60206040518083038186803b15801561155257600080fd5b505afa158015611566573d6000803e3d6000fd5b505050506040513d601f19601f8201168201806040525081019061158a9190612047565b905084806000019061159c9190612c3d565b60400135816115ab9190612dc4565b90508573ffffffffffffffffffffffffffffffffffffffff16632640f62c826040518263ffffffff1660e01b81526004016115e69190612b13565b60206040518083038186803b1580156115fe57600080fd5b505afa158015611612573d6000803e3d6000fd5b505050506040513d601f19601f820116820180604052508101906116369190612047565b91505094509492505050565b600033905090565b6000600160009054906101000a900473ffffffffffffffffffffffffffffffffffffffff1673ffffffffffffffffffffffffffffffffffffffff16638e53548b600654876116989190612dc4565b866040518363ffffffff1660e01b81526004016116b6929190612b2e565b60206040518083038186803b1580156116ce57600080fd5b505afa1580156116e2573d6000803e3d6000fd5b505050506040513d601f19601f820116820180604052508101906117069190612047565b905060008273ffffffffffffffffffffffffffffffffffffffff16632640f62c83896117329190612dc4565b6040518263ffffffff1660e01b815260040161174e9190612b13565b60206040518083038186803b15801561176657600080fd5b505afa15801561177a573d6000803e3d6000fd5b505050506040513d601f19601f8201168201806040525081019061179e9190612047565b9050600081896117ae9190612e1a565b90506117bb8a868361191c565b6117c583856119ed565b7fb3d69ff8981e297b4ab7fb9ba8e8a080ffebbee9f273bfa2d10116a8236830458760065485856040516117fc9493929190612b95565b60405180910390a150505050505050505050565b600061183c827f01ffc9a70000000000000000000000000000000000000000000000000000000061185d565b801561185657506118548263ffffffff60e01b61185d565b155b9050919050565b6000806301ffc9a760e01b836040516024016118799190612873565b604051602081830303815290604052907bffffffffffffffffffffffffffffffffffffffffffffffffffffffff19166020820180517bffffffffffffffffffffffffffffffffffffffffffffffffffffffff838183161783525050505090506000806000602060008551602087018a617530fa92503d91506000519050828015611904575060208210155b80156119105750600081115b94505050505092915050565b8173ffffffffffffffffffffffffffffffffffffffff1663a9059cbb84836040518363ffffffff1660e01b81526004016119579291906127ea565b602060405180830381600087803b15801561197157600080fd5b505af1158015611985573d6000803e3d6000fd5b505050506040513d601f19601f820116820180604052508101906119a99190611db6565b6119e8576040517f08c379a00000000000000000000000000000000000000000000000000000000081526004016119df90612996565b60405180910390fd5b505050565b8073ffffffffffffffffffffffffffffffffffffffff1663013efd8b837fffffffffffffffffffffffffffffffffffffffffffffffffffffffffffffffff61038442611a399190612dc4565b6040518463ffffffff1660e01b8152600401611a5793929190612b5e565b602060405180830381600087803b158015611a7157600080fd5b505af1158015611a85573d6000803e3d6000fd5b505050506040513d601f19601f82011682018060405250810190611aa99190612047565b50600160009054906101000a900473ffffffffffffffffffffffffffffffffffffffff1673ffffffffffffffffffffffffffffffffffffffff1663aa67c91983306040518363ffffffff1660e01b8152600401611b06919061276f565b6000604051808303818588803b158015611b1f57600080fd5b505af1158015611b33573d6000803e3d6000fd5b50505050505050565b6040518060800160405280600081526020016000815260200160008152602001600081525090565b600081359050611b738161329a565b92915050565b600081519050611b888161329a565b92915050565b600081359050611b9d816132b1565b92915050565b600081359050611bb2816132c8565b92915050565b600081519050611bc7816132c8565b92915050565b600081359050611bdc816132df565b92915050565b60008083601f840112611bf857611bf7612fcd565b5b8235905067ffffffffffffffff811115611c1557611c14612fc8565b5b602083019150836001820283011115611c3157611c30612fe6565b5b9250929050565b600081359050611c47816132f6565b92915050565b600081359050611c5c8161330d565b92915050565b600081359050611c7181613324565b92915050565b600081519050611c8681613324565b92915050565b60006101008284031215611ca357611ca2612fd7565b5b81905092915050565b600060408284031215611cc257611cc1612fd7565b5b81905092915050565b600081359050611cda8161333b565b92915050565b600081519050611cef8161333b565b92915050565b600060208284031215611d0b57611d0a612ffa565b5b6000611d1984828501611b64565b91505092915050565b600060208284031215611d3857611d37612ffa565b5b6000611d4684828501611b79565b91505092915050565b60008060008060808587031215611d6957611d68612ffa565b5b6000611d7787828801611b8e565b9450506020611d8887828801611ccb565b9350506040611d9987828801611c38565b9250506060611daa87828801611c62565b91505092959194509250565b600060208284031215611dcc57611dcb612ffa565b5b6000611dda84828501611bb8565b91505092915050565b600060208284031215611df957611df8612ffa565b5b6000611e0784828501611bcd565b91505092915050565b600080600080600060808688031215611e2c57611e2b612ffa565b5b600086013567ffffffffffffffff811115611e4a57611e49612ff0565b5b611e5688828901611be2565b95509550506020611e6988828901611ba3565b9350506040611e7a88828901611ccb565b925050606086013567ffffffffffffffff811115611e9b57611e9a612ff0565b5b611ea788828901611c8c565b9150509295509295909350565b600060208284031215611eca57611ec9612ffa565b5b6000611ed884828501611c4d565b91505092915050565b600060208284031215611ef757611ef6612ffa565b5b6000611f0584828501611c77565b91505092915050565b600060208284031215611f2457611f23612ffa565b5b600082013567ffffffffffffffff811115611f4257611f41612ff0565b5b611f4e84828501611cac565b91505092915050565b60008060008060008060808789031215611f7457611f73612ffa565b5b600087013567ffffffffffffffff811115611f9257611f91612ff0565b5b611f9e89828a01611cac565b965050602087013567ffffffffffffffff811115611fbf57611fbe612ff0565b5b611fcb89828a01611be2565b9550955050604087013567ffffffffffffffff811115611fee57611fed612ff0565b5b611ffa89828a01611be2565b9350935050606061200d89828a01611ccb565b9150509295509295509295565b6000602082840312156120305761202f612ffa565b5b600061203e84828501611ccb565b91505092915050565b60006020828403121561205d5761205c612ffa565b5b600061206b84828501611ce0565b91505092915050565b6000806040838503121561208b5761208a612ffa565b5b600061209985828601611ccb565b92505060206120aa85828601611b8e565b9150509250929050565b6120bd81612e60565b82525050565b6120cc81612e4e565b82525050565b6120db81612e4e565b82525050565b6120ea81612e72565b82525050565b6120f981612e7e565b82525050565b600061210b8385612ca4565b9350612118838584612f52565b61212183612fff565b840190509392505050565b600061213782612c8e565b6121418185612cb5565b9350612151818560208601612f61565b61215a81612fff565b840191505092915050565b600061217082612c8e565b61217a8185612cc6565b935061218a818560208601612f61565b80840191505092915050565b61219f81612f0a565b82525050565b6121ae81612f1c565b82525050565b60006121bf82612c99565b6121c98185612cd1565b93506121d9818560208601612f61565b6121e281612fff565b840191505092915050565b60006121fa603d83612cd1565b915061220582613010565b604082019050919050565b600061221d601f83612cd1565b91506122288261305f565b602082019050919050565b6000612240602683612cd1565b915061224b82613088565b604082019050919050565b6000612263601c83612cd1565b915061226e826130d7565b602082019050919050565b6000612286600d83612cd1565b915061229182613100565b602082019050919050565b60006122a9601883612cd1565b91506122b482613129565b602082019050919050565b60006122cc602083612cd1565b91506122d782613152565b602082019050919050565b60006122ef601983612cd1565b91506122fa8261317b565b602082019050919050565b6000612312602083612cd1565b915061231d826131a4565b602082019050919050565b6000612335602083612cd1565b9150612340826131cd565b602082019050919050565b6000612358601f83612cd1565b9150612363826131f6565b602082019050919050565b600061237b601e83612cd1565b91506123868261321f565b602082019050919050565b600061239e601c83612cd1565b91506123a982613248565b602082019050919050565b60006123c1601b83612cd1565b91506123cc82613271565b602082019050919050565b600060e083016123ea6000840184612ce2565b6123f760008601826120c3565b506124056020840184612ce2565b61241260208601826120c3565b506124206040840184612dad565b61242d604086018261273a565b5061243b6060840184612dad565b612448606086018261273a565b506124566080840184612dad565b612463608086018261273a565b5061247160a0840184612cf9565b85830360a08701526124848382846120ff565b9250505061249560c0840184612dad565b6124a260c086018261273a565b508091505092915050565b6080820160008201516124c3600085018261273a565b5060208201516124d6602085018261273a565b5060408201516124e9604085018261273a565b5060608201516124fc606085018261273a565b50505050565b600061010083016125166000840184612dad565b612523600086018261273a565b506125316020840184612dad565b61253e602086018261273a565b5061254c6040840184612dad565b612559604086018261273a565b506125676060840184612ce2565b61257460608601826120c3565b506125826080840184612ce2565b61258f60808601826120c3565b5061259d60a0840184612ce2565b6125aa60a08601826120c3565b506125b860c0840184612cf9565b85830360c08701526125cb8382846120ff565b925050506125dc60e0840184612dad565b6125e960e086018261273a565b508091505092915050565b600061010083016126086000840184612dad565b612615600086018261273a565b506126236020840184612dad565b612630602086018261273a565b5061263e6040840184612dad565b61264b604086018261273a565b506126596060840184612ce2565b61266660608601826120c3565b506126746080840184612ce2565b61268160808601826120c3565b5061268f60a0840184612ce2565b61269c60a08601826120c3565b506126aa60c0840184612cf9565b85830360c08701526126bd8382846120ff565b925050506126ce60e0840184612dad565b6126db60e086018261273a565b508091505092915050565b6000604083016126f96000840184612d5c565b848203600086015261270b82826123d7565b91505061271b6020840184612d84565b848203602086015261272d8282612502565b9150508091505092915050565b61274381612f00565b82525050565b61275281612f00565b82525050565b60006127648284612165565b915081905092915050565b600060208201905061278460008301846120d2565b92915050565b600060408201905061279f60008301856120b4565b6127ac6020830184612749565b9392505050565b60006060820190506127c860008301866120d2565b6127d560208301856120d2565b6127e26040830184612749565b949350505050565b60006040820190506127ff60008301856120d2565b61280c6020830184612749565b9392505050565b600060808201905061282860008301876120d2565b6128356020830186612749565b6128426040830185612196565b61284f60608301846121a5565b95945050505050565b600060208201905061286d60008301846120e1565b92915050565b600060208201905061288860008301846120f0565b92915050565b600060408201905081810360008301526128a8818561212c565b90506128b760208301846120e1565b9392505050565b60006020820190506128d36000830184612196565b92915050565b60006020820190506128ee60008301846121a5565b92915050565b6000602082019050818103600083015261290e81846121b4565b905092915050565b6000602082019050818103600083015261292f816121ed565b9050919050565b6000602082019050818103600083015261294f81612210565b9050919050565b6000602082019050818103600083015261296f81612233565b9050919050565b6000602082019050818103600083015261298f81612256565b9050919050565b600060208201905081810360008301526129af81612279565b9050919050565b600060208201905081810360008301526129cf8161229c565b9050919050565b600060208201905081810360008301526129ef816122bf565b9050919050565b60006020820190508181036000830152612a0f816122e2565b9050919050565b60006020820190508181036000830152612a2f81612305565b9050919050565b60006020820190508181036000830152612a4f81612328565b9050919050565b60006020820190508181036000830152612a6f8161234b565b9050919050565b60006020820190508181036000830152612a8f8161236e565b9050919050565b60006020820190508181036000830152612aaf81612391565b9050919050565b60006020820190508181036000830152612acf816123b4565b9050919050565b6000608082019050612aeb60008301846124ad565b92915050565b60006020820190508181036000830152612b0b81846126e6565b905092915050565b6000602082019050612b286000830184612749565b92915050565b6000604082019050612b436000830185612749565b8181036020830152612b5581846125f4565b90509392505050565b6000606082019050612b736000830186612749565b612b806020830185612749565b612b8d6040830184612749565b949350505050565b6000608082019050612baa6000830187612749565b612bb76020830186612749565b612bc46040830185612749565b612bd16060830184612749565b95945050505050565b60008083356001602003843603038112612bf757612bf6612fdc565b5b80840192508235915067ffffffffffffffff821115612c1957612c18612fd2565b5b602083019250600182023603831315612c3557612c34612feb565b5b509250929050565b60008235600160e003833603038112612c5957612c58612fdc565b5b80830191505092915050565b60008235600161010003833603038112612c8257612c81612fdc565b5b80830191505092915050565b600081519050919050565b600081519050919050565b600082825260208201905092915050565b600082825260208201905092915050565b600081905092915050565b600082825260208201905092915050565b6000612cf16020840184611b64565b905092915050565b60008083356001602003843603038112612d1657612d15612ff5565b5b83810192508235915060208301925067ffffffffffffffff821115612d3e57612d3d612fc3565b5b600182023603841315612d5457612d53612fe1565b5b509250929050565b60008235600160e003833603038112612d7857612d77612ff5565b5b82810191505092915050565b60008235600161010003833603038112612da157612da0612ff5565b5b82810191505092915050565b6000612dbc6020840184611ccb565b905092915050565b6000612dcf82612f00565b9150612dda83612f00565b9250827fffffffffffffffffffffffffffffffffffffffffffffffffffffffffffffffff03821115612e0f57612e0e612f94565b5b828201905092915050565b6000612e2582612f00565b9150612e3083612f00565b925082821015612e4357612e42612f94565b5b828203905092915050565b6000612e5982612ee0565b9050919050565b6000612e6b82612ee0565b9050919050565b60008115159050919050565b60007fffffffff0000000000000000000000000000000000000000000000000000000082169050919050565b6000612eb582612e4e565b9050919050565b6000612ec782612e4e565b9050919050565b6000612ed982612e4e565b9050919050565b600073ffffffffffffffffffffffffffffffffffffffff82169050919050565b6000819050919050565b6000612f1582612f2e565b9050919050565b6000612f2782612f2e565b9050919050565b6000612f3982612f40565b9050919050565b6000612f4b82612ee0565b9050919050565b82818337600083830152505050565b60005b83811015612f7f578082015181840152602081019050612f64565b83811115612f8e576000848401525b50505050565b7f4e487b7100000000000000000000000000000000000000000000000000000000600052601160045260246000fd5b600080fd5b600080fd5b600080fd5b600080fd5b600080fd5b600080fd5b600080fd5b600080fd5b600080fd5b600080fd5b600080fd5b600080fd5b6000601f19601f8301169050919050565b7f7061796d6173746572446174613a20696e76616c6964206c656e67746820666f60008201527f7220556e69737761702076332065786368616e67652061646472657373000000602082015250565b7f696e76616c696420666f7277617264657220666f7220726563697069656e7400600082015250565b7f4f776e61626c653a206e6577206f776e657220697320746865207a65726f206160008201527f6464726573730000000000000000000000000000000000000000000000000000602082015250565b7f697354727573746564466f727761726465723a20726576657274656400000000600082015250565b7f6661696c656420726566756e6400000000000000000000000000000000000000600082015250565b7f466f72776172646572206973206e6f7420747275737465640000000000000000600082015250565b7f746172676574206973206e6f7420612076616c69642049466f72776172646572600082015250565b7f756e737570706f7274656420746f6b656e20756e697377617000000000000000600082015250565b7f697354727573746564466f727761726465723a2062616420726573706f6e7365600082015250565b7f4f776e61626c653a2063616c6c6572206973206e6f7420746865206f776e6572600082015250565b7f746172676574206973206e6f7420612076616c6964204952656c617948756200600082015250565b7f63616e206f6e6c792062652063616c6c65642062792052656c61794875620000600082015250565b7f76616c7565207472616e73666572206e6f7420737570706f7274656400000000600082015250565b7f73686f756c642068617665206e6f20617070726f76616c446174610000000000600082015250565b6132a381612e4e565b81146132ae57600080fd5b50565b6132ba81612e60565b81146132c557600080fd5b50565b6132d181612e72565b81146132dc57600080fd5b50565b6132e881612e7e565b81146132f357600080fd5b50565b6132ff81612eaa565b811461330a57600080fd5b50565b61331681612ebc565b811461332157600080fd5b50565b61332d81612ece565b811461333857600080fd5b50565b61334481612f00565b811461334f57600080fd5b5056fe332e302e302d626574612e332b6f70656e67736e2e746f6b656e2e697061796d6173746572a2646970667358221220415eff73296d6742f16db68081356e17bb546c0626189806b730395d597ea02864736f6c63430008070033",
  "linkReferences": {},
  "deployedLinkReferences": {}
}