{
  "_format": "hh-sol-artifact-1",
  "contractName": "GsnEip712Library",
  "sourceName": "@opengsn/contracts/src/utils/GsnEip712Library.sol",
  "abi": [
    {
      "inputs": [],
      "name": "EIP712DOMAIN_TYPEHASH",
      "outputs": [
        {
          "internalType": "bytes32",
          "name": "",
          "type": "bytes32"
        }
      ],
      "stateMutability": "view",
      "type": "function"
    },
    {
      "inputs": [],
      "name": "GENERIC_PARAMS",
      "outputs": [
        {
          "internalType": "string",
          "name": "",
          "type": "string"
        }
      ],
      "stateMutability": "view",
      "type": "function"
    },
    {
      "inputs": [],
      "name": "RELAYDATA_TYPE",
      "outputs": [
        {
          "internalType": "bytes",
          "name": "",
          "type": "bytes"
        }
      ],
      "stateMutability": "view",
      "type": "function"
    },
    {
      "inputs": [],
      "name": "RELAYDATA_TYPEHASH",
      "outputs": [
        {
          "internalType": "bytes32",
          "name": "",
          "type": "bytes32"
        }
      ],
      "stateMutability": "view",
      "type": "function"
    },
    {
      "inputs": [],
      "name": "RELAY_REQUEST_NAME",
      "outputs": [
        {
          "internalType": "string",
          "name": "",
          "type": "string"
        }
      ],
      "stateMutability": "view",
      "type": "function"
    },
    {
      "inputs": [],
      "name": "RELAY_REQUEST_SUFFIX",
      "outputs": [
        {
          "internalType": "string",
          "name": "",
          "type": "string"
        }
      ],
      "stateMutability": "view",
      "type": "function"
    },
    {
      "inputs": [],
      "name": "RELAY_REQUEST_TYPE",
      "outputs": [
        {
          "internalType": "bytes",
          "name": "",
          "type": "bytes"
        }
      ],
      "stateMutability": "view",
      "type": "function"
    },
    {
      "inputs": [],
      "name": "RELAY_REQUEST_TYPEHASH",
      "outputs": [
        {
          "internalType": "bytes32",
          "name": "",
          "type": "bytes32"
        }
      ],
      "stateMutability": "view",
      "type": "function"
    }
  ],
  "bytecode": "0x610855610053600b82828239805160001a607314610046577f4e487b7100000000000000000000000000000000000000000000000000000000600052600060045260246000fd5b30600052607381538281f3fe73000000000000000000000000000000000000000030146080604052600436106100925760003560e01c8063abf0d3f411610065578063abf0d3f41461010f578063c46cf83f1461012d578063c49f91d31461014b578063cc0c62b21461016957610092565b8063066a310c146100975780636225e61b146100b5578063931cd38f146100d3578063987673f7146100f1575b600080fd5b61009f610187565b6040516100ac91906105c9565b60405180910390f35b6100bd6101a3565b6040516100ca91906105a7565b60405180910390f35b6100db61024e565b6040516100e891906105c9565b60405180910390f35b6100f9610289565b60405161010691906105c9565b60405180910390f35b6101176102c2565b604051610124919061058c565b60405180910390f35b610135610374565b60405161014291906105a7565b60405180910390f35b610153610390565b604051610160919061058c565b60405180910390f35b6101716103b4565b60405161017e919061058c565b60405180910390f35b6040518060a00160405280606181526020016107036061913981565b6040518060400160405280600c81526020017f52656c61795265717565737400000000000000000000000000000000000000008152506040518060a0016040528060618152602001610703606191396040518060e0016040528060bc815260200161076460bc913960405160200161021b919061056a565b60405160208183030381529060405260405160200161023c93929190610523565b60405160208183030381529060405281565b6040518060e0016040528060bc815260200161076460bc9139604051602001610277919061056a565b60405160208183030381529060405281565b6040518060400160405280600c81526020017f52656c617952657175657374000000000000000000000000000000000000000081525081565b6040518060400160405280600c81526020017f52656c61795265717565737400000000000000000000000000000000000000008152506040518060a0016040528060618152602001610703606191396040518060e0016040528060bc815260200161076460bc913960405160200161033a919061056a565b60405160208183030381529060405260405160200161035b93929190610523565b6040516020818303038152906040528051906020012081565b6040518060e0016040528060bc815260200161076460bc913981565b7f8b73c3c69bb8fe3d512ecc4cf759cc79239f7b179b0ffacaa9a75d522b39400f81565b6040518060e0016040528060bc815260200161076460bc91398051906020012081565b6103e081610639565b82525050565b60006103f1826105eb565b6103fb8185610601565b935061040b818560208601610643565b61041481610676565b840191505092915050565b600061042a826105eb565b6104348185610612565b9350610444818560208601610643565b80840191505092915050565b600061045b826105f6565b610465818561061d565b9350610475818560208601610643565b61047e81610676565b840191505092915050565b6000610494826105f6565b61049e818561062e565b93506104ae818560208601610643565b80840191505092915050565b60006104c760018361062e565b91506104d282610687565b600182019050919050565b60006104ea60148361062e565b91506104f5826106b0565b601482019050919050565b600061050d60018361062e565b9150610518826106d9565b600182019050919050565b600061052f8286610489565b915061053a82610500565b91506105468285610489565b9150610551826104ba565b915061055d8284610489565b9150819050949350505050565b6000610575826104dd565b9150610581828461041f565b915081905092915050565b60006020820190506105a160008301846103d7565b92915050565b600060208201905081810360008301526105c181846103e6565b905092915050565b600060208201905081810360008301526105e38184610450565b905092915050565b600081519050919050565b600081519050919050565b600082825260208201905092915050565b600081905092915050565b600082825260208201905092915050565b600081905092915050565b6000819050919050565b60005b83811015610661578082015181840152602081019050610646565b83811115610670576000848401525b50505050565b6000601f19601f8301169050919050565b7f2c00000000000000000000000000000000000000000000000000000000000000600082015250565b7f52656c6179446174612072656c61794461746129000000000000000000000000600082015250565b7f280000000000000000000000000000000000000000000000000000000000000060008201525056fe616464726573732066726f6d2c6164647265737320746f2c75696e743235362076616c75652c75696e74323536206761732c75696e74323536206e6f6e63652c627974657320646174612c75696e743235362076616c6964556e74696c54696d6552656c6179446174612875696e74323536206d61784665655065724761732c75696e74323536206d61785072696f726974794665655065724761732c75696e74323536207472616e73616374696f6e43616c6c64617461476173557365642c616464726573732072656c6179576f726b65722c61646472657373207061796d61737465722c6164647265737320666f727761726465722c6279746573207061796d6173746572446174612c75696e7432353620636c69656e74496429a26469706673582212203b73b1f1919d2a0e52c3b0f974b980d4d8ab6d162204944682114fc7585ed9d164736f6c63430008070033",
  "linkReferences": {},
  "deployedLinkReferences": {}
}